{
  "contractName": "MARS_NFT",
  "abi": [
    {
      "inputs": [],
      "stateMutability": "nonpayable",
      "type": "constructor"
    },
    {
      "anonymous": false,
      "inputs": [
        {
          "indexed": true,
          "internalType": "address",
          "name": "owner",
          "type": "address"
        },
        {
          "indexed": true,
          "internalType": "address",
          "name": "approved",
          "type": "address"
        },
        {
          "indexed": true,
          "internalType": "uint256",
          "name": "tokenId",
          "type": "uint256"
        }
      ],
      "name": "Approval",
      "type": "event"
    },
    {
      "anonymous": false,
      "inputs": [
        {
          "indexed": true,
          "internalType": "address",
          "name": "owner",
          "type": "address"
        },
        {
          "indexed": true,
          "internalType": "address",
          "name": "operator",
          "type": "address"
        },
        {
          "indexed": false,
          "internalType": "bool",
          "name": "approved",
          "type": "bool"
        }
      ],
      "name": "ApprovalForAll",
      "type": "event"
    },
    {
      "anonymous": false,
      "inputs": [
        {
          "indexed": true,
          "internalType": "address",
          "name": "from",
          "type": "address"
        },
        {
          "indexed": true,
          "internalType": "address",
          "name": "to",
          "type": "address"
        },
        {
          "indexed": true,
          "internalType": "uint256",
          "name": "tokenId",
          "type": "uint256"
        }
      ],
      "name": "Transfer",
      "type": "event"
    },
    {
      "inputs": [
        {
          "internalType": "address",
          "name": "to",
          "type": "address"
        },
        {
          "internalType": "uint256",
          "name": "tokenId",
          "type": "uint256"
        }
      ],
      "name": "approve",
      "outputs": [],
      "stateMutability": "nonpayable",
      "type": "function"
    },
    {
      "inputs": [
        {
          "internalType": "address",
          "name": "owner",
          "type": "address"
        }
      ],
      "name": "balanceOf",
      "outputs": [
        {
          "internalType": "uint256",
          "name": "",
          "type": "uint256"
        }
      ],
      "stateMutability": "view",
      "type": "function",
      "constant": true
    },
    {
      "inputs": [
        {
          "internalType": "uint256",
          "name": "tokenId",
          "type": "uint256"
        }
      ],
      "name": "getApproved",
      "outputs": [
        {
          "internalType": "address",
          "name": "",
          "type": "address"
        }
      ],
      "stateMutability": "view",
      "type": "function",
      "constant": true
    },
    {
      "inputs": [
        {
          "internalType": "address",
          "name": "owner",
          "type": "address"
        },
        {
          "internalType": "address",
          "name": "operator",
          "type": "address"
        }
      ],
      "name": "isApprovedForAll",
      "outputs": [
        {
          "internalType": "bool",
          "name": "",
          "type": "bool"
        }
      ],
      "stateMutability": "view",
      "type": "function",
      "constant": true
    },
    {
      "inputs": [],
      "name": "name",
      "outputs": [
        {
          "internalType": "string",
          "name": "",
          "type": "string"
        }
      ],
      "stateMutability": "view",
      "type": "function",
      "constant": true
    },
    {
      "inputs": [
        {
          "internalType": "uint256",
          "name": "tokenId",
          "type": "uint256"
        }
      ],
      "name": "ownerOf",
      "outputs": [
        {
          "internalType": "address",
          "name": "",
          "type": "address"
        }
      ],
      "stateMutability": "view",
      "type": "function",
      "constant": true
    },
    {
      "inputs": [
        {
          "internalType": "address",
          "name": "from",
          "type": "address"
        },
        {
          "internalType": "address",
          "name": "to",
          "type": "address"
        },
        {
          "internalType": "uint256",
          "name": "tokenId",
          "type": "uint256"
        }
      ],
      "name": "safeTransferFrom",
      "outputs": [],
      "stateMutability": "nonpayable",
      "type": "function"
    },
    {
      "inputs": [
        {
          "internalType": "address",
          "name": "from",
          "type": "address"
        },
        {
          "internalType": "address",
          "name": "to",
          "type": "address"
        },
        {
          "internalType": "uint256",
          "name": "tokenId",
          "type": "uint256"
        },
        {
          "internalType": "bytes",
          "name": "data",
          "type": "bytes"
        }
      ],
      "name": "safeTransferFrom",
      "outputs": [],
      "stateMutability": "nonpayable",
      "type": "function"
    },
    {
      "inputs": [
        {
          "internalType": "address",
          "name": "operator",
          "type": "address"
        },
        {
          "internalType": "bool",
          "name": "approved",
          "type": "bool"
        }
      ],
      "name": "setApprovalForAll",
      "outputs": [],
      "stateMutability": "nonpayable",
      "type": "function"
    },
    {
      "inputs": [
        {
          "internalType": "bytes4",
          "name": "interfaceId",
          "type": "bytes4"
        }
      ],
      "name": "supportsInterface",
      "outputs": [
        {
          "internalType": "bool",
          "name": "",
          "type": "bool"
        }
      ],
      "stateMutability": "view",
      "type": "function",
      "constant": true
    },
    {
      "inputs": [],
      "name": "symbol",
      "outputs": [
        {
          "internalType": "string",
          "name": "",
          "type": "string"
        }
      ],
      "stateMutability": "view",
      "type": "function",
      "constant": true
    },
    {
      "inputs": [
        {
          "internalType": "uint256",
          "name": "index",
          "type": "uint256"
        }
      ],
      "name": "tokenByIndex",
      "outputs": [
        {
          "internalType": "uint256",
          "name": "",
          "type": "uint256"
        }
      ],
      "stateMutability": "view",
      "type": "function",
      "constant": true
    },
    {
      "inputs": [
        {
          "internalType": "address",
          "name": "owner",
          "type": "address"
        },
        {
          "internalType": "uint256",
          "name": "index",
          "type": "uint256"
        }
      ],
      "name": "tokenOfOwnerByIndex",
      "outputs": [
        {
          "internalType": "uint256",
          "name": "",
          "type": "uint256"
        }
      ],
      "stateMutability": "view",
      "type": "function",
      "constant": true
    },
    {
      "inputs": [
        {
          "internalType": "uint256",
          "name": "tokenId",
          "type": "uint256"
        }
      ],
      "name": "tokenURI",
      "outputs": [
        {
          "internalType": "string",
          "name": "",
          "type": "string"
        }
      ],
      "stateMutability": "view",
      "type": "function",
      "constant": true
    },
    {
      "inputs": [],
      "name": "totalSupply",
      "outputs": [
        {
          "internalType": "uint256",
          "name": "",
          "type": "uint256"
        }
      ],
      "stateMutability": "view",
      "type": "function",
      "constant": true
    },
    {
      "inputs": [
        {
          "internalType": "address",
          "name": "from",
          "type": "address"
        },
        {
          "internalType": "address",
          "name": "to",
          "type": "address"
        },
        {
          "internalType": "uint256",
          "name": "tokenId",
          "type": "uint256"
        }
      ],
      "name": "transferFrom",
      "outputs": [],
      "stateMutability": "nonpayable",
      "type": "function"
    },
    {
      "inputs": [
        {
          "internalType": "uint40",
          "name": "crop",
          "type": "uint40"
        },
        {
          "internalType": "uint256",
          "name": "nonce",
          "type": "uint256"
        }
      ],
      "name": "mint",
      "outputs": [
        {
          "internalType": "uint256",
          "name": "",
          "type": "uint256"
        }
      ],
      "stateMutability": "nonpayable",
      "type": "function"
    },
    {
      "inputs": [
        {
          "internalType": "uint256",
          "name": "tokenId",
          "type": "uint256"
        }
      ],
      "name": "burn",
      "outputs": [],
      "stateMutability": "nonpayable",
      "type": "function"
    },
    {
      "inputs": [
        {
          "internalType": "uint256",
          "name": "nft1TokenId",
          "type": "uint256"
        },
        {
          "internalType": "uint256",
          "name": "nft2TokenId",
          "type": "uint256"
        },
        {
          "internalType": "uint256",
          "name": "nonce",
          "type": "uint256"
        }
      ],
      "name": "combNFT",
      "outputs": [
        {
          "internalType": "uint256",
          "name": "",
          "type": "uint256"
        }
      ],
      "stateMutability": "nonpayable",
      "type": "function"
    },
    {
      "inputs": [
        {
          "internalType": "address",
          "name": "to",
          "type": "address"
        },
        {
          "internalType": "uint256",
          "name": "tokenId",
          "type": "uint256"
        }
      ],
      "name": "approveTo",
      "outputs": [],
      "stateMutability": "nonpayable",
      "type": "function"
    },
    {
      "inputs": [],
      "name": "current",
      "outputs": [
        {
          "internalType": "uint256",
          "name": "",
          "type": "uint256"
        }
      ],
      "stateMutability": "view",
      "type": "function",
      "constant": true
    },
    {
      "inputs": [
        {
          "internalType": "uint256",
          "name": "tokenId",
          "type": "uint256"
        }
      ],
      "name": "getNftDna",
      "outputs": [
        {
          "internalType": "uint40",
          "name": "",
          "type": "uint40"
        }
      ],
      "stateMutability": "view",
      "type": "function",
      "constant": true
    }
  ],
  "bytecode": "0x60806040523480156200001157600080fd5b506040518060400160405280600881526020017f4d4152535f4e46540000000000000000000000000000000000000000000000008152506040518060400160405280600781526020017f4d4152534e46540000000000000000000000000000000000000000000000000081525081600090816200008f919062000324565b508060019081620000a1919062000324565b5050506200040b565b600081519050919050565b7f4e487b7100000000000000000000000000000000000000000000000000000000600052604160045260246000fd5b7f4e487b7100000000000000000000000000000000000000000000000000000000600052602260045260246000fd5b600060028204905060018216806200012c57607f821691505b602082108103620001425762000141620000e4565b5b50919050565b60008190508160005260206000209050919050565b60006020601f8301049050919050565b600082821b905092915050565b600060088302620001ac7fffffffffffffffffffffffffffffffffffffffffffffffffffffffffffffffff826200016d565b620001b886836200016d565b95508019841693508086168417925050509392505050565b6000819050919050565b6000819050919050565b600062000205620001ff620001f984620001d0565b620001da565b620001d0565b9050919050565b6000819050919050565b6200022183620001e4565b6200023962000230826200020c565b8484546200017a565b825550505050565b600090565b6200025062000241565b6200025d81848462000216565b505050565b5b8181101562000285576200027960008262000246565b60018101905062000263565b5050565b601f821115620002d4576200029e8162000148565b620002a9846200015d565b81016020851015620002b9578190505b620002d1620002c8856200015d565b83018262000262565b50505b505050565b600082821c905092915050565b6000620002f960001984600802620002d9565b1980831691505092915050565b6000620003148383620002e6565b9150826002028217905092915050565b6200032f82620000aa565b67ffffffffffffffff8111156200034b576200034a620000b5565b5b62000357825462000113565b6200036482828562000289565b600060209050601f8311600181146200039c576000841562000387578287015190505b62000393858262000306565b86555062000403565b601f198416620003ac8662000148565b60005b82811015620003d657848901518255600182019150602085019450602081019050620003af565b86831015620003f65784890151620003f2601f891682620002e6565b8355505b6001600288020188555050505b505050505050565b6138f0806200041b6000396000f3fe608060405234801561001057600080fd5b50600436106101425760003560e01c80636352211e116100b8578063a22cb4651161007c578063a22cb4651461039b578063ab4ad308146103b7578063b88d4fde146103e7578063c87b56dd14610403578063d65fa14114610433578063e985e9c51461046357610142565b80636352211e146102cf57806370a08231146102ff57806395d89b411461032f5780639dde93611461034d5780639fa6a6e31461037d57610142565b80631f64e71f1161010a5780631f64e71f146101ff57806323b872dd1461021b5780632f745c591461023757806342842e0e1461026757806342966c68146102835780634f6ccce71461029f57610142565b806301ffc9a71461014757806306fdde0314610177578063081812fc14610195578063095ea7b3146101c557806318160ddd146101e1575b600080fd5b610161600480360381019061015c9190612545565b610493565b60405161016e919061258d565b60405180910390f35b61017f61050d565b60405161018c9190612638565b60405180910390f35b6101af60048036038101906101aa9190612690565b61059f565b6040516101bc91906126fe565b60405180910390f35b6101df60048036038101906101da9190612745565b6105e5565b005b6101e96106fc565b6040516101f69190612794565b60405180910390f35b61021960048036038101906102149190612745565b610709565b005b610235600480360381019061023091906127af565b610717565b005b610251600480360381019061024c9190612745565b610777565b60405161025e9190612794565b60405180910390f35b610281600480360381019061027c91906127af565b61081c565b005b61029d60048036038101906102989190612690565b61083c565b005b6102b960048036038101906102b49190612690565b6108a3565b6040516102c69190612794565b60405180910390f35b6102e960048036038101906102e49190612690565b610914565b6040516102f691906126fe565b60405180910390f35b61031960048036038101906103149190612802565b61099a565b6040516103269190612794565b60405180910390f35b610337610a51565b6040516103449190612638565b60405180910390f35b6103676004803603810190610362919061286c565b610ae3565b6040516103749190612794565b60405180910390f35b610385610be6565b6040516103929190612794565b60405180910390f35b6103b560048036038101906103b091906128d8565b610bf7565b005b6103d160048036038101906103cc9190612918565b610c0d565b6040516103de9190612794565b60405180910390f35b61040160048036038101906103fc9190612aa0565b610ec3565b005b61041d60048036038101906104189190612690565b610f25565b60405161042a9190612638565b60405180910390f35b61044d60048036038101906104489190612690565b610f8d565b60405161045a9190612b32565b60405180910390f35b61047d60048036038101906104789190612b4d565b610fbb565b60405161048a919061258d565b60405180910390f35b60007f780e9d63000000000000000000000000000000000000000000000000000000007bffffffffffffffffffffffffffffffffffffffffffffffffffffffff1916827bffffffffffffffffffffffffffffffffffffffffffffffffffffffff1916148061050657506105058261104f565b5b9050919050565b60606000805461051c90612bbc565b80601f016020809104026020016040519081016040528092919081815260200182805461054890612bbc565b80156105955780601f1061056a57610100808354040283529160200191610595565b820191906000526020600020905b81548152906001019060200180831161057857829003601f168201915b5050505050905090565b60006105aa82611131565b6004600083815260200190815260200160002060009054906101000a900473ffffffffffffffffffffffffffffffffffffffff169050919050565b60006105f082610914565b90508073ffffffffffffffffffffffffffffffffffffffff168373ffffffffffffffffffffffffffffffffffffffff1603610660576040517f08c379a000000000000000000000000000000000000000000000000000000000815260040161065790612c5f565b60405180910390fd5b8073ffffffffffffffffffffffffffffffffffffffff1661067f61117c565b73ffffffffffffffffffffffffffffffffffffffff1614806106ae57506106ad816106a861117c565b610fbb565b5b6106ed576040517f08c379a00000000000000000000000000000000000000000000000000000000081526004016106e490612cf1565b60405180910390fd5b6106f78383611184565b505050565b6000600880549050905090565b6107138282611184565b5050565b61072861072261117c565b8261123d565b610767576040517f08c379a000000000000000000000000000000000000000000000000000000000815260040161075e90612d83565b60405180910390fd5b6107728383836112d2565b505050565b60006107828361099a565b82106107c3576040517f08c379a00000000000000000000000000000000000000000000000000000000081526004016107ba90612e15565b60405180910390fd5b600660008473ffffffffffffffffffffffffffffffffffffffff1673ffffffffffffffffffffffffffffffffffffffff168152602001908152602001600020600083815260200190815260200160002054905092915050565b61083783838360405180602001604052806000815250610ec3565b505050565b610845816115cb565b6000600b600083815260200190815260200160002060009054906101000a900464ffffffffff1664ffffffffff16146108a057600b600082815260200190815260200160002060006101000a81549064ffffffffff02191690555b50565b60006108ad6106fc565b82106108ee576040517f08c379a00000000000000000000000000000000000000000000000000000000081526004016108e590612ea7565b60405180910390fd5b6008828154811061090257610901612ec7565b5b90600052602060002001549050919050565b60008061092083611719565b9050600073ffffffffffffffffffffffffffffffffffffffff168173ffffffffffffffffffffffffffffffffffffffff1603610991576040517f08c379a000000000000000000000000000000000000000000000000000000000815260040161098890612f42565b60405180910390fd5b80915050919050565b60008073ffffffffffffffffffffffffffffffffffffffff168273ffffffffffffffffffffffffffffffffffffffff1603610a0a576040517f08c379a0000000000000000000000000000000000000000000000000000000008152600401610a0190612fd4565b60405180910390fd5b600360008373ffffffffffffffffffffffffffffffffffffffff1673ffffffffffffffffffffffffffffffffffffffff168152602001908152602001600020549050919050565b606060018054610a6090612bbc565b80601f0160208091040260200160405190810160405280929190818152602001828054610a8c90612bbc565b8015610ad95780601f10610aae57610100808354040283529160200191610ad9565b820191906000526020600020905b815481529060010190602001808311610abc57829003601f168201915b5050505050905090565b6000610aef600a611756565b6000610afb600a61176c565b90506000600b42610b0a61117c565b86604051602001610b1d9392919061305d565b6040516020818303038152906040528051906020012060001c610b4091906130c9565b9050610b4e85600a8661177a565b9450610b5c81600b8661177a565b9050620f424081610b6d9190613129565b6305f5e10086610b7d9190613129565b6402540be400610b8d9190613166565b610b979190613166565b600b600084815260200190815260200160002060006101000a81548164ffffffffff021916908364ffffffffff160217905550610bdb610bd561117c565b836117f7565b819250505092915050565b6000610bf2600a61176c565b905090565b610c09610c0261117c565b8383611a14565b5050565b6000610c1884610914565b73ffffffffffffffffffffffffffffffffffffffff16610c3661117c565b73ffffffffffffffffffffffffffffffffffffffff1614610c8c576040517f08c379a0000000000000000000000000000000000000000000000000000000008152600401610c83906131eb565b60405180910390fd5b610c9583610914565b73ffffffffffffffffffffffffffffffffffffffff16610cb361117c565b73ffffffffffffffffffffffffffffffffffffffff1614610d09576040517f08c379a0000000000000000000000000000000000000000000000000000000008152600401610d00906131eb565b60405180910390fd5b828403610d4b576040517f08c379a0000000000000000000000000000000000000000000000000000000008152600401610d4290613257565b60405180910390fd5b6000610d5685610f8d565b90506000610d6385610f8d565b9050610d6e866115cb565b610d77856115cb565b610d81600a611756565b6000610d8d600a61176c565b905060008284610d9d9190613166565b90506000620f424042610dae61117c565b89604051602001610dc19392919061305d565b6040516020818303038152906040528051906020012060001c610de491906130c9565b90506000600a6305f5e1006402540be40088610e009190613277565b610e0a91906132b0565b610e1491906132e1565b9050610e2281600a8a61177a565b90506000826305f5e10085610e3791906132e1565b6305f5e10084610e479190613129565b6404a817c800610e579190613166565b610e619190613166565b610e6b9190613166565b905080600b600087815260200190815260200160002060006101000a81548164ffffffffff021916908364ffffffffff160217905550610eb2610eac61117c565b866117f7565b849750505050505050509392505050565b610ed4610ece61117c565b8361123d565b610f13576040517f08c379a0000000000000000000000000000000000000000000000000000000008152600401610f0a90612d83565b60405180910390fd5b610f1f84848484611b80565b50505050565b6060610f3082611131565b6000610f3a611bdc565b90506000815111610f5a5760405180602001604052806000815250610f85565b80610f6484611bf3565b604051602001610f7592919061334e565b6040516020818303038152906040525b915050919050565b6000600b600083815260200190815260200160002060009054906101000a900464ffffffffff169050919050565b6000600560008473ffffffffffffffffffffffffffffffffffffffff1673ffffffffffffffffffffffffffffffffffffffff16815260200190815260200160002060008373ffffffffffffffffffffffffffffffffffffffff1673ffffffffffffffffffffffffffffffffffffffff16815260200190815260200160002060009054906101000a900460ff16905092915050565b60007f80ac58cd000000000000000000000000000000000000000000000000000000007bffffffffffffffffffffffffffffffffffffffffffffffffffffffff1916827bffffffffffffffffffffffffffffffffffffffffffffffffffffffff1916148061111a57507f5b5e139f000000000000000000000000000000000000000000000000000000007bffffffffffffffffffffffffffffffffffffffffffffffffffffffff1916827bffffffffffffffffffffffffffffffffffffffffffffffffffffffff1916145b8061112a575061112982611cc1565b5b9050919050565b61113a81611d2b565b611179576040517f08c379a000000000000000000000000000000000000000000000000000000000815260040161117090612f42565b60405180910390fd5b50565b600033905090565b816004600083815260200190815260200160002060006101000a81548173ffffffffffffffffffffffffffffffffffffffff021916908373ffffffffffffffffffffffffffffffffffffffff160217905550808273ffffffffffffffffffffffffffffffffffffffff166111f783610914565b73ffffffffffffffffffffffffffffffffffffffff167f8c5be1e5ebec7d5bd14f71427d1e84f3dd0314c0f7b2291e5b200ac8c7c3b92560405160405180910390a45050565b60008061124983610914565b90508073ffffffffffffffffffffffffffffffffffffffff168473ffffffffffffffffffffffffffffffffffffffff16148061128b575061128a8185610fbb565b5b806112c957508373ffffffffffffffffffffffffffffffffffffffff166112b18461059f565b73ffffffffffffffffffffffffffffffffffffffff16145b91505092915050565b8273ffffffffffffffffffffffffffffffffffffffff166112f282610914565b73ffffffffffffffffffffffffffffffffffffffff1614611348576040517f08c379a000000000000000000000000000000000000000000000000000000000815260040161133f906133e4565b60405180910390fd5b600073ffffffffffffffffffffffffffffffffffffffff168273ffffffffffffffffffffffffffffffffffffffff16036113b7576040517f08c379a00000000000000000000000000000000000000000000000000000000081526004016113ae90613476565b60405180910390fd5b6113c48383836001611d6c565b8273ffffffffffffffffffffffffffffffffffffffff166113e482610914565b73ffffffffffffffffffffffffffffffffffffffff161461143a576040517f08c379a0000000000000000000000000000000000000000000000000000000008152600401611431906133e4565b60405180910390fd5b6004600082815260200190815260200160002060006101000a81549073ffffffffffffffffffffffffffffffffffffffff02191690556001600360008573ffffffffffffffffffffffffffffffffffffffff1673ffffffffffffffffffffffffffffffffffffffff168152602001908152602001600020600082825403925050819055506001600360008473ffffffffffffffffffffffffffffffffffffffff1673ffffffffffffffffffffffffffffffffffffffff16815260200190815260200160002060008282540192505081905550816002600083815260200190815260200160002060006101000a81548173ffffffffffffffffffffffffffffffffffffffff021916908373ffffffffffffffffffffffffffffffffffffffff160217905550808273ffffffffffffffffffffffffffffffffffffffff168473ffffffffffffffffffffffffffffffffffffffff167fddf252ad1be2c89b69c2b068fc378daa952ba7f163c4a11628f55a4df523b3ef60405160405180910390a46115c68383836001611eca565b505050565b60006115d682610914565b90506115e6816000846001611d6c565b6115ef82610914565b90506004600083815260200190815260200160002060006101000a81549073ffffffffffffffffffffffffffffffffffffffff02191690556001600360008373ffffffffffffffffffffffffffffffffffffffff1673ffffffffffffffffffffffffffffffffffffffff168152602001908152602001600020600082825403925050819055506002600083815260200190815260200160002060006101000a81549073ffffffffffffffffffffffffffffffffffffffff021916905581600073ffffffffffffffffffffffffffffffffffffffff168273ffffffffffffffffffffffffffffffffffffffff167fddf252ad1be2c89b69c2b068fc378daa952ba7f163c4a11628f55a4df523b3ef60405160405180910390a4611715816000846001611eca565b5050565b60006002600083815260200190815260200160002060009054906101000a900473ffffffffffffffffffffffffffffffffffffffff169050919050565b6001816000016000828254019250508190555050565b600081600001549050919050565b60006064836127104261178b61117c565b8660405160200161179e9392919061305d565b6040516020818303038152906040528051906020012060001c6117c191906130c9565b64ffffffffff166117d29190613496565b8564ffffffffff166117e491906134d8565b6117ee91906132e1565b90509392505050565b600073ffffffffffffffffffffffffffffffffffffffff168273ffffffffffffffffffffffffffffffffffffffff1603611866576040517f08c379a000000000000000000000000000000000000000000000000000000000815260040161185d90613558565b60405180910390fd5b61186f81611d2b565b156118af576040517f08c379a00000000000000000000000000000000000000000000000000000000081526004016118a6906135c4565b60405180910390fd5b6118bd600083836001611d6c565b6118c681611d2b565b15611906576040517f08c379a00000000000000000000000000000000000000000000000000000000081526004016118fd906135c4565b60405180910390fd5b6001600360008473ffffffffffffffffffffffffffffffffffffffff1673ffffffffffffffffffffffffffffffffffffffff16815260200190815260200160002060008282540192505081905550816002600083815260200190815260200160002060006101000a81548173ffffffffffffffffffffffffffffffffffffffff021916908373ffffffffffffffffffffffffffffffffffffffff160217905550808273ffffffffffffffffffffffffffffffffffffffff16600073ffffffffffffffffffffffffffffffffffffffff167fddf252ad1be2c89b69c2b068fc378daa952ba7f163c4a11628f55a4df523b3ef60405160405180910390a4611a10600083836001611eca565b5050565b8173ffffffffffffffffffffffffffffffffffffffff168373ffffffffffffffffffffffffffffffffffffffff1603611a82576040517f08c379a0000000000000000000000000000000000000000000000000000000008152600401611a7990613630565b60405180910390fd5b80600560008573ffffffffffffffffffffffffffffffffffffffff1673ffffffffffffffffffffffffffffffffffffffff16815260200190815260200160002060008473ffffffffffffffffffffffffffffffffffffffff1673ffffffffffffffffffffffffffffffffffffffff16815260200190815260200160002060006101000a81548160ff0219169083151502179055508173ffffffffffffffffffffffffffffffffffffffff168373ffffffffffffffffffffffffffffffffffffffff167f17307eab39ab6107e8899845ad3d59bd9653f200f220920489ca2b5937696c3183604051611b73919061258d565b60405180910390a3505050565b611b8b8484846112d2565b611b9784848484611ed0565b611bd6576040517f08c379a0000000000000000000000000000000000000000000000000000000008152600401611bcd906136c2565b60405180910390fd5b50505050565b606060405180602001604052806000815250905090565b606060006001611c0284612057565b01905060008167ffffffffffffffff811115611c2157611c20612975565b5b6040519080825280601f01601f191660200182016040528015611c535781602001600182028036833780820191505090505b509050600082602001820190505b600115611cb6578080600190039150507f3031323334353637383961626364656600000000000000000000000000000000600a86061a8153600a8581611caa57611ca961309a565b5b04945060008503611c61575b819350505050919050565b60007f01ffc9a7000000000000000000000000000000000000000000000000000000007bffffffffffffffffffffffffffffffffffffffffffffffffffffffff1916827bffffffffffffffffffffffffffffffffffffffffffffffffffffffff1916149050919050565b60008073ffffffffffffffffffffffffffffffffffffffff16611d4d83611719565b73ffffffffffffffffffffffffffffffffffffffff1614159050919050565b611d78848484846121aa565b6001811115611dbc576040517f08c379a0000000000000000000000000000000000000000000000000000000008152600401611db390613754565b60405180910390fd5b6000829050600073ffffffffffffffffffffffffffffffffffffffff168573ffffffffffffffffffffffffffffffffffffffff1603611e0357611dfe816121b0565b611e42565b8373ffffffffffffffffffffffffffffffffffffffff168573ffffffffffffffffffffffffffffffffffffffff1614611e4157611e4085826121f9565b5b5b600073ffffffffffffffffffffffffffffffffffffffff168473ffffffffffffffffffffffffffffffffffffffff1603611e8457611e7f81612366565b611ec3565b8473ffffffffffffffffffffffffffffffffffffffff168473ffffffffffffffffffffffffffffffffffffffff1614611ec257611ec18482612437565b5b5b5050505050565b50505050565b6000611ef18473ffffffffffffffffffffffffffffffffffffffff166124b6565b1561204a578373ffffffffffffffffffffffffffffffffffffffff1663150b7a02611f1a61117c565b8786866040518563ffffffff1660e01b8152600401611f3c94939291906137c9565b6020604051808303816000875af1925050508015611f7857506040513d601f19601f82011682018060405250810190611f75919061382a565b60015b611ffa573d8060008114611fa8576040519150601f19603f3d011682016040523d82523d6000602084013e611fad565b606091505b506000815103611ff2576040517f08c379a0000000000000000000000000000000000000000000000000000000008152600401611fe9906136c2565b60405180910390fd5b805181602001fd5b63150b7a0260e01b7bffffffffffffffffffffffffffffffffffffffffffffffffffffffff1916817bffffffffffffffffffffffffffffffffffffffffffffffffffffffff19161491505061204f565b600190505b949350505050565b600080600090507a184f03e93ff9f4daa797ed6e38ed64bf6a1f01000000000000000083106120b5577a184f03e93ff9f4daa797ed6e38ed64bf6a1f01000000000000000083816120ab576120aa61309a565b5b0492506040810190505b6d04ee2d6d415b85acef810000000083106120f2576d04ee2d6d415b85acef810000000083816120e8576120e761309a565b5b0492506020810190505b662386f26fc10000831061212157662386f26fc1000083816121175761211661309a565b5b0492506010810190505b6305f5e100831061214a576305f5e10083816121405761213f61309a565b5b0492506008810190505b612710831061216f5761271083816121655761216461309a565b5b0492506004810190505b6064831061219257606483816121885761218761309a565b5b0492506002810190505b600a83106121a1576001810190505b80915050919050565b50505050565b6008805490506009600083815260200190815260200160002081905550600881908060018154018082558091505060019003906000526020600020016000909190919091505550565b600060016122068461099a565b6122109190613857565b90506000600760008481526020019081526020016000205490508181146122f5576000600660008673ffffffffffffffffffffffffffffffffffffffff1673ffffffffffffffffffffffffffffffffffffffff168152602001908152602001600020600084815260200190815260200160002054905080600660008773ffffffffffffffffffffffffffffffffffffffff1673ffffffffffffffffffffffffffffffffffffffff168152602001908152602001600020600084815260200190815260200160002081905550816007600083815260200190815260200160002081905550505b6007600084815260200190815260200160002060009055600660008573ffffffffffffffffffffffffffffffffffffffff1673ffffffffffffffffffffffffffffffffffffffff16815260200190815260200160002060008381526020019081526020016000206000905550505050565b6000600160088054905061237a9190613857565b90506000600960008481526020019081526020016000205490506000600883815481106123aa576123a9612ec7565b5b9060005260206000200154905080600883815481106123cc576123cb612ec7565b5b90600052602060002001819055508160096000838152602001908152602001600020819055506009600085815260200190815260200160002060009055600880548061241b5761241a61388b565b5b6001900381819060005260206000200160009055905550505050565b60006124428361099a565b905081600660008573ffffffffffffffffffffffffffffffffffffffff1673ffffffffffffffffffffffffffffffffffffffff168152602001908152602001600020600083815260200190815260200160002081905550806007600084815260200190815260200160002081905550505050565b6000808273ffffffffffffffffffffffffffffffffffffffff163b119050919050565b6000604051905090565b600080fd5b600080fd5b60007fffffffff0000000000000000000000000000000000000000000000000000000082169050919050565b612522816124ed565b811461252d57600080fd5b50565b60008135905061253f81612519565b92915050565b60006020828403121561255b5761255a6124e3565b5b600061256984828501612530565b91505092915050565b60008115159050919050565b61258781612572565b82525050565b60006020820190506125a2600083018461257e565b92915050565b600081519050919050565b600082825260208201905092915050565b60005b838110156125e25780820151818401526020810190506125c7565b60008484015250505050565b6000601f19601f8301169050919050565b600061260a826125a8565b61261481856125b3565b93506126248185602086016125c4565b61262d816125ee565b840191505092915050565b6000602082019050818103600083015261265281846125ff565b905092915050565b6000819050919050565b61266d8161265a565b811461267857600080fd5b50565b60008135905061268a81612664565b92915050565b6000602082840312156126a6576126a56124e3565b5b60006126b48482850161267b565b91505092915050565b600073ffffffffffffffffffffffffffffffffffffffff82169050919050565b60006126e8826126bd565b9050919050565b6126f8816126dd565b82525050565b600060208201905061271360008301846126ef565b92915050565b612722816126dd565b811461272d57600080fd5b50565b60008135905061273f81612719565b92915050565b6000806040838503121561275c5761275b6124e3565b5b600061276a85828601612730565b925050602061277b8582860161267b565b9150509250929050565b61278e8161265a565b82525050565b60006020820190506127a96000830184612785565b92915050565b6000806000606084860312156127c8576127c76124e3565b5b60006127d686828701612730565b93505060206127e786828701612730565b92505060406127f88682870161267b565b9150509250925092565b600060208284031215612818576128176124e3565b5b600061282684828501612730565b91505092915050565b600064ffffffffff82169050919050565b6128498161282f565b811461285457600080fd5b50565b60008135905061286681612840565b92915050565b60008060408385031215612883576128826124e3565b5b600061289185828601612857565b92505060206128a28582860161267b565b9150509250929050565b6128b581612572565b81146128c057600080fd5b50565b6000813590506128d2816128ac565b92915050565b600080604083850312156128ef576128ee6124e3565b5b60006128fd85828601612730565b925050602061290e858286016128c3565b9150509250929050565b600080600060608486031215612931576129306124e3565b5b600061293f8682870161267b565b93505060206129508682870161267b565b92505060406129618682870161267b565b9150509250925092565b600080fd5b600080fd5b7f4e487b7100000000000000000000000000000000000000000000000000000000600052604160045260246000fd5b6129ad826125ee565b810181811067ffffffffffffffff821117156129cc576129cb612975565b5b80604052505050565b60006129df6124d9565b90506129eb82826129a4565b919050565b600067ffffffffffffffff821115612a0b57612a0a612975565b5b612a14826125ee565b9050602081019050919050565b82818337600083830152505050565b6000612a43612a3e846129f0565b6129d5565b905082815260208101848484011115612a5f57612a5e612970565b5b612a6a848285612a21565b509392505050565b600082601f830112612a8757612a8661296b565b5b8135612a97848260208601612a30565b91505092915050565b60008060008060808587031215612aba57612ab96124e3565b5b6000612ac887828801612730565b9450506020612ad987828801612730565b9350506040612aea8782880161267b565b925050606085013567ffffffffffffffff811115612b0b57612b0a6124e8565b5b612b1787828801612a72565b91505092959194509250565b612b2c8161282f565b82525050565b6000602082019050612b476000830184612b23565b92915050565b60008060408385031215612b6457612b636124e3565b5b6000612b7285828601612730565b9250506020612b8385828601612730565b9150509250929050565b7f4e487b7100000000000000000000000000000000000000000000000000000000600052602260045260246000fd5b60006002820490506001821680612bd457607f821691505b602082108103612be757612be6612b8d565b5b50919050565b7f4552433732313a20617070726f76616c20746f2063757272656e74206f776e6560008201527f7200000000000000000000000000000000000000000000000000000000000000602082015250565b6000612c496021836125b3565b9150612c5482612bed565b604082019050919050565b60006020820190508181036000830152612c7881612c3c565b9050919050565b7f4552433732313a20617070726f76652063616c6c6572206973206e6f7420746f60008201527f6b656e206f776e6572206f7220617070726f76656420666f7220616c6c000000602082015250565b6000612cdb603d836125b3565b9150612ce682612c7f565b604082019050919050565b60006020820190508181036000830152612d0a81612cce565b9050919050565b7f4552433732313a2063616c6c6572206973206e6f7420746f6b656e206f776e6560008201527f72206f7220617070726f76656400000000000000000000000000000000000000602082015250565b6000612d6d602d836125b3565b9150612d7882612d11565b604082019050919050565b60006020820190508181036000830152612d9c81612d60565b9050919050565b7f455243373231456e756d657261626c653a206f776e657220696e646578206f7560008201527f74206f6620626f756e6473000000000000000000000000000000000000000000602082015250565b6000612dff602b836125b3565b9150612e0a82612da3565b604082019050919050565b60006020820190508181036000830152612e2e81612df2565b9050919050565b7f455243373231456e756d657261626c653a20676c6f62616c20696e646578206f60008201527f7574206f6620626f756e64730000000000000000000000000000000000000000602082015250565b6000612e91602c836125b3565b9150612e9c82612e35565b604082019050919050565b60006020820190508181036000830152612ec081612e84565b9050919050565b7f4e487b7100000000000000000000000000000000000000000000000000000000600052603260045260246000fd5b7f4552433732313a20696e76616c696420746f6b656e2049440000000000000000600082015250565b6000612f2c6018836125b3565b9150612f3782612ef6565b602082019050919050565b60006020820190508181036000830152612f5b81612f1f565b9050919050565b7f4552433732313a2061646472657373207a65726f206973206e6f74206120766160008201527f6c6964206f776e65720000000000000000000000000000000000000000000000602082015250565b6000612fbe6029836125b3565b9150612fc982612f62565b604082019050919050565b60006020820190508181036000830152612fed81612fb1565b9050919050565b6000819050919050565b61300f61300a8261265a565b612ff4565b82525050565b60008160601b9050919050565b600061302d82613015565b9050919050565b600061303f82613022565b9050919050565b613057613052826126dd565b613034565b82525050565b60006130698286612ffe565b6020820191506130798285613046565b6014820191506130898284612ffe565b602082019150819050949350505050565b7f4e487b7100000000000000000000000000000000000000000000000000000000600052601260045260246000fd5b60006130d48261265a565b91506130df8361265a565b9250826130ef576130ee61309a565b5b828206905092915050565b7f4e487b7100000000000000000000000000000000000000000000000000000000600052601160045260246000fd5b60006131348261282f565b915061313f8361282f565b925082820261314d8161282f565b915080821461315f5761315e6130fa565b5b5092915050565b60006131718261282f565b915061317c8361282f565b9250828201905064ffffffffff811115613199576131986130fa565b5b92915050565b7f796f7520617265206e6f74204e4654206f776e65720000000000000000000000600082015250565b60006131d56015836125b3565b91506131e08261319f565b602082019050919050565b60006020820190508181036000830152613204816131c8565b9050919050565b7f73616d6520746f6b656e20496400000000000000000000000000000000000000600082015250565b6000613241600d836125b3565b915061324c8261320b565b602082019050919050565b6000602082019050818103600083015261327081613234565b9050919050565b60006132828261282f565b915061328d8361282f565b9250828203905064ffffffffff8111156132aa576132a96130fa565b5b92915050565b60006132bb8261282f565b91506132c68361282f565b9250826132d6576132d561309a565b5b828204905092915050565b60006132ec8261282f565b91506132f78361282f565b9250826133075761330661309a565b5b828206905092915050565b600081905092915050565b6000613328826125a8565b6133328185613312565b93506133428185602086016125c4565b80840191505092915050565b600061335a828561331d565b9150613366828461331d565b91508190509392505050565b7f4552433732313a207472616e736665722066726f6d20696e636f72726563742060008201527f6f776e6572000000000000000000000000000000000000000000000000000000602082015250565b60006133ce6025836125b3565b91506133d982613372565b604082019050919050565b600060208201905081810360008301526133fd816133c1565b9050919050565b7f4552433732313a207472616e7366657220746f20746865207a65726f2061646460008201527f7265737300000000000000000000000000000000000000000000000000000000602082015250565b60006134606024836125b3565b915061346b82613404565b604082019050919050565b6000602082019050818103600083015261348f81613453565b9050919050565b60006134a18261265a565b91506134ac8361265a565b92508282026134ba8161265a565b915082820484148315176134d1576134d06130fa565b5b5092915050565b60006134e38261265a565b91506134ee8361265a565b9250828201905080821115613506576135056130fa565b5b92915050565b7f4552433732313a206d696e7420746f20746865207a65726f2061646472657373600082015250565b60006135426020836125b3565b915061354d8261350c565b602082019050919050565b6000602082019050818103600083015261357181613535565b9050919050565b7f4552433732313a20746f6b656e20616c7265616479206d696e74656400000000600082015250565b60006135ae601c836125b3565b91506135b982613578565b602082019050919050565b600060208201905081810360008301526135dd816135a1565b9050919050565b7f4552433732313a20617070726f766520746f2063616c6c657200000000000000600082015250565b600061361a6019836125b3565b9150613625826135e4565b602082019050919050565b600060208201905081810360008301526136498161360d565b9050919050565b7f4552433732313a207472616e7366657220746f206e6f6e20455243373231526560008201527f63656976657220696d706c656d656e7465720000000000000000000000000000602082015250565b60006136ac6032836125b3565b91506136b782613650565b604082019050919050565b600060208201905081810360008301526136db8161369f565b9050919050565b7f455243373231456e756d657261626c653a20636f6e736563757469766520747260008201527f616e7366657273206e6f7420737570706f727465640000000000000000000000602082015250565b600061373e6035836125b3565b9150613749826136e2565b604082019050919050565b6000602082019050818103600083015261376d81613731565b9050919050565b600081519050919050565b600082825260208201905092915050565b600061379b82613774565b6137a5818561377f565b93506137b58185602086016125c4565b6137be816125ee565b840191505092915050565b60006080820190506137de60008301876126ef565b6137eb60208301866126ef565b6137f86040830185612785565b818103606083015261380a8184613790565b905095945050505050565b60008151905061382481612519565b92915050565b6000602082840312156138405761383f6124e3565b5b600061384e84828501613815565b91505092915050565b60006138628261265a565b915061386d8361265a565b9250828203905081811115613885576138846130fa565b5b92915050565b7f4e487b7100000000000000000000000000000000000000000000000000000000600052603160045260246000fdfea2646970667358221220ce91cf1c2a09d62d7746b37739852bb3e7188c4d0266c28c21f5faeab70587e264736f6c63430008120033",
  "immutableReferences": {},
  "source": "// SPDX-License-Identifier: MIT\r\npragma solidity >=0.7.0 <0.9.0;\r\n\r\nimport \"@openzeppelin/contracts/token/ERC721/extensions/ERC721Enumerable.sol\";\r\nimport \"@openzeppelin/contracts/utils/Counters.sol\";\r\n\r\n\r\ncontract MARS_NFT is ERC721Enumerable{\r\n    using Counters for Counters.Counter;\r\n\r\n    // uint == uint256 \r\n    constructor() ERC721(\"MARS_NFT\", \"MARSNFT\") {}\r\n\r\n    Counters.Counter private _tokenId;\r\n    mapping (uint256 => uint40) private _marsDnas;\r\n    \r\n        \r\n    // nft ()\r\n    function mint(uint40 crop, uint256 nonce) public returns (uint256){\r\n        _tokenId.increment();\r\n\r\n        uint256 newTokenId = _tokenId.current();\r\n        \r\n        uint40 color = uint40(uint(keccak256(abi.encodePacked(block.timestamp, _msgSender(), nonce))) % 11);\r\n        crop = createGen(crop, 10, nonce);\r\n        color = createGen(color, 11, nonce);\r\n        //  10  0 none     11 \r\n        _marsDnas[newTokenId] = 10000000000 + crop * 100000000 + color * 1000000;\r\n        \r\n        _mint(_msgSender(), newTokenId);\r\n        return newTokenId;\r\n    }\r\n\r\n    function burn(uint256 tokenId) public {\r\n        _burn(tokenId);\r\n\r\n        if(_marsDnas[tokenId] != 0){\r\n            delete _marsDnas[tokenId];\r\n        }\r\n    }\r\n\r\n    // nft \r\n    function combNFT(uint256 nft1TokenId, uint256 nft2TokenId, uint256 nonce) public returns (uint256){\r\n        require(_msgSender() == ownerOf(nft1TokenId), \"you are not NFT owner\");\r\n        require(_msgSender() == ownerOf(nft2TokenId), \"you are not NFT owner\");\r\n        require(nft1TokenId != nft2TokenId, \"same token Id\");\r\n\r\n        uint40 nft1Dna = getNftDna(nft1TokenId);\r\n        uint40 nft2Dna = getNftDna(nft2TokenId);\r\n        \r\n        _burn(nft1TokenId);\r\n        _burn(nft2TokenId);\r\n\r\n        _tokenId.increment();\r\n        uint256 newTokenId = _tokenId.current();\r\n\r\n        //  \r\n        uint40 t2DnaBase = nft1Dna + nft2Dna;\r\n        uint40 t2Dna = uint40(uint(keccak256(abi.encodePacked(block.timestamp, _msgSender(), nonce))) % 1000000);\r\n        uint40 t2Crop = uint40(((nft1Dna - 10000000000) / 100000000) % 10);\r\n        t2Crop = createGen(t2Crop, 10, nonce);\r\n\r\n        uint40 dna = 20000000000 + (t2Crop * 100000000) + (t2DnaBase % 100000000) + t2Dna;\r\n        _marsDnas[newTokenId] = dna;\r\n\r\n        _mint(_msgSender(), newTokenId);\r\n        return newTokenId;\r\n    }\r\n\r\n    function approveTo(address to, uint tokenId) public{\r\n        _approve(to, tokenId);\r\n    }\r\n\r\n    function createGen(uint40 item, uint256 size, uint256 nonce) private view returns (uint40){\r\n        return uint40(item + uint40(uint(keccak256(abi.encodePacked(block.timestamp, _msgSender(), nonce))) % 10000) * size) % 100;\r\n    }\r\n\r\n    // tokenIds   token   .\r\n    //   nft   (  )\r\n    function current() public view returns (uint256) {\r\n        return _tokenId.current();\r\n    }\r\n    \r\n\r\n    // nft   \r\n    function getNftDna(uint256 tokenId) public view returns (uint40){\r\n        return _marsDnas[tokenId];\r\n    }\r\n}\r\n",
  "sourcePath": "D:\\Desktop\\SSAFY_PJT\\S08P22E207\\truffle\\contracts\\MARS_NFT.sol",
  "compiler": {
    "name": "solc",
    "version": "0.8.18+commit.87f61d96.Emscripten.clang"
  },
  "schemaVersion": "3.4.12",
  "updatedAt": "2023-04-05T11:34:27.535Z",
  "networkType": "ethereum",
  "devdoc": {
    "events": {
      "Approval(address,address,uint256)": {
        "details": "Emitted when `owner` enables `approved` to manage the `tokenId` token."
      },
      "ApprovalForAll(address,address,bool)": {
        "details": "Emitted when `owner` enables or disables (`approved`) `operator` to manage all of its assets."
      },
      "Transfer(address,address,uint256)": {
        "details": "Emitted when `tokenId` token is transferred from `from` to `to`."
      }
    },
    "kind": "dev",
    "methods": {
      "approve(address,uint256)": {
        "details": "See {IERC721-approve}."
      },
      "balanceOf(address)": {
        "details": "See {IERC721-balanceOf}."
      },
      "getApproved(uint256)": {
        "details": "See {IERC721-getApproved}."
      },
      "isApprovedForAll(address,address)": {
        "details": "See {IERC721-isApprovedForAll}."
      },
      "name()": {
        "details": "See {IERC721Metadata-name}."
      },
      "ownerOf(uint256)": {
        "details": "See {IERC721-ownerOf}."
      },
      "safeTransferFrom(address,address,uint256)": {
        "details": "See {IERC721-safeTransferFrom}."
      },
      "safeTransferFrom(address,address,uint256,bytes)": {
        "details": "See {IERC721-safeTransferFrom}."
      },
      "setApprovalForAll(address,bool)": {
        "details": "See {IERC721-setApprovalForAll}."
      },
      "supportsInterface(bytes4)": {
        "details": "See {IERC165-supportsInterface}."
      },
      "symbol()": {
        "details": "See {IERC721Metadata-symbol}."
      },
      "tokenByIndex(uint256)": {
        "details": "See {IERC721Enumerable-tokenByIndex}."
      },
      "tokenOfOwnerByIndex(address,uint256)": {
        "details": "See {IERC721Enumerable-tokenOfOwnerByIndex}."
      },
      "tokenURI(uint256)": {
        "details": "See {IERC721Metadata-tokenURI}."
      },
      "totalSupply()": {
        "details": "See {IERC721Enumerable-totalSupply}."
      },
      "transferFrom(address,address,uint256)": {
        "details": "See {IERC721-transferFrom}."
      }
    },
    "version": 1
  },
  "userdoc": {
    "kind": "user",
    "methods": {},
    "version": 1
  }
}