{
  "contractName": "MARS_NFT",
  "abi": [
    {
      "inputs": [],
      "stateMutability": "nonpayable",
      "type": "constructor"
    },
    {
      "anonymous": false,
      "inputs": [
        {
          "indexed": true,
          "internalType": "address",
          "name": "owner",
          "type": "address"
        },
        {
          "indexed": true,
          "internalType": "address",
          "name": "approved",
          "type": "address"
        },
        {
          "indexed": true,
          "internalType": "uint256",
          "name": "tokenId",
          "type": "uint256"
        }
      ],
      "name": "Approval",
      "type": "event"
    },
    {
      "anonymous": false,
      "inputs": [
        {
          "indexed": true,
          "internalType": "address",
          "name": "owner",
          "type": "address"
        },
        {
          "indexed": true,
          "internalType": "address",
          "name": "operator",
          "type": "address"
        },
        {
          "indexed": false,
          "internalType": "bool",
          "name": "approved",
          "type": "bool"
        }
      ],
      "name": "ApprovalForAll",
      "type": "event"
    },
    {
      "anonymous": false,
      "inputs": [
        {
          "indexed": true,
          "internalType": "address",
          "name": "from",
          "type": "address"
        },
        {
          "indexed": true,
          "internalType": "address",
          "name": "to",
          "type": "address"
        },
        {
          "indexed": true,
          "internalType": "uint256",
          "name": "tokenId",
          "type": "uint256"
        }
      ],
      "name": "Transfer",
      "type": "event"
    },
    {
      "inputs": [
        {
          "internalType": "address",
          "name": "to",
          "type": "address"
        },
        {
          "internalType": "uint256",
          "name": "tokenId",
          "type": "uint256"
        }
      ],
      "name": "approve",
      "outputs": [],
      "stateMutability": "nonpayable",
      "type": "function"
    },
    {
      "inputs": [
        {
          "internalType": "address",
          "name": "owner",
          "type": "address"
        }
      ],
      "name": "balanceOf",
      "outputs": [
        {
          "internalType": "uint256",
          "name": "",
          "type": "uint256"
        }
      ],
      "stateMutability": "view",
      "type": "function",
      "constant": true
    },
    {
      "inputs": [
        {
          "internalType": "uint256",
          "name": "tokenId",
          "type": "uint256"
        }
      ],
      "name": "getApproved",
      "outputs": [
        {
          "internalType": "address",
          "name": "",
          "type": "address"
        }
      ],
      "stateMutability": "view",
      "type": "function",
      "constant": true
    },
    {
      "inputs": [
        {
          "internalType": "address",
          "name": "owner",
          "type": "address"
        },
        {
          "internalType": "address",
          "name": "operator",
          "type": "address"
        }
      ],
      "name": "isApprovedForAll",
      "outputs": [
        {
          "internalType": "bool",
          "name": "",
          "type": "bool"
        }
      ],
      "stateMutability": "view",
      "type": "function",
      "constant": true
    },
    {
      "inputs": [],
      "name": "name",
      "outputs": [
        {
          "internalType": "string",
          "name": "",
          "type": "string"
        }
      ],
      "stateMutability": "view",
      "type": "function",
      "constant": true
    },
    {
      "inputs": [
        {
          "internalType": "uint256",
          "name": "tokenId",
          "type": "uint256"
        }
      ],
      "name": "ownerOf",
      "outputs": [
        {
          "internalType": "address",
          "name": "",
          "type": "address"
        }
      ],
      "stateMutability": "view",
      "type": "function",
      "constant": true
    },
    {
      "inputs": [
        {
          "internalType": "address",
          "name": "from",
          "type": "address"
        },
        {
          "internalType": "address",
          "name": "to",
          "type": "address"
        },
        {
          "internalType": "uint256",
          "name": "tokenId",
          "type": "uint256"
        }
      ],
      "name": "safeTransferFrom",
      "outputs": [],
      "stateMutability": "nonpayable",
      "type": "function"
    },
    {
      "inputs": [
        {
          "internalType": "address",
          "name": "from",
          "type": "address"
        },
        {
          "internalType": "address",
          "name": "to",
          "type": "address"
        },
        {
          "internalType": "uint256",
          "name": "tokenId",
          "type": "uint256"
        },
        {
          "internalType": "bytes",
          "name": "data",
          "type": "bytes"
        }
      ],
      "name": "safeTransferFrom",
      "outputs": [],
      "stateMutability": "nonpayable",
      "type": "function"
    },
    {
      "inputs": [
        {
          "internalType": "address",
          "name": "operator",
          "type": "address"
        },
        {
          "internalType": "bool",
          "name": "approved",
          "type": "bool"
        }
      ],
      "name": "setApprovalForAll",
      "outputs": [],
      "stateMutability": "nonpayable",
      "type": "function"
    },
    {
      "inputs": [
        {
          "internalType": "bytes4",
          "name": "interfaceId",
          "type": "bytes4"
        }
      ],
      "name": "supportsInterface",
      "outputs": [
        {
          "internalType": "bool",
          "name": "",
          "type": "bool"
        }
      ],
      "stateMutability": "view",
      "type": "function",
      "constant": true
    },
    {
      "inputs": [],
      "name": "symbol",
      "outputs": [
        {
          "internalType": "string",
          "name": "",
          "type": "string"
        }
      ],
      "stateMutability": "view",
      "type": "function",
      "constant": true
    },
    {
      "inputs": [
        {
          "internalType": "uint256",
          "name": "index",
          "type": "uint256"
        }
      ],
      "name": "tokenByIndex",
      "outputs": [
        {
          "internalType": "uint256",
          "name": "",
          "type": "uint256"
        }
      ],
      "stateMutability": "view",
      "type": "function",
      "constant": true
    },
    {
      "inputs": [
        {
          "internalType": "address",
          "name": "owner",
          "type": "address"
        },
        {
          "internalType": "uint256",
          "name": "index",
          "type": "uint256"
        }
      ],
      "name": "tokenOfOwnerByIndex",
      "outputs": [
        {
          "internalType": "uint256",
          "name": "",
          "type": "uint256"
        }
      ],
      "stateMutability": "view",
      "type": "function",
      "constant": true
    },
    {
      "inputs": [
        {
          "internalType": "uint256",
          "name": "tokenId",
          "type": "uint256"
        }
      ],
      "name": "tokenURI",
      "outputs": [
        {
          "internalType": "string",
          "name": "",
          "type": "string"
        }
      ],
      "stateMutability": "view",
      "type": "function",
      "constant": true
    },
    {
      "inputs": [],
      "name": "totalSupply",
      "outputs": [
        {
          "internalType": "uint256",
          "name": "",
          "type": "uint256"
        }
      ],
      "stateMutability": "view",
      "type": "function",
      "constant": true
    },
    {
      "inputs": [
        {
          "internalType": "address",
          "name": "from",
          "type": "address"
        },
        {
          "internalType": "address",
          "name": "to",
          "type": "address"
        },
        {
          "internalType": "uint256",
          "name": "tokenId",
          "type": "uint256"
        }
      ],
      "name": "transferFrom",
      "outputs": [],
      "stateMutability": "nonpayable",
      "type": "function"
    },
    {
      "inputs": [
        {
          "internalType": "string",
          "name": "_tokenURI",
          "type": "string"
        },
        {
          "internalType": "uint40",
          "name": "crop",
          "type": "uint40"
        },
        {
          "internalType": "uint256",
          "name": "nonce",
          "type": "uint256"
        }
      ],
      "name": "mint",
      "outputs": [],
      "stateMutability": "nonpayable",
      "type": "function"
    },
    {
      "inputs": [
        {
          "internalType": "uint256",
          "name": "tokenId",
          "type": "uint256"
        }
      ],
      "name": "burn",
      "outputs": [],
      "stateMutability": "nonpayable",
      "type": "function"
    },
    {
      "inputs": [
        {
          "internalType": "string",
          "name": "_tokenURI",
          "type": "string"
        },
        {
          "internalType": "uint256",
          "name": "nft1TokenId",
          "type": "uint256"
        },
        {
          "internalType": "uint256",
          "name": "nft2TokenId",
          "type": "uint256"
        },
        {
          "internalType": "uint256",
          "name": "nonce",
          "type": "uint256"
        }
      ],
      "name": "combNFT",
      "outputs": [],
      "stateMutability": "nonpayable",
      "type": "function"
    },
    {
      "inputs": [
        {
          "internalType": "address",
          "name": "to",
          "type": "address"
        },
        {
          "internalType": "uint256",
          "name": "tokenId",
          "type": "uint256"
        }
      ],
      "name": "approveTo",
      "outputs": [],
      "stateMutability": "nonpayable",
      "type": "function"
    },
    {
      "inputs": [],
      "name": "current",
      "outputs": [
        {
          "internalType": "uint256",
          "name": "",
          "type": "uint256"
        }
      ],
      "stateMutability": "view",
      "type": "function",
      "constant": true
    },
    {
      "inputs": [
        {
          "internalType": "uint256",
          "name": "tokenId",
          "type": "uint256"
        }
      ],
      "name": "getNftDna",
      "outputs": [
        {
          "internalType": "uint40",
          "name": "",
          "type": "uint40"
        }
      ],
      "stateMutability": "view",
      "type": "function",
      "constant": true
    }
  ],
  "bytecode": "0x60806040523480156200001157600080fd5b506040518060400160405280600881526020017f4d4152535f4e46540000000000000000000000000000000000000000000000008152506040518060400160405280600781526020017f4d4152534e46540000000000000000000000000000000000000000000000000081525081600090816200008f919062000324565b508060019081620000a1919062000324565b5050506200040b565b600081519050919050565b7f4e487b7100000000000000000000000000000000000000000000000000000000600052604160045260246000fd5b7f4e487b7100000000000000000000000000000000000000000000000000000000600052602260045260246000fd5b600060028204905060018216806200012c57607f821691505b602082108103620001425762000141620000e4565b5b50919050565b60008190508160005260206000209050919050565b60006020601f8301049050919050565b600082821b905092915050565b600060088302620001ac7fffffffffffffffffffffffffffffffffffffffffffffffffffffffffffffffff826200016d565b620001b886836200016d565b95508019841693508086168417925050509392505050565b6000819050919050565b6000819050919050565b600062000205620001ff620001f984620001d0565b620001da565b620001d0565b9050919050565b6000819050919050565b6200022183620001e4565b6200023962000230826200020c565b8484546200017a565b825550505050565b600090565b6200025062000241565b6200025d81848462000216565b505050565b5b8181101562000285576200027960008262000246565b60018101905062000263565b5050565b601f821115620002d4576200029e8162000148565b620002a9846200015d565b81016020851015620002b9578190505b620002d1620002c8856200015d565b83018262000262565b50505b505050565b600082821c905092915050565b6000620002f960001984600802620002d9565b1980831691505092915050565b6000620003148383620002e6565b9150826002028217905092915050565b6200032f82620000aa565b67ffffffffffffffff8111156200034b576200034a620000b5565b5b62000357825462000113565b6200036482828562000289565b600060209050601f8311600181146200039c576000841562000387578287015190505b62000393858262000306565b86555062000403565b601f198416620003ac8662000148565b60005b82811015620003d657848901518255600182019150602085019450602081019050620003af565b86831015620003f65784890151620003f2601f891682620002e6565b8355505b6001600288020188555050505b505050505050565b613d20806200041b6000396000f3fe608060405234801561001057600080fd5b50600436106101425760003560e01c806342966c68116100b85780639fa6a6e31161007c5780639fa6a6e314610385578063a22cb465146103a3578063b88d4fde146103bf578063c87b56dd146103db578063d65fa1411461040b578063e985e9c51461043b57610142565b806342966c68146102bb5780634f6ccce7146102d75780636352211e1461030757806370a082311461033757806395d89b411461036757610142565b80631c95fa151161010a5780631c95fa15146101ff5780631f64e71f1461021b57806323b872dd1461023757806326a95878146102535780632f745c591461026f57806342842e0e1461029f57610142565b806301ffc9a71461014757806306fdde0314610177578063081812fc14610195578063095ea7b3146101c557806318160ddd146101e1575b600080fd5b610161600480360381019061015c91906125f7565b61046b565b60405161016e919061263f565b60405180910390f35b61017f6104e5565b60405161018c91906126ea565b60405180910390f35b6101af60048036038101906101aa9190612742565b610577565b6040516101bc91906127b0565b60405180910390f35b6101df60048036038101906101da91906127f7565b6105bd565b005b6101e96106d4565b6040516101f69190612846565b60405180910390f35b61021960048036038101906102149190612996565b6106e1565b005b610235600480360381019061023091906127f7565b6109b2565b005b610251600480360381019061024c9190612a19565b6109c0565b005b61026d60048036038101906102689190612aa9565b610a20565b005b610289600480360381019061028491906127f7565b610b3e565b6040516102969190612846565b60405180910390f35b6102b960048036038101906102b49190612a19565b610be3565b005b6102d560048036038101906102d09190612742565b610c03565b005b6102f160048036038101906102ec9190612742565b610cb1565b6040516102fe9190612846565b60405180910390f35b610321600480360381019061031c9190612742565b610d22565b60405161032e91906127b0565b60405180910390f35b610351600480360381019061034c9190612b18565b610da8565b60405161035e9190612846565b60405180910390f35b61036f610e5f565b60405161037c91906126ea565b60405180910390f35b61038d610ef1565b60405161039a9190612846565b60405180910390f35b6103bd60048036038101906103b89190612b71565b610f02565b005b6103d960048036038101906103d49190612c52565b610f18565b005b6103f560048036038101906103f09190612742565b610f7a565b60405161040291906126ea565b60405180910390f35b61042560048036038101906104209190612742565b610fe2565b6040516104329190612ce4565b60405180910390f35b61045560048036038101906104509190612cff565b611010565b604051610462919061263f565b60405180910390f35b60007f780e9d63000000000000000000000000000000000000000000000000000000007bffffffffffffffffffffffffffffffffffffffffffffffffffffffff1916827bffffffffffffffffffffffffffffffffffffffffffffffffffffffff191614806104de57506104dd826110a4565b5b9050919050565b6060600080546104f490612d6e565b80601f016020809104026020016040519081016040528092919081815260200182805461052090612d6e565b801561056d5780601f106105425761010080835404028352916020019161056d565b820191906000526020600020905b81548152906001019060200180831161055057829003601f168201915b5050505050905090565b600061058282611186565b6004600083815260200190815260200160002060009054906101000a900473ffffffffffffffffffffffffffffffffffffffff169050919050565b60006105c882610d22565b90508073ffffffffffffffffffffffffffffffffffffffff168373ffffffffffffffffffffffffffffffffffffffff1603610638576040517f08c379a000000000000000000000000000000000000000000000000000000000815260040161062f90612e11565b60405180910390fd5b8073ffffffffffffffffffffffffffffffffffffffff166106576111d1565b73ffffffffffffffffffffffffffffffffffffffff1614806106865750610685816106806111d1565b611010565b5b6106c5576040517f08c379a00000000000000000000000000000000000000000000000000000000081526004016106bc90612ea3565b60405180910390fd5b6106cf83836111d9565b505050565b6000600880549050905090565b6106ea83610d22565b73ffffffffffffffffffffffffffffffffffffffff166107086111d1565b73ffffffffffffffffffffffffffffffffffffffff161461075e576040517f08c379a000000000000000000000000000000000000000000000000000000000815260040161075590612f0f565b60405180910390fd5b61076782610d22565b73ffffffffffffffffffffffffffffffffffffffff166107856111d1565b73ffffffffffffffffffffffffffffffffffffffff16146107db576040517f08c379a00000000000000000000000000000000000000000000000000000000081526004016107d290612f0f565b60405180910390fd5b81830361081d576040517f08c379a000000000000000000000000000000000000000000000000000000000815260040161081490612f7b565b60405180910390fd5b600061082884610fe2565b9050600061083584610fe2565b905061084085611292565b61084984611292565b610853600a6113e0565b600061085f600a6113f6565b905086600b600083815260200190815260200160002090816108819190613147565b50600082846108909190613248565b90506000620f4240426108a16111d1565b886040516020016108b4939291906132ea565b6040516020818303038152906040528051906020012060001c6108d79190613356565b90506000600a6305f5e1006402540be400886108f39190613387565b6108fd91906133c0565b61090791906133f1565b905061091581600a89611404565b90506000826305f5e1008561092a91906133f1565b6305f5e1008461093a9190613422565b6404a817c80061094a9190613248565b6109549190613248565b61095e9190613248565b905080600c600087815260200190815260200160002060006101000a81548164ffffffffff021916908364ffffffffff1602179055506109a561099f6111d1565b86611481565b5050505050505050505050565b6109bc82826111d9565b5050565b6109d16109cb6111d1565b8261169e565b610a10576040517f08c379a0000000000000000000000000000000000000000000000000000000008152600401610a07906134d1565b60405180910390fd5b610a1b838383611733565b505050565b610a2a600a6113e0565b6000610a36600a6113f6565b905083600b60008381526020019081526020016000209081610a589190613147565b506000600b42610a666111d1565b85604051602001610a79939291906132ea565b6040516020818303038152906040528051906020012060001c610a9c9190613356565b9050610aaa84600a85611404565b9350610ab881600b85611404565b9050620f424081610ac99190613422565b6305f5e10085610ad99190613422565b6402540be400610ae99190613248565b610af39190613248565b600c600084815260200190815260200160002060006101000a81548164ffffffffff021916908364ffffffffff160217905550610b37610b316111d1565b83611481565b5050505050565b6000610b4983610da8565b8210610b8a576040517f08c379a0000000000000000000000000000000000000000000000000000000008152600401610b8190613563565b60405180910390fd5b600660008473ffffffffffffffffffffffffffffffffffffffff1673ffffffffffffffffffffffffffffffffffffffff168152602001908152602001600020600083815260200190815260200160002054905092915050565b610bfe83838360405180602001604052806000815250610f18565b505050565b610c0c81611292565b6000600b60008381526020019081526020016000208054610c2c90612d6e565b905014610c5357600b60008281526020019081526020016000206000610c52919061252e565b5b6000600c600083815260200190815260200160002060009054906101000a900464ffffffffff1664ffffffffff1614610cae57600c600082815260200190815260200160002060006101000a81549064ffffffffff02191690555b50565b6000610cbb6106d4565b8210610cfc576040517f08c379a0000000000000000000000000000000000000000000000000000000008152600401610cf3906135f5565b60405180910390fd5b60088281548110610d1057610d0f613615565b5b90600052602060002001549050919050565b600080610d2e83611a2c565b9050600073ffffffffffffffffffffffffffffffffffffffff168173ffffffffffffffffffffffffffffffffffffffff1603610d9f576040517f08c379a0000000000000000000000000000000000000000000000000000000008152600401610d9690613690565b60405180910390fd5b80915050919050565b60008073ffffffffffffffffffffffffffffffffffffffff168273ffffffffffffffffffffffffffffffffffffffff1603610e18576040517f08c379a0000000000000000000000000000000000000000000000000000000008152600401610e0f90613722565b60405180910390fd5b600360008373ffffffffffffffffffffffffffffffffffffffff1673ffffffffffffffffffffffffffffffffffffffff168152602001908152602001600020549050919050565b606060018054610e6e90612d6e565b80601f0160208091040260200160405190810160405280929190818152602001828054610e9a90612d6e565b8015610ee75780601f10610ebc57610100808354040283529160200191610ee7565b820191906000526020600020905b815481529060010190602001808311610eca57829003601f168201915b5050505050905090565b6000610efd600a6113f6565b905090565b610f14610f0d6111d1565b8383611a69565b5050565b610f29610f236111d1565b8361169e565b610f68576040517f08c379a0000000000000000000000000000000000000000000000000000000008152600401610f5f906134d1565b60405180910390fd5b610f7484848484611bd5565b50505050565b6060610f8582611186565b6000610f8f611c31565b90506000815111610faf5760405180602001604052806000815250610fda565b80610fb984611c48565b604051602001610fca92919061377e565b6040516020818303038152906040525b915050919050565b6000600c600083815260200190815260200160002060009054906101000a900464ffffffffff169050919050565b6000600560008473ffffffffffffffffffffffffffffffffffffffff1673ffffffffffffffffffffffffffffffffffffffff16815260200190815260200160002060008373ffffffffffffffffffffffffffffffffffffffff1673ffffffffffffffffffffffffffffffffffffffff16815260200190815260200160002060009054906101000a900460ff16905092915050565b60007f80ac58cd000000000000000000000000000000000000000000000000000000007bffffffffffffffffffffffffffffffffffffffffffffffffffffffff1916827bffffffffffffffffffffffffffffffffffffffffffffffffffffffff1916148061116f57507f5b5e139f000000000000000000000000000000000000000000000000000000007bffffffffffffffffffffffffffffffffffffffffffffffffffffffff1916827bffffffffffffffffffffffffffffffffffffffffffffffffffffffff1916145b8061117f575061117e82611d16565b5b9050919050565b61118f81611d80565b6111ce576040517f08c379a00000000000000000000000000000000000000000000000000000000081526004016111c590613690565b60405180910390fd5b50565b600033905090565b816004600083815260200190815260200160002060006101000a81548173ffffffffffffffffffffffffffffffffffffffff021916908373ffffffffffffffffffffffffffffffffffffffff160217905550808273ffffffffffffffffffffffffffffffffffffffff1661124c83610d22565b73ffffffffffffffffffffffffffffffffffffffff167f8c5be1e5ebec7d5bd14f71427d1e84f3dd0314c0f7b2291e5b200ac8c7c3b92560405160405180910390a45050565b600061129d82610d22565b90506112ad816000846001611dc1565b6112b682610d22565b90506004600083815260200190815260200160002060006101000a81549073ffffffffffffffffffffffffffffffffffffffff02191690556001600360008373ffffffffffffffffffffffffffffffffffffffff1673ffffffffffffffffffffffffffffffffffffffff168152602001908152602001600020600082825403925050819055506002600083815260200190815260200160002060006101000a81549073ffffffffffffffffffffffffffffffffffffffff021916905581600073ffffffffffffffffffffffffffffffffffffffff168273ffffffffffffffffffffffffffffffffffffffff167fddf252ad1be2c89b69c2b068fc378daa952ba7f163c4a11628f55a4df523b3ef60405160405180910390a46113dc816000846001611f1f565b5050565b6001816000016000828254019250508190555050565b600081600001549050919050565b6000606483612710426114156111d1565b86604051602001611428939291906132ea565b6040516020818303038152906040528051906020012060001c61144b9190613356565b64ffffffffff1661145c91906137a2565b8564ffffffffff1661146e91906137e4565b61147891906133f1565b90509392505050565b600073ffffffffffffffffffffffffffffffffffffffff168273ffffffffffffffffffffffffffffffffffffffff16036114f0576040517f08c379a00000000000000000000000000000000000000000000000000000000081526004016114e790613864565b60405180910390fd5b6114f981611d80565b15611539576040517f08c379a0000000000000000000000000000000000000000000000000000000008152600401611530906138d0565b60405180910390fd5b611547600083836001611dc1565b61155081611d80565b15611590576040517f08c379a0000000000000000000000000000000000000000000000000000000008152600401611587906138d0565b60405180910390fd5b6001600360008473ffffffffffffffffffffffffffffffffffffffff1673ffffffffffffffffffffffffffffffffffffffff16815260200190815260200160002060008282540192505081905550816002600083815260200190815260200160002060006101000a81548173ffffffffffffffffffffffffffffffffffffffff021916908373ffffffffffffffffffffffffffffffffffffffff160217905550808273ffffffffffffffffffffffffffffffffffffffff16600073ffffffffffffffffffffffffffffffffffffffff167fddf252ad1be2c89b69c2b068fc378daa952ba7f163c4a11628f55a4df523b3ef60405160405180910390a461169a600083836001611f1f565b5050565b6000806116aa83610d22565b90508073ffffffffffffffffffffffffffffffffffffffff168473ffffffffffffffffffffffffffffffffffffffff1614806116ec57506116eb8185611010565b5b8061172a57508373ffffffffffffffffffffffffffffffffffffffff1661171284610577565b73ffffffffffffffffffffffffffffffffffffffff16145b91505092915050565b8273ffffffffffffffffffffffffffffffffffffffff1661175382610d22565b73ffffffffffffffffffffffffffffffffffffffff16146117a9576040517f08c379a00000000000000000000000000000000000000000000000000000000081526004016117a090613962565b60405180910390fd5b600073ffffffffffffffffffffffffffffffffffffffff168273ffffffffffffffffffffffffffffffffffffffff1603611818576040517f08c379a000000000000000000000000000000000000000000000000000000000815260040161180f906139f4565b60405180910390fd5b6118258383836001611dc1565b8273ffffffffffffffffffffffffffffffffffffffff1661184582610d22565b73ffffffffffffffffffffffffffffffffffffffff161461189b576040517f08c379a000000000000000000000000000000000000000000000000000000000815260040161189290613962565b60405180910390fd5b6004600082815260200190815260200160002060006101000a81549073ffffffffffffffffffffffffffffffffffffffff02191690556001600360008573ffffffffffffffffffffffffffffffffffffffff1673ffffffffffffffffffffffffffffffffffffffff168152602001908152602001600020600082825403925050819055506001600360008473ffffffffffffffffffffffffffffffffffffffff1673ffffffffffffffffffffffffffffffffffffffff16815260200190815260200160002060008282540192505081905550816002600083815260200190815260200160002060006101000a81548173ffffffffffffffffffffffffffffffffffffffff021916908373ffffffffffffffffffffffffffffffffffffffff160217905550808273ffffffffffffffffffffffffffffffffffffffff168473ffffffffffffffffffffffffffffffffffffffff167fddf252ad1be2c89b69c2b068fc378daa952ba7f163c4a11628f55a4df523b3ef60405160405180910390a4611a278383836001611f1f565b505050565b60006002600083815260200190815260200160002060009054906101000a900473ffffffffffffffffffffffffffffffffffffffff169050919050565b8173ffffffffffffffffffffffffffffffffffffffff168373ffffffffffffffffffffffffffffffffffffffff1603611ad7576040517f08c379a0000000000000000000000000000000000000000000000000000000008152600401611ace90613a60565b60405180910390fd5b80600560008573ffffffffffffffffffffffffffffffffffffffff1673ffffffffffffffffffffffffffffffffffffffff16815260200190815260200160002060008473ffffffffffffffffffffffffffffffffffffffff1673ffffffffffffffffffffffffffffffffffffffff16815260200190815260200160002060006101000a81548160ff0219169083151502179055508173ffffffffffffffffffffffffffffffffffffffff168373ffffffffffffffffffffffffffffffffffffffff167f17307eab39ab6107e8899845ad3d59bd9653f200f220920489ca2b5937696c3183604051611bc8919061263f565b60405180910390a3505050565b611be0848484611733565b611bec84848484611f25565b611c2b576040517f08c379a0000000000000000000000000000000000000000000000000000000008152600401611c2290613af2565b60405180910390fd5b50505050565b606060405180602001604052806000815250905090565b606060006001611c57846120ac565b01905060008167ffffffffffffffff811115611c7657611c7561286b565b5b6040519080825280601f01601f191660200182016040528015611ca85781602001600182028036833780820191505090505b509050600082602001820190505b600115611d0b578080600190039150507f3031323334353637383961626364656600000000000000000000000000000000600a86061a8153600a8581611cff57611cfe613327565b5b04945060008503611cb6575b819350505050919050565b60007f01ffc9a7000000000000000000000000000000000000000000000000000000007bffffffffffffffffffffffffffffffffffffffffffffffffffffffff1916827bffffffffffffffffffffffffffffffffffffffffffffffffffffffff1916149050919050565b60008073ffffffffffffffffffffffffffffffffffffffff16611da283611a2c565b73ffffffffffffffffffffffffffffffffffffffff1614159050919050565b611dcd848484846121ff565b6001811115611e11576040517f08c379a0000000000000000000000000000000000000000000000000000000008152600401611e0890613b84565b60405180910390fd5b6000829050600073ffffffffffffffffffffffffffffffffffffffff168573ffffffffffffffffffffffffffffffffffffffff1603611e5857611e5381612205565b611e97565b8373ffffffffffffffffffffffffffffffffffffffff168573ffffffffffffffffffffffffffffffffffffffff1614611e9657611e95858261224e565b5b5b600073ffffffffffffffffffffffffffffffffffffffff168473ffffffffffffffffffffffffffffffffffffffff1603611ed957611ed4816123bb565b611f18565b8473ffffffffffffffffffffffffffffffffffffffff168473ffffffffffffffffffffffffffffffffffffffff1614611f1757611f16848261248c565b5b5b5050505050565b50505050565b6000611f468473ffffffffffffffffffffffffffffffffffffffff1661250b565b1561209f578373ffffffffffffffffffffffffffffffffffffffff1663150b7a02611f6f6111d1565b8786866040518563ffffffff1660e01b8152600401611f919493929190613bf9565b6020604051808303816000875af1925050508015611fcd57506040513d601f19601f82011682018060405250810190611fca9190613c5a565b60015b61204f573d8060008114611ffd576040519150601f19603f3d011682016040523d82523d6000602084013e612002565b606091505b506000815103612047576040517f08c379a000000000000000000000000000000000000000000000000000000000815260040161203e90613af2565b60405180910390fd5b805181602001fd5b63150b7a0260e01b7bffffffffffffffffffffffffffffffffffffffffffffffffffffffff1916817bffffffffffffffffffffffffffffffffffffffffffffffffffffffff1916149150506120a4565b600190505b949350505050565b600080600090507a184f03e93ff9f4daa797ed6e38ed64bf6a1f010000000000000000831061210a577a184f03e93ff9f4daa797ed6e38ed64bf6a1f0100000000000000008381612100576120ff613327565b5b0492506040810190505b6d04ee2d6d415b85acef81000000008310612147576d04ee2d6d415b85acef8100000000838161213d5761213c613327565b5b0492506020810190505b662386f26fc10000831061217657662386f26fc10000838161216c5761216b613327565b5b0492506010810190505b6305f5e100831061219f576305f5e100838161219557612194613327565b5b0492506008810190505b61271083106121c45761271083816121ba576121b9613327565b5b0492506004810190505b606483106121e757606483816121dd576121dc613327565b5b0492506002810190505b600a83106121f6576001810190505b80915050919050565b50505050565b6008805490506009600083815260200190815260200160002081905550600881908060018154018082558091505060019003906000526020600020016000909190919091505550565b6000600161225b84610da8565b6122659190613c87565b905060006007600084815260200190815260200160002054905081811461234a576000600660008673ffffffffffffffffffffffffffffffffffffffff1673ffffffffffffffffffffffffffffffffffffffff168152602001908152602001600020600084815260200190815260200160002054905080600660008773ffffffffffffffffffffffffffffffffffffffff1673ffffffffffffffffffffffffffffffffffffffff168152602001908152602001600020600084815260200190815260200160002081905550816007600083815260200190815260200160002081905550505b6007600084815260200190815260200160002060009055600660008573ffffffffffffffffffffffffffffffffffffffff1673ffffffffffffffffffffffffffffffffffffffff16815260200190815260200160002060008381526020019081526020016000206000905550505050565b600060016008805490506123cf9190613c87565b90506000600960008481526020019081526020016000205490506000600883815481106123ff576123fe613615565b5b90600052602060002001549050806008838154811061242157612420613615565b5b9060005260206000200181905550816009600083815260200190815260200160002081905550600960008581526020019081526020016000206000905560088054806124705761246f613cbb565b5b6001900381819060005260206000200160009055905550505050565b600061249783610da8565b905081600660008573ffffffffffffffffffffffffffffffffffffffff1673ffffffffffffffffffffffffffffffffffffffff168152602001908152602001600020600083815260200190815260200160002081905550806007600084815260200190815260200160002081905550505050565b6000808273ffffffffffffffffffffffffffffffffffffffff163b119050919050565b50805461253a90612d6e565b6000825580601f1061254c575061256b565b601f01602090049060005260206000209081019061256a919061256e565b5b50565b5b8082111561258757600081600090555060010161256f565b5090565b6000604051905090565b600080fd5b600080fd5b60007fffffffff0000000000000000000000000000000000000000000000000000000082169050919050565b6125d48161259f565b81146125df57600080fd5b50565b6000813590506125f1816125cb565b92915050565b60006020828403121561260d5761260c612595565b5b600061261b848285016125e2565b91505092915050565b60008115159050919050565b61263981612624565b82525050565b60006020820190506126546000830184612630565b92915050565b600081519050919050565b600082825260208201905092915050565b60005b83811015612694578082015181840152602081019050612679565b60008484015250505050565b6000601f19601f8301169050919050565b60006126bc8261265a565b6126c68185612665565b93506126d6818560208601612676565b6126df816126a0565b840191505092915050565b6000602082019050818103600083015261270481846126b1565b905092915050565b6000819050919050565b61271f8161270c565b811461272a57600080fd5b50565b60008135905061273c81612716565b92915050565b60006020828403121561275857612757612595565b5b60006127668482850161272d565b91505092915050565b600073ffffffffffffffffffffffffffffffffffffffff82169050919050565b600061279a8261276f565b9050919050565b6127aa8161278f565b82525050565b60006020820190506127c560008301846127a1565b92915050565b6127d48161278f565b81146127df57600080fd5b50565b6000813590506127f1816127cb565b92915050565b6000806040838503121561280e5761280d612595565b5b600061281c858286016127e2565b925050602061282d8582860161272d565b9150509250929050565b6128408161270c565b82525050565b600060208201905061285b6000830184612837565b92915050565b600080fd5b600080fd5b7f4e487b7100000000000000000000000000000000000000000000000000000000600052604160045260246000fd5b6128a3826126a0565b810181811067ffffffffffffffff821117156128c2576128c161286b565b5b80604052505050565b60006128d561258b565b90506128e1828261289a565b919050565b600067ffffffffffffffff8211156129015761290061286b565b5b61290a826126a0565b9050602081019050919050565b82818337600083830152505050565b6000612939612934846128e6565b6128cb565b90508281526020810184848401111561295557612954612866565b5b612960848285612917565b509392505050565b600082601f83011261297d5761297c612861565b5b813561298d848260208601612926565b91505092915050565b600080600080608085870312156129b0576129af612595565b5b600085013567ffffffffffffffff8111156129ce576129cd61259a565b5b6129da87828801612968565b94505060206129eb8782880161272d565b93505060406129fc8782880161272d565b9250506060612a0d8782880161272d565b91505092959194509250565b600080600060608486031215612a3257612a31612595565b5b6000612a40868287016127e2565b9350506020612a51868287016127e2565b9250506040612a628682870161272d565b9150509250925092565b600064ffffffffff82169050919050565b612a8681612a6c565b8114612a9157600080fd5b50565b600081359050612aa381612a7d565b92915050565b600080600060608486031215612ac257612ac1612595565b5b600084013567ffffffffffffffff811115612ae057612adf61259a565b5b612aec86828701612968565b9350506020612afd86828701612a94565b9250506040612b0e8682870161272d565b9150509250925092565b600060208284031215612b2e57612b2d612595565b5b6000612b3c848285016127e2565b91505092915050565b612b4e81612624565b8114612b5957600080fd5b50565b600081359050612b6b81612b45565b92915050565b60008060408385031215612b8857612b87612595565b5b6000612b96858286016127e2565b9250506020612ba785828601612b5c565b9150509250929050565b600067ffffffffffffffff821115612bcc57612bcb61286b565b5b612bd5826126a0565b9050602081019050919050565b6000612bf5612bf084612bb1565b6128cb565b905082815260208101848484011115612c1157612c10612866565b5b612c1c848285612917565b509392505050565b600082601f830112612c3957612c38612861565b5b8135612c49848260208601612be2565b91505092915050565b60008060008060808587031215612c6c57612c6b612595565b5b6000612c7a878288016127e2565b9450506020612c8b878288016127e2565b9350506040612c9c8782880161272d565b925050606085013567ffffffffffffffff811115612cbd57612cbc61259a565b5b612cc987828801612c24565b91505092959194509250565b612cde81612a6c565b82525050565b6000602082019050612cf96000830184612cd5565b92915050565b60008060408385031215612d1657612d15612595565b5b6000612d24858286016127e2565b9250506020612d35858286016127e2565b9150509250929050565b7f4e487b7100000000000000000000000000000000000000000000000000000000600052602260045260246000fd5b60006002820490506001821680612d8657607f821691505b602082108103612d9957612d98612d3f565b5b50919050565b7f4552433732313a20617070726f76616c20746f2063757272656e74206f776e6560008201527f7200000000000000000000000000000000000000000000000000000000000000602082015250565b6000612dfb602183612665565b9150612e0682612d9f565b604082019050919050565b60006020820190508181036000830152612e2a81612dee565b9050919050565b7f4552433732313a20617070726f76652063616c6c6572206973206e6f7420746f60008201527f6b656e206f776e6572206f7220617070726f76656420666f7220616c6c000000602082015250565b6000612e8d603d83612665565b9150612e9882612e31565b604082019050919050565b60006020820190508181036000830152612ebc81612e80565b9050919050565b7f796f7520617265206e6f74204e4654206f776e65720000000000000000000000600082015250565b6000612ef9601583612665565b9150612f0482612ec3565b602082019050919050565b60006020820190508181036000830152612f2881612eec565b9050919050565b7f73616d6520746f6b656e20496400000000000000000000000000000000000000600082015250565b6000612f65600d83612665565b9150612f7082612f2f565b602082019050919050565b60006020820190508181036000830152612f9481612f58565b9050919050565b60008190508160005260206000209050919050565b60006020601f8301049050919050565b600082821b905092915050565b600060088302612ffd7fffffffffffffffffffffffffffffffffffffffffffffffffffffffffffffffff82612fc0565b6130078683612fc0565b95508019841693508086168417925050509392505050565b6000819050919050565b600061304461303f61303a8461270c565b61301f565b61270c565b9050919050565b6000819050919050565b61305e83613029565b61307261306a8261304b565b848454612fcd565b825550505050565b600090565b61308761307a565b613092818484613055565b505050565b5b818110156130b6576130ab60008261307f565b600181019050613098565b5050565b601f8211156130fb576130cc81612f9b565b6130d584612fb0565b810160208510156130e4578190505b6130f86130f085612fb0565b830182613097565b50505b505050565b600082821c905092915050565b600061311e60001984600802613100565b1980831691505092915050565b6000613137838361310d565b9150826002028217905092915050565b6131508261265a565b67ffffffffffffffff8111156131695761316861286b565b5b6131738254612d6e565b61317e8282856130ba565b600060209050601f8311600181146131b1576000841561319f578287015190505b6131a9858261312b565b865550613211565b601f1984166131bf86612f9b565b60005b828110156131e7578489015182556001820191506020850194506020810190506131c2565b868310156132045784890151613200601f89168261310d565b8355505b6001600288020188555050505b505050505050565b7f4e487b7100000000000000000000000000000000000000000000000000000000600052601160045260246000fd5b600061325382612a6c565b915061325e83612a6c565b9250828201905064ffffffffff81111561327b5761327a613219565b5b92915050565b6000819050919050565b61329c6132978261270c565b613281565b82525050565b60008160601b9050919050565b60006132ba826132a2565b9050919050565b60006132cc826132af565b9050919050565b6132e46132df8261278f565b6132c1565b82525050565b60006132f6828661328b565b60208201915061330682856132d3565b601482019150613316828461328b565b602082019150819050949350505050565b7f4e487b7100000000000000000000000000000000000000000000000000000000600052601260045260246000fd5b60006133618261270c565b915061336c8361270c565b92508261337c5761337b613327565b5b828206905092915050565b600061339282612a6c565b915061339d83612a6c565b9250828203905064ffffffffff8111156133ba576133b9613219565b5b92915050565b60006133cb82612a6c565b91506133d683612a6c565b9250826133e6576133e5613327565b5b828204905092915050565b60006133fc82612a6c565b915061340783612a6c565b92508261341757613416613327565b5b828206905092915050565b600061342d82612a6c565b915061343883612a6c565b925082820261344681612a6c565b915080821461345857613457613219565b5b5092915050565b7f4552433732313a2063616c6c6572206973206e6f7420746f6b656e206f776e6560008201527f72206f7220617070726f76656400000000000000000000000000000000000000602082015250565b60006134bb602d83612665565b91506134c68261345f565b604082019050919050565b600060208201905081810360008301526134ea816134ae565b9050919050565b7f455243373231456e756d657261626c653a206f776e657220696e646578206f7560008201527f74206f6620626f756e6473000000000000000000000000000000000000000000602082015250565b600061354d602b83612665565b9150613558826134f1565b604082019050919050565b6000602082019050818103600083015261357c81613540565b9050919050565b7f455243373231456e756d657261626c653a20676c6f62616c20696e646578206f60008201527f7574206f6620626f756e64730000000000000000000000000000000000000000602082015250565b60006135df602c83612665565b91506135ea82613583565b604082019050919050565b6000602082019050818103600083015261360e816135d2565b9050919050565b7f4e487b7100000000000000000000000000000000000000000000000000000000600052603260045260246000fd5b7f4552433732313a20696e76616c696420746f6b656e2049440000000000000000600082015250565b600061367a601883612665565b915061368582613644565b602082019050919050565b600060208201905081810360008301526136a98161366d565b9050919050565b7f4552433732313a2061646472657373207a65726f206973206e6f74206120766160008201527f6c6964206f776e65720000000000000000000000000000000000000000000000602082015250565b600061370c602983612665565b9150613717826136b0565b604082019050919050565b6000602082019050818103600083015261373b816136ff565b9050919050565b600081905092915050565b60006137588261265a565b6137628185613742565b9350613772818560208601612676565b80840191505092915050565b600061378a828561374d565b9150613796828461374d565b91508190509392505050565b60006137ad8261270c565b91506137b88361270c565b92508282026137c68161270c565b915082820484148315176137dd576137dc613219565b5b5092915050565b60006137ef8261270c565b91506137fa8361270c565b925082820190508082111561381257613811613219565b5b92915050565b7f4552433732313a206d696e7420746f20746865207a65726f2061646472657373600082015250565b600061384e602083612665565b915061385982613818565b602082019050919050565b6000602082019050818103600083015261387d81613841565b9050919050565b7f4552433732313a20746f6b656e20616c7265616479206d696e74656400000000600082015250565b60006138ba601c83612665565b91506138c582613884565b602082019050919050565b600060208201905081810360008301526138e9816138ad565b9050919050565b7f4552433732313a207472616e736665722066726f6d20696e636f72726563742060008201527f6f776e6572000000000000000000000000000000000000000000000000000000602082015250565b600061394c602583612665565b9150613957826138f0565b604082019050919050565b6000602082019050818103600083015261397b8161393f565b9050919050565b7f4552433732313a207472616e7366657220746f20746865207a65726f2061646460008201527f7265737300000000000000000000000000000000000000000000000000000000602082015250565b60006139de602483612665565b91506139e982613982565b604082019050919050565b60006020820190508181036000830152613a0d816139d1565b9050919050565b7f4552433732313a20617070726f766520746f2063616c6c657200000000000000600082015250565b6000613a4a601983612665565b9150613a5582613a14565b602082019050919050565b60006020820190508181036000830152613a7981613a3d565b9050919050565b7f4552433732313a207472616e7366657220746f206e6f6e20455243373231526560008201527f63656976657220696d706c656d656e7465720000000000000000000000000000602082015250565b6000613adc603283612665565b9150613ae782613a80565b604082019050919050565b60006020820190508181036000830152613b0b81613acf565b9050919050565b7f455243373231456e756d657261626c653a20636f6e736563757469766520747260008201527f616e7366657273206e6f7420737570706f727465640000000000000000000000602082015250565b6000613b6e603583612665565b9150613b7982613b12565b604082019050919050565b60006020820190508181036000830152613b9d81613b61565b9050919050565b600081519050919050565b600082825260208201905092915050565b6000613bcb82613ba4565b613bd58185613baf565b9350613be5818560208601612676565b613bee816126a0565b840191505092915050565b6000608082019050613c0e60008301876127a1565b613c1b60208301866127a1565b613c286040830185612837565b8181036060830152613c3a8184613bc0565b905095945050505050565b600081519050613c54816125cb565b92915050565b600060208284031215613c7057613c6f612595565b5b6000613c7e84828501613c45565b91505092915050565b6000613c928261270c565b9150613c9d8361270c565b9250828203905081811115613cb557613cb4613219565b5b92915050565b7f4e487b7100000000000000000000000000000000000000000000000000000000600052603160045260246000fdfea2646970667358221220564f78d89b4be9dc9c1dc708d51cf8ef6e5c89f9b06eb04aae67e355dd75c19f64736f6c63430008120033",
  "immutableReferences": {},
  "source": "// SPDX-License-Identifier: MIT\r\npragma solidity >=0.7.0 <0.9.0;\r\n\r\nimport \"@openzeppelin/contracts/token/ERC721/extensions/ERC721Enumerable.sol\";\r\nimport \"@openzeppelin/contracts/utils/Counters.sol\";\r\n\r\n\r\ncontract MARS_NFT is ERC721Enumerable{\r\n    using Counters for Counters.Counter;\r\n\r\n    // uint == uint256 \r\n    constructor() ERC721(\"MARS_NFT\", \"MARSNFT\") {}\r\n\r\n    Counters.Counter private _tokenId;\r\n    mapping(uint256 => string) private _tokenURIs;\r\n    mapping (uint256 => uint40) private _marsDnas;\r\n    \r\n        \r\n    // nft ()\r\n    function mint(string memory _tokenURI, uint40 crop, uint256 nonce) public{\r\n        _tokenId.increment();\r\n\r\n        uint256 newTokenId = _tokenId.current();\r\n        _tokenURIs[newTokenId] = _tokenURI; \r\n        \r\n        uint40 color = uint40(uint(keccak256(abi.encodePacked(block.timestamp, _msgSender(), nonce))) % 11);\r\n        crop = createGen(crop, 10, nonce);\r\n        color = createGen(color, 11, nonce);\r\n        //  10  0 none     11 \r\n        _marsDnas[newTokenId] = 10000000000 + crop * 100000000 + color * 1000000;\r\n        \r\n        _mint(_msgSender(), newTokenId);\r\n    }\r\n\r\n    function burn(uint256 tokenId) public {\r\n        _burn(tokenId);\r\n\r\n        if (bytes(_tokenURIs[tokenId]).length != 0) {\r\n            delete _tokenURIs[tokenId];\r\n        }\r\n        if(_marsDnas[tokenId] != 0){\r\n            delete _marsDnas[tokenId];\r\n        }\r\n    }\r\n\r\n    // nft \r\n    function combNFT(string memory _tokenURI, uint256 nft1TokenId, uint256 nft2TokenId, uint256 nonce) public {\r\n        require(_msgSender() == ownerOf(nft1TokenId), \"you are not NFT owner\");\r\n        require(_msgSender() == ownerOf(nft2TokenId), \"you are not NFT owner\");\r\n        require(nft1TokenId != nft2TokenId, \"same token Id\");\r\n\r\n        uint40 nft1Dna = getNftDna(nft1TokenId);\r\n        uint40 nft2Dna = getNftDna(nft2TokenId);\r\n        \r\n        _burn(nft1TokenId);\r\n        _burn(nft2TokenId);\r\n\r\n        _tokenId.increment();\r\n        uint256 newTokenId = _tokenId.current();\r\n        _tokenURIs[newTokenId] = _tokenURI; \r\n\r\n        //  \r\n        uint40 t2DnaBase = nft1Dna + nft2Dna;\r\n        uint40 t2Dna = uint40(uint(keccak256(abi.encodePacked(block.timestamp, _msgSender(), nonce))) % 1000000);\r\n        uint40 t2Crop = uint40(((nft1Dna - 10000000000) / 100000000) % 10);\r\n        t2Crop = createGen(t2Crop, 10, nonce);\r\n\r\n        uint40 dna = 20000000000 + (t2Crop * 100000000) + (t2DnaBase % 100000000) + t2Dna;\r\n        _marsDnas[newTokenId] = dna;\r\n\r\n        _mint(_msgSender(), newTokenId);\r\n    }\r\n\r\n    function approveTo(address to, uint tokenId) public{\r\n        _approve(to, tokenId);\r\n    }\r\n\r\n    function createGen(uint40 item, uint256 size, uint256 nonce) private view returns (uint40){\r\n        return uint40(item + uint40(uint(keccak256(abi.encodePacked(block.timestamp, _msgSender(), nonce))) % 10000) * size) % 100;\r\n    }\r\n\r\n    // tokenIds   token   .\r\n    //   nft   (  )\r\n    function current() public view returns (uint256) {\r\n        return _tokenId.current();\r\n    }\r\n    \r\n\r\n    // nft   \r\n    function getNftDna(uint256 tokenId) public view returns (uint40){\r\n        return _marsDnas[tokenId];\r\n    }\r\n}",
  "sourcePath": "C:\\Users\\SSAFY\\Desktop\\gitlab\\S08P22E207\\truffle\\contracts\\MARS_NFT.sol",
  "compiler": {
    "name": "solc",
    "version": "0.8.18+commit.87f61d96.Emscripten.clang"
  },
  "schemaVersion": "3.4.12",
  "updatedAt": "2023-03-30T04:44:55.847Z",
  "networkType": "ethereum",
  "devdoc": {
    "events": {
      "Approval(address,address,uint256)": {
        "details": "Emitted when `owner` enables `approved` to manage the `tokenId` token."
      },
      "ApprovalForAll(address,address,bool)": {
        "details": "Emitted when `owner` enables or disables (`approved`) `operator` to manage all of its assets."
      },
      "Transfer(address,address,uint256)": {
        "details": "Emitted when `tokenId` token is transferred from `from` to `to`."
      }
    },
    "kind": "dev",
    "methods": {
      "approve(address,uint256)": {
        "details": "See {IERC721-approve}."
      },
      "balanceOf(address)": {
        "details": "See {IERC721-balanceOf}."
      },
      "getApproved(uint256)": {
        "details": "See {IERC721-getApproved}."
      },
      "isApprovedForAll(address,address)": {
        "details": "See {IERC721-isApprovedForAll}."
      },
      "name()": {
        "details": "See {IERC721Metadata-name}."
      },
      "ownerOf(uint256)": {
        "details": "See {IERC721-ownerOf}."
      },
      "safeTransferFrom(address,address,uint256)": {
        "details": "See {IERC721-safeTransferFrom}."
      },
      "safeTransferFrom(address,address,uint256,bytes)": {
        "details": "See {IERC721-safeTransferFrom}."
      },
      "setApprovalForAll(address,bool)": {
        "details": "See {IERC721-setApprovalForAll}."
      },
      "supportsInterface(bytes4)": {
        "details": "See {IERC165-supportsInterface}."
      },
      "symbol()": {
        "details": "See {IERC721Metadata-symbol}."
      },
      "tokenByIndex(uint256)": {
        "details": "See {IERC721Enumerable-tokenByIndex}."
      },
      "tokenOfOwnerByIndex(address,uint256)": {
        "details": "See {IERC721Enumerable-tokenOfOwnerByIndex}."
      },
      "tokenURI(uint256)": {
        "details": "See {IERC721Metadata-tokenURI}."
      },
      "totalSupply()": {
        "details": "See {IERC721Enumerable-totalSupply}."
      },
      "transferFrom(address,address,uint256)": {
        "details": "See {IERC721-transferFrom}."
      }
    },
    "version": 1
  },
  "userdoc": {
    "kind": "user",
    "methods": {},
    "version": 1
  }
}