{
  "contractName": "SaleFactory",
  "abi": [
    {
      "inputs": [
        {
          "internalType": "address",
          "name": "O2TokenContractAddress",
          "type": "address"
        },
        {
          "internalType": "address",
          "name": "MARS_NFTContractAddress",
          "type": "address"
        }
      ],
      "stateMutability": "payable",
      "type": "constructor",
      "payable": true
    },
    {
      "anonymous": false,
      "inputs": [
        {
          "indexed": true,
          "internalType": "address",
          "name": "previousOwner",
          "type": "address"
        },
        {
          "indexed": true,
          "internalType": "address",
          "name": "newOwner",
          "type": "address"
        }
      ],
      "name": "OwnershipTransferred",
      "type": "event"
    },
    {
      "inputs": [],
      "name": "owner",
      "outputs": [
        {
          "internalType": "address",
          "name": "",
          "type": "address"
        }
      ],
      "stateMutability": "view",
      "type": "function",
      "constant": true
    },
    {
      "inputs": [],
      "name": "renounceOwnership",
      "outputs": [],
      "stateMutability": "nonpayable",
      "type": "function"
    },
    {
      "inputs": [
        {
          "internalType": "address",
          "name": "newOwner",
          "type": "address"
        }
      ],
      "name": "transferOwnership",
      "outputs": [],
      "stateMutability": "nonpayable",
      "type": "function"
    },
    {
      "inputs": [
        {
          "internalType": "uint256",
          "name": "MARS_NFT_Id",
          "type": "uint256"
        },
        {
          "internalType": "address",
          "name": "seller",
          "type": "address"
        },
        {
          "internalType": "uint256",
          "name": "buyNowPrice",
          "type": "uint256"
        }
      ],
      "name": "createSale",
      "outputs": [],
      "stateMutability": "payable",
      "type": "function",
      "payable": true
    },
    {
      "inputs": [
        {
          "internalType": "uint256",
          "name": "saleId",
          "type": "uint256"
        }
      ],
      "name": "cancelSale",
      "outputs": [],
      "stateMutability": "nonpayable",
      "type": "function"
    },
    {
      "inputs": [
        {
          "internalType": "uint256",
          "name": "saleId",
          "type": "uint256"
        },
        {
          "internalType": "address",
          "name": "buyer",
          "type": "address"
        }
      ],
      "name": "buyNow",
      "outputs": [],
      "stateMutability": "payable",
      "type": "function",
      "payable": true
    },
    {
      "inputs": [
        {
          "internalType": "uint256",
          "name": "saleId",
          "type": "uint256"
        }
      ],
      "name": "getSale",
      "outputs": [
        {
          "internalType": "address",
          "name": "",
          "type": "address"
        }
      ],
      "stateMutability": "view",
      "type": "function",
      "constant": true
    },
    {
      "inputs": [
        {
          "internalType": "uint256",
          "name": "saleId",
          "type": "uint256"
        }
      ],
      "name": "getSeller",
      "outputs": [
        {
          "internalType": "address",
          "name": "",
          "type": "address"
        }
      ],
      "stateMutability": "view",
      "type": "function",
      "constant": true
    },
    {
      "inputs": [
        {
          "internalType": "uint256",
          "name": "saleId",
          "type": "uint256"
        }
      ],
      "name": "getBuyer",
      "outputs": [
        {
          "internalType": "address",
          "name": "",
          "type": "address"
        }
      ],
      "stateMutability": "view",
      "type": "function",
      "constant": true
    },
    {
      "inputs": [
        {
          "internalType": "address",
          "name": "seller",
          "type": "address"
        }
      ],
      "name": "getSellIdsByWallet",
      "outputs": [
        {
          "internalType": "uint256[]",
          "name": "",
          "type": "uint256[]"
        }
      ],
      "stateMutability": "view",
      "type": "function",
      "constant": true
    },
    {
      "inputs": [
        {
          "internalType": "address",
          "name": "buyer",
          "type": "address"
        }
      ],
      "name": "getBuyIdsByWallet",
      "outputs": [
        {
          "internalType": "uint256[]",
          "name": "",
          "type": "uint256[]"
        }
      ],
      "stateMutability": "view",
      "type": "function",
      "constant": true
    },
    {
      "inputs": [
        {
          "internalType": "address",
          "name": "walletAddr",
          "type": "address"
        }
      ],
      "name": "getSaleIdsByWallet",
      "outputs": [
        {
          "internalType": "uint256[]",
          "name": "",
          "type": "uint256[]"
        }
      ],
      "stateMutability": "view",
      "type": "function",
      "constant": true
    },
    {
      "inputs": [
        {
          "internalType": "uint256",
          "name": "MARS_NFT_Id",
          "type": "uint256"
        }
      ],
      "name": "getSaleIdsOfMARS_NFT",
      "outputs": [
        {
          "internalType": "uint256[]",
          "name": "",
          "type": "uint256[]"
        }
      ],
      "stateMutability": "view",
      "type": "function",
      "constant": true
    },
    {
      "inputs": [
        {
          "internalType": "uint256",
          "name": "MARS_NFT_Id",
          "type": "uint256"
        }
      ],
      "name": "getSaleStatusOfMARS_NFT",
      "outputs": [
        {
          "internalType": "bool",
          "name": "",
          "type": "bool"
        }
      ],
      "stateMutability": "view",
      "type": "function",
      "constant": true
    },
    {
      "inputs": [
        {
          "internalType": "uint256",
          "name": "MARS_NFT_Id",
          "type": "uint256"
        }
      ],
      "name": "getCurrentSaleOfMARS_NFT",
      "outputs": [
        {
          "internalType": "uint256",
          "name": "",
          "type": "uint256"
        }
      ],
      "stateMutability": "view",
      "type": "function",
      "constant": true
    }
  ],
  "bytecode": "0x60806040526040516200424538038062004245833981810160405281019062000029919062000209565b620000496200003d620000d360201b60201c565b620000db60201b60201c565b81600b60006101000a81548173ffffffffffffffffffffffffffffffffffffffff021916908373ffffffffffffffffffffffffffffffffffffffff16021790555080600c60006101000a81548173ffffffffffffffffffffffffffffffffffffffff021916908373ffffffffffffffffffffffffffffffffffffffff160217905550505062000250565b600033905090565b60008060009054906101000a900473ffffffffffffffffffffffffffffffffffffffff169050816000806101000a81548173ffffffffffffffffffffffffffffffffffffffff021916908373ffffffffffffffffffffffffffffffffffffffff1602179055508173ffffffffffffffffffffffffffffffffffffffff168173ffffffffffffffffffffffffffffffffffffffff167f8be0079c531659141344cd1fd0a4f28419497f9722a3daafe3b4186f6b6457e060405160405180910390a35050565b600080fd5b600073ffffffffffffffffffffffffffffffffffffffff82169050919050565b6000620001d182620001a4565b9050919050565b620001e381620001c4565b8114620001ef57600080fd5b50565b6000815190506200020381620001d8565b92915050565b600080604083850312156200022357620002226200019f565b5b60006200023385828601620001f2565b92505060206200024685828601620001f2565b9150509250929050565b613fe580620002606000396000f3fe608060405260043610620000fe5760003560e01c80638d8fc6151162000097578063cbe844e61162000061578063cbe844e61462000353578063d6a9de511462000397578063d8f6d59614620003db578063f2fde38b146200041f57620000fe565b80638d8fc61514620002915780638da5cb5b14620002d55780638f3472571462000305578063bd94b005146200032557620000fe565b80635bf608b811620000d95780635bf608b814620001ab5780635e8fbeed14620001ef5780636f8556d61462000233578063715018a6146200027757620000fe565b8063075ec4ae14620001035780634336d07b146200014757806347ab2090146200018b575b600080fd5b3480156200011057600080fd5b506200012f600480360381019062000129919062001a9f565b6200044d565b6040516200013e919062001ae2565b60405180910390f35b3480156200015457600080fd5b506200017360048036038101906200016d919062001a9f565b620004cd565b60405162000182919062001bcd565b60405180910390f35b620001a96004803603810190620001a3919062001c56565b6200053a565b005b348015620001b857600080fd5b50620001d76004803603810190620001d1919062001a9f565b62000a24565b604051620001e6919062001cc3565b60405180910390f35b348015620001fc57600080fd5b506200021b600480360381019062000215919062001ce0565b62000b05565b6040516200022a919062001bcd565b60405180910390f35b3480156200024057600080fd5b506200025f600480360381019062000259919062001ce0565b62000b9e565b6040516200026e919062001bcd565b60405180910390f35b3480156200028457600080fd5b506200028f62000c37565b005b3480156200029e57600080fd5b50620002bd6004803603810190620002b7919062001ce0565b62000c4f565b604051620002cc919062001bcd565b60405180910390f35b348015620002e257600080fd5b50620002ed62000ce8565b604051620002fc919062001cc3565b60405180910390f35b6200032360048036038101906200031d919062001d12565b62000d11565b005b3480156200033257600080fd5b506200035160048036038101906200034b919062001a9f565b620013e7565b005b3480156200036057600080fd5b506200037f600480360381019062000379919062001a9f565b6200168c565b6040516200038e919062001d76565b60405180910390f35b348015620003a457600080fd5b50620003c36004803603810190620003bd919062001a9f565b620016b6565b604051620003d2919062001cc3565b60405180910390f35b348015620003e857600080fd5b5062000407600480360381019062000401919062001a9f565b620016f3565b60405162000416919062001cc3565b60405180910390f35b3480156200042c57600080fd5b506200044b600480360381019062000445919062001ce0565b62001730565b005b60006009600083815260200190815260200160002060009054906101000a900460ff16620004b2576040517f08c379a0000000000000000000000000000000000000000000000000000000008152600401620004a99062001df4565b60405180910390fd5b600a6000838152602001908152602001600020549050919050565b6060600860008381526020019081526020016000208054806020026020016040519081016040528092919081815260200182805480156200052e57602002820191906000526020600020905b81548152602001906001019080831162000519575b50505050509050919050565b6000811162000580576040517f08c379a0000000000000000000000000000000000000000000000000000000008152600401620005779062001e66565b60405180910390fd5b8173ffffffffffffffffffffffffffffffffffffffff16600c60009054906101000a900473ffffffffffffffffffffffffffffffffffffffff1673ffffffffffffffffffffffffffffffffffffffff16636352211e856040518263ffffffff1660e01b8152600401620005f4919062001ae2565b602060405180830381865afa15801562000612573d6000803e3d6000fd5b505050506040513d601f19601f8201168201806040525081019062000638919062001e9f565b73ffffffffffffffffffffffffffffffffffffffff161462000691576040517f08c379a0000000000000000000000000000000000000000000000000000000008152600401620006889062001f21565b60405180910390fd5b6009600084815260200190815260200160002060009054906101000a900460ff1615620006f5576040517f08c379a0000000000000000000000000000000000000000000000000000000008152600401620006ec9062001fb9565b60405180910390fd5b620007016001620017ba565b60006200070f6001620017d0565b9050600084848442600b60009054906101000a900473ffffffffffffffffffffffffffffffffffffffff16600c60009054906101000a900473ffffffffffffffffffffffffffffffffffffffff166040516200076b9062001a51565b6200077c9695949392919062001fdb565b604051809103906000f08015801562000799573d6000803e3d6000fd5b509050600c60009054906101000a900473ffffffffffffffffffffffffffffffffffffffff1673ffffffffffffffffffffffffffffffffffffffff16631f64e71f82876040518363ffffffff1660e01b8152600401620007fb92919062002048565b600060405180830381600087803b1580156200081657600080fd5b505af11580156200082b573d6000803e3d6000fd5b50505050806002600084815260200190815260200160002060006101000a81548173ffffffffffffffffffffffffffffffffffffffff021916908373ffffffffffffffffffffffffffffffffffffffff160217905550836003600084815260200190815260200160002060006101000a81548173ffffffffffffffffffffffffffffffffffffffff021916908373ffffffffffffffffffffffffffffffffffffffff160217905550600560008573ffffffffffffffffffffffffffffffffffffffff1673ffffffffffffffffffffffffffffffffffffffff168152602001908152602001600020829080600181540180825580915050600190039060005260206000200160009091909190915055600760008573ffffffffffffffffffffffffffffffffffffffff1673ffffffffffffffffffffffffffffffffffffffff1681526020019081526020016000208290806001815401808255809150506001900390600052602060002001600090919091909150556008600086815260200190815260200160002082908060018154018082558091505060019003906000526020600020016000909190919091505560016009600087815260200190815260200160002060006101000a81548160ff02191690831515021790555081600a6000878152602001908152602001600020819055505050505050565b60008073ffffffffffffffffffffffffffffffffffffffff166004600084815260200190815260200160002060009054906101000a900473ffffffffffffffffffffffffffffffffffffffff1673ffffffffffffffffffffffffffffffffffffffff160362000aca576040517f08c379a000000000000000000000000000000000000000000000000000000000815260040162000ac190620020eb565b60405180910390fd5b6004600083815260200190815260200160002060009054906101000a900473ffffffffffffffffffffffffffffffffffffffff169050919050565b6060600760008373ffffffffffffffffffffffffffffffffffffffff1673ffffffffffffffffffffffffffffffffffffffff16815260200190815260200160002080548060200260200160405190810160405280929190818152602001828054801562000b9257602002820191906000526020600020905b81548152602001906001019080831162000b7d575b50505050509050919050565b6060600560008373ffffffffffffffffffffffffffffffffffffffff1673ffffffffffffffffffffffffffffffffffffffff16815260200190815260200160002080548060200260200160405190810160405280929190818152602001828054801562000c2b57602002820191906000526020600020905b81548152602001906001019080831162000c16575b50505050509050919050565b62000c41620017de565b62000c4d600062001863565b565b6060600660008373ffffffffffffffffffffffffffffffffffffffff1673ffffffffffffffffffffffffffffffffffffffff16815260200190815260200160002080548060200260200160405190810160405280929190818152602001828054801562000cdc57602002820191906000526020600020905b81548152602001906001019080831162000cc7575b50505050509050919050565b60008060009054906101000a900473ffffffffffffffffffffffffffffffffffffffff16905090565b60006002600084815260200190815260200160002060009054906101000a900473ffffffffffffffffffffffffffffffffffffffff1690508073ffffffffffffffffffffffffffffffffffffffff16630a03d71e6040518163ffffffff1660e01b8152600401602060405180830381865afa15801562000d95573d6000803e3d6000fd5b505050506040513d601f19601f8201168201806040525081019062000dbb91906200213e565b1562000dfe576040517f08c379a000000000000000000000000000000000000000000000000000000000815260040162000df590620021c0565b60405180910390fd5b8173ffffffffffffffffffffffffffffffffffffffff16600c60009054906101000a900473ffffffffffffffffffffffffffffffffffffffff1673ffffffffffffffffffffffffffffffffffffffff16636352211e8373ffffffffffffffffffffffffffffffffffffffff1663089de03d6040518163ffffffff1660e01b8152600401602060405180830381865afa15801562000e9f573d6000803e3d6000fd5b505050506040513d601f19601f8201168201806040525081019062000ec59190620021f9565b6040518263ffffffff1660e01b815260040162000ee3919062001ae2565b602060405180830381865afa15801562000f01573d6000803e3d6000fd5b505050506040513d601f19601f8201168201806040525081019062000f27919062001e9f565b73ffffffffffffffffffffffffffffffffffffffff160362000f80576040517f08c379a000000000000000000000000000000000000000000000000000000000815260040162000f7790620022a1565b60405180910390fd5b8073ffffffffffffffffffffffffffffffffffffffff1663dbd0e1b66040518163ffffffff1660e01b8152600401602060405180830381865afa15801562000fcc573d6000803e3d6000fd5b505050506040513d601f19601f8201168201806040525081019062000ff2919062001e9f565b73ffffffffffffffffffffffffffffffffffffffff16600c60009054906101000a900473ffffffffffffffffffffffffffffffffffffffff1673ffffffffffffffffffffffffffffffffffffffff16636352211e8373ffffffffffffffffffffffffffffffffffffffff1663089de03d6040518163ffffffff1660e01b8152600401602060405180830381865afa15801562001092573d6000803e3d6000fd5b505050506040513d601f19601f82011682018060405250810190620010b89190620021f9565b6040518263ffffffff1660e01b8152600401620010d6919062001ae2565b602060405180830381865afa158015620010f4573d6000803e3d6000fd5b505050506040513d601f19601f820116820180604052508101906200111a919062001e9f565b73ffffffffffffffffffffffffffffffffffffffff161462001173576040517f08c379a00000000000000000000000000000000000000000000000000000000081526004016200116a9062002339565b60405180910390fd5b8073ffffffffffffffffffffffffffffffffffffffff166398d5fdca6040518163ffffffff1660e01b8152600401602060405180830381865afa158015620011bf573d6000803e3d6000fd5b505050506040513d601f19601f82011682018060405250810190620011e59190620021f9565b600b60009054906101000a900473ffffffffffffffffffffffffffffffffffffffff1673ffffffffffffffffffffffffffffffffffffffff166370a08231846040518263ffffffff1660e01b815260040162001242919062001cc3565b602060405180830381865afa15801562001260573d6000803e3d6000fd5b505050506040513d601f19601f82011682018060405250810190620012869190620021f9565b1015620012ca576040517f08c379a0000000000000000000000000000000000000000000000000000000008152600401620012c190620023d1565b60405180910390fd5b8073ffffffffffffffffffffffffffffffffffffffff16631d8bbc3f836040518263ffffffff1660e01b815260040162001305919062001cc3565b600060405180830381600087803b1580156200132057600080fd5b505af115801562001335573d6000803e3d6000fd5b5050505062001345838362001927565b6000600960008373ffffffffffffffffffffffffffffffffffffffff1663089de03d6040518163ffffffff1660e01b8152600401602060405180830381865afa15801562001397573d6000803e3d6000fd5b505050506040513d601f19601f82011682018060405250810190620013bd9190620021f9565b815260200190815260200160002060006101000a81548160ff021916908315150217905550505050565b60006002600083815260200190815260200160002060009054906101000a900473ffffffffffffffffffffffffffffffffffffffff1690508073ffffffffffffffffffffffffffffffffffffffff16630a03d71e6040518163ffffffff1660e01b8152600401602060405180830381865afa1580156200146b573d6000803e3d6000fd5b505050506040513d601f19601f820116820180604052508101906200149191906200213e565b15620014d4576040517f08c379a0000000000000000000000000000000000000000000000000000000008152600401620014cb90620021c0565b60405180910390fd5b8073ffffffffffffffffffffffffffffffffffffffff16632a0e1c4f6040518163ffffffff1660e01b8152600401602060405180830381865afa15801562001520573d6000803e3d6000fd5b505050506040513d601f19601f820116820180604052508101906200154691906200213e565b1562001589576040517f08c379a0000000000000000000000000000000000000000000000000000000008152600401620015809062002443565b60405180910390fd5b8073ffffffffffffffffffffffffffffffffffffffff1663ea8a1af06040518163ffffffff1660e01b8152600401600060405180830381600087803b158015620015d257600080fd5b505af1158015620015e7573d6000803e3d6000fd5b505050506000600960008373ffffffffffffffffffffffffffffffffffffffff1663089de03d6040518163ffffffff1660e01b8152600401602060405180830381865afa1580156200163d573d6000803e3d6000fd5b505050506040513d601f19601f82011682018060405250810190620016639190620021f9565b815260200190815260200160002060006101000a81548160ff0219169083151502179055505050565b60006009600083815260200190815260200160002060009054906101000a900460ff169050919050565b60006003600083815260200190815260200160002060009054906101000a900473ffffffffffffffffffffffffffffffffffffffff169050919050565b60006002600083815260200190815260200160002060009054906101000a900473ffffffffffffffffffffffffffffffffffffffff169050919050565b6200173a620017de565b600073ffffffffffffffffffffffffffffffffffffffff168173ffffffffffffffffffffffffffffffffffffffff1603620017ac576040517f08c379a0000000000000000000000000000000000000000000000000000000008152600401620017a390620024db565b60405180910390fd5b620017b78162001863565b50565b6001816000016000828254019250508190555050565b600081600001549050919050565b620017e862001a49565b73ffffffffffffffffffffffffffffffffffffffff166200180862000ce8565b73ffffffffffffffffffffffffffffffffffffffff161462001861576040517f08c379a000000000000000000000000000000000000000000000000000000000815260040162001858906200254d565b60405180910390fd5b565b60008060009054906101000a900473ffffffffffffffffffffffffffffffffffffffff169050816000806101000a81548173ffffffffffffffffffffffffffffffffffffffff021916908373ffffffffffffffffffffffffffffffffffffffff1602179055508173ffffffffffffffffffffffffffffffffffffffff168173ffffffffffffffffffffffffffffffffffffffff167f8be0079c531659141344cd1fd0a4f28419497f9722a3daafe3b4186f6b6457e060405160405180910390a35050565b806004600084815260200190815260200160002060006101000a81548173ffffffffffffffffffffffffffffffffffffffff021916908373ffffffffffffffffffffffffffffffffffffffff160217905550600660008273ffffffffffffffffffffffffffffffffffffffff1673ffffffffffffffffffffffffffffffffffffffff168152602001908152602001600020829080600181540180825580915050600190039060005260206000200160009091909190915055600760008273ffffffffffffffffffffffffffffffffffffffff1673ffffffffffffffffffffffffffffffffffffffff1681526020019081526020016000208290806001815401808255809150506001900390600052602060002001600090919091909150555050565b600033905090565b611a40806200257083390190565b600080fd5b6000819050919050565b62001a798162001a64565b811462001a8557600080fd5b50565b60008135905062001a998162001a6e565b92915050565b60006020828403121562001ab85762001ab762001a5f565b5b600062001ac88482850162001a88565b91505092915050565b62001adc8162001a64565b82525050565b600060208201905062001af9600083018462001ad1565b92915050565b600081519050919050565b600082825260208201905092915050565b6000819050602082019050919050565b62001b368162001a64565b82525050565b600062001b4a838362001b2b565b60208301905092915050565b6000602082019050919050565b600062001b708262001aff565b62001b7c818562001b0a565b935062001b898362001b1b565b8060005b8381101562001bc057815162001ba4888262001b3c565b975062001bb18362001b56565b92505060018101905062001b8d565b5085935050505092915050565b6000602082019050818103600083015262001be9818462001b63565b905092915050565b600073ffffffffffffffffffffffffffffffffffffffff82169050919050565b600062001c1e8262001bf1565b9050919050565b62001c308162001c11565b811462001c3c57600080fd5b50565b60008135905062001c508162001c25565b92915050565b60008060006060848603121562001c725762001c7162001a5f565b5b600062001c828682870162001a88565b935050602062001c958682870162001c3f565b925050604062001ca88682870162001a88565b9150509250925092565b62001cbd8162001c11565b82525050565b600060208201905062001cda600083018462001cb2565b92915050565b60006020828403121562001cf95762001cf862001a5f565b5b600062001d098482850162001c3f565b91505092915050565b6000806040838503121562001d2c5762001d2b62001a5f565b5b600062001d3c8582860162001a88565b925050602062001d4f8582860162001c3f565b9150509250929050565b60008115159050919050565b62001d708162001d59565b82525050565b600060208201905062001d8d600083018462001d65565b92915050565b600082825260208201905092915050565b7f54686973204d4152535f4e4654206973206e6f74206f6e2073616c652e000000600082015250565b600062001ddc601d8362001d93565b915062001de98262001da4565b602082019050919050565b6000602082019050818103600083015262001e0f8162001dcd565b9050919050565b7f5072696365206d75737420626520686967686572207468616e20302e00000000600082015250565b600062001e4e601c8362001d93565b915062001e5b8262001e16565b602082019050919050565b6000602082019050818103600083015262001e818162001e3f565b9050919050565b60008151905062001e998162001c25565b92915050565b60006020828403121562001eb85762001eb762001a5f565b5b600062001ec88482850162001e88565b91505092915050565b7f53656c6c6572206973206e6f74206f776e65722e000000000000000000000000600082015250565b600062001f0960148362001d93565b915062001f168262001ed1565b602082019050919050565b6000602082019050818103600083015262001f3c8162001efa565b9050919050565b7f54686973204d4152535f4e465420697320616c7265616479206f6e2073616c6560008201527f2e00000000000000000000000000000000000000000000000000000000000000602082015250565b600062001fa160218362001d93565b915062001fae8262001f43565b604082019050919050565b6000602082019050818103600083015262001fd48162001f92565b9050919050565b600060c08201905062001ff2600083018962001ad1565b62002001602083018862001cb2565b62002010604083018762001ad1565b6200201f606083018662001ad1565b6200202e608083018562001cb2565b6200203d60a083018462001cb2565b979650505050505050565b60006040820190506200205f600083018562001cb2565b6200206e602083018462001ad1565b9392505050565b7f546869732073616c652069732070726f63656564696e67206f722063616e636560008201527f6c65642e00000000000000000000000000000000000000000000000000000000602082015250565b6000620020d360248362001d93565b9150620020e08262002075565b604082019050919050565b600060208201905081810360008301526200210681620020c4565b9050919050565b620021188162001d59565b81146200212457600080fd5b50565b60008151905062002138816200210d565b92915050565b60006020828403121562002157576200215662001a5f565b5b6000620021678482850162002127565b91505092915050565b7f546869732073616c6520697320616c726561647920656e6465642e0000000000600082015250565b6000620021a8601b8362001d93565b9150620021b58262002170565b602082019050919050565b60006020820190508181036000830152620021db8162002199565b9050919050565b600081519050620021f38162001a6e565b92915050565b60006020828403121562002212576200221162001a5f565b5b60006200222284828501620021e2565b91505092915050565b7f4275796572206d757374206e6f6e20657175616c206f776e6572206f6620746860008201527f6520746f6b656e2e000000000000000000000000000000000000000000000000602082015250565b60006200228960288362001d93565b915062002296826200222b565b604082019050919050565b60006020820190508181036000830152620022bc816200227a565b9050919050565b7f53656c6c6572206d75737420657175616c206f776e6572206f6620746865207460008201527f6f6b656e2e000000000000000000000000000000000000000000000000000000602082015250565b60006200232160258362001d93565b91506200232e82620022c3565b604082019050919050565b60006020820190508181036000830152620023548162002312565b9050919050565b7f427579657227732062616c616e6365206973206578686175737465642e2e2e2e60008201527f2e2e000000000000000000000000000000000000000000000000000000000000602082015250565b6000620023b960228362001d93565b9150620023c6826200235b565b604082019050919050565b60006020820190508181036000830152620023ec81620023aa565b9050919050565b7f546869732073616c6520697320616c72656164792063616e63656c65642e0000600082015250565b60006200242b601e8362001d93565b91506200243882620023f3565b602082019050919050565b600060208201905081810360008301526200245e816200241c565b9050919050565b7f4f776e61626c653a206e6577206f776e657220697320746865207a65726f206160008201527f6464726573730000000000000000000000000000000000000000000000000000602082015250565b6000620024c360268362001d93565b9150620024d08262002465565b604082019050919050565b60006020820190508181036000830152620024f681620024b4565b9050919050565b7f4f776e61626c653a2063616c6c6572206973206e6f7420746865206f776e6572600082015250565b60006200253560208362001d93565b91506200254282620024fd565b602082019050919050565b60006020820190508181036000830152620025688162002526565b905091905056fe60806040523480156200001157600080fd5b5060405162001a4038038062001a40833981810160405281019062000037919062000417565b620000576200004b620002a660201b60201c565b620002ae60201b60201c565b600084116200009d576040517f08c379a0000000000000000000000000000000000000000000000000000000008152600401620000949062000514565b60405180910390fd5b8473ffffffffffffffffffffffffffffffffffffffff168173ffffffffffffffffffffffffffffffffffffffff16636352211e886040518263ffffffff1660e01b8152600401620000ef919062000547565b602060405180830381865afa1580156200010d573d6000803e3d6000fd5b505050506040513d601f19601f8201168201806040525081019062000133919062000564565b73ffffffffffffffffffffffffffffffffffffffff16146200018c576040517f08c379a00000000000000000000000000000000000000000000000000000000081526004016200018390620005e6565b60405180910390fd5b8560018190555084600260006101000a81548173ffffffffffffffffffffffffffffffffffffffff021916908373ffffffffffffffffffffffffffffffffffffffff16021790555083600481905550826005819055506000600760006101000a81548160ff0219169083151502179055506000600760016101000a81548160ff02191690831515021790555081600760026101000a81548173ffffffffffffffffffffffffffffffffffffffff021916908373ffffffffffffffffffffffffffffffffffffffff16021790555080600860006101000a81548173ffffffffffffffffffffffffffffffffffffffff021916908373ffffffffffffffffffffffffffffffffffffffff16021790555050505050505062000608565b600033905090565b60008060009054906101000a900473ffffffffffffffffffffffffffffffffffffffff169050816000806101000a81548173ffffffffffffffffffffffffffffffffffffffff021916908373ffffffffffffffffffffffffffffffffffffffff1602179055508173ffffffffffffffffffffffffffffffffffffffff168173ffffffffffffffffffffffffffffffffffffffff167f8be0079c531659141344cd1fd0a4f28419497f9722a3daafe3b4186f6b6457e060405160405180910390a35050565b600080fd5b6000819050919050565b6200038c8162000377565b81146200039857600080fd5b50565b600081519050620003ac8162000381565b92915050565b600073ffffffffffffffffffffffffffffffffffffffff82169050919050565b6000620003df82620003b2565b9050919050565b620003f181620003d2565b8114620003fd57600080fd5b50565b6000815190506200041181620003e6565b92915050565b60008060008060008060c0878903121562000437576200043662000372565b5b60006200044789828a016200039b565b96505060206200045a89828a0162000400565b95505060406200046d89828a016200039b565b94505060606200048089828a016200039b565b93505060806200049389828a0162000400565b92505060a0620004a689828a0162000400565b9150509295509295509295565b600082825260208201905092915050565b7f5072696365206d75737420626520686967686572207468616e20302e00000000600082015250565b6000620004fc601c83620004b3565b91506200050982620004c4565b602082019050919050565b600060208201905081810360008301526200052f81620004ed565b9050919050565b620005418162000377565b82525050565b60006020820190506200055e600083018462000536565b92915050565b6000602082840312156200057d576200057c62000372565b5b60006200058d8482850162000400565b91505092915050565b7f53656c6c6572206973206e6f74206f776e65722e000000000000000000000000600082015250565b6000620005ce601483620004b3565b9150620005db8262000596565b602082019050919050565b600060208201905081810360008301526200060181620005bf565b9050919050565b61142880620006186000396000f3fe6080604052600436106100f35760003560e01c8063715018a61161008a578063dbd0e1b611610059578063dbd0e1b6146102eb578063ea8a1af014610316578063efbe1c1c1461032d578063f2fde38b14610344576100f3565b8063715018a614610253578063722713f71461026a5780638da5cb5b1461029557806398d5fdca146102c0576100f3565b80631d8bbc3f116100c65780631d8bbc3f146101b65780632a0e1c4f146101d257806341fc8d75146101fd578063603daf9a14610228576100f3565b8063089de03d146100f85780630a03d71e14610123578063150b7a021461014e5780631906ab9b1461018b575b600080fd5b34801561010457600080fd5b5061010d61036d565b60405161011a9190610c4e565b60405180910390f35b34801561012f57600080fd5b50610138610377565b6040516101459190610c84565b60405180910390f35b34801561015a57600080fd5b5061017560048036038101906101709190610e83565b61038e565b6040516101829190610f41565b60405180910390f35b34801561019757600080fd5b506101a06103a2565b6040516101ad9190610c4e565b60405180910390f35b6101d060048036038101906101cb9190610f5c565b6103fb565b005b3480156101de57600080fd5b506101e7610820565b6040516101f49190610c84565b60405180910390f35b34801561020957600080fd5b50610212610837565b60405161021f9190610c4e565b60405180910390f35b34801561023457600080fd5b5061023d610841565b60405161024a9190610f98565b60405180910390f35b34801561025f57600080fd5b5061026861086b565b005b34801561027657600080fd5b5061027f61087f565b60405161028c9190610c4e565b60405180910390f35b3480156102a157600080fd5b506102aa610922565b6040516102b79190610f98565b60405180910390f35b3480156102cc57600080fd5b506102d561094b565b6040516102e29190610c4e565b60405180910390f35b3480156102f757600080fd5b50610300610955565b60405161030d9190610f98565b60405180910390f35b34801561032257600080fd5b5061032b61097f565b005b34801561033957600080fd5b50610342610a44565b005b34801561035057600080fd5b5061036b60048036038101906103669190610f5c565b610a68565b005b6000600154905090565b6000600760009054906101000a900460ff16905090565b600063150b7a0260e01b9050949350505050565b6000600760009054906101000a900460ff166103f3576040517f08c379a00000000000000000000000000000000000000000000000000000000081526004016103ea90611010565b60405180910390fd5b600654905090565b600760009054906101000a900460ff161561044b576040517f08c379a00000000000000000000000000000000000000000000000000000000081526004016104429061107c565b60405180910390fd5b600260009054906101000a900473ffffffffffffffffffffffffffffffffffffffff1673ffffffffffffffffffffffffffffffffffffffff16600860009054906101000a900473ffffffffffffffffffffffffffffffffffffffff1673ffffffffffffffffffffffffffffffffffffffff16636352211e6001546040518263ffffffff1660e01b81526004016104e19190610c4e565b602060405180830381865afa1580156104fe573d6000803e3d6000fd5b505050506040513d601f19601f8201168201806040525081019061052291906110b1565b73ffffffffffffffffffffffffffffffffffffffff1614610578576040517f08c379a000000000000000000000000000000000000000000000000000000000815260040161056f9061112a565b60405180910390fd5b600454600760029054906101000a900473ffffffffffffffffffffffffffffffffffffffff1673ffffffffffffffffffffffffffffffffffffffff166370a08231836040518263ffffffff1660e01b81526004016105d69190610f98565b602060405180830381865afa1580156105f3573d6000803e3d6000fd5b505050506040513d601f19601f82011682018060405250810190610617919061115f565b1015610658576040517f08c379a000000000000000000000000000000000000000000000000000000000815260040161064f906111d8565b60405180910390fd5b600860009054906101000a900473ffffffffffffffffffffffffffffffffffffffff1673ffffffffffffffffffffffffffffffffffffffff166342842e0e600260009054906101000a900473ffffffffffffffffffffffffffffffffffffffff16836001546040518463ffffffff1660e01b81526004016106db939291906111f8565b600060405180830381600087803b1580156106f557600080fd5b505af1158015610709573d6000803e3d6000fd5b50505050600760029054906101000a900473ffffffffffffffffffffffffffffffffffffffff1673ffffffffffffffffffffffffffffffffffffffff166323b872dd82600260009054906101000a900473ffffffffffffffffffffffffffffffffffffffff166004546040518463ffffffff1660e01b8152600401610790939291906111f8565b6020604051808303816000875af11580156107af573d6000803e3d6000fd5b505050506040513d601f19601f820116820180604052508101906107d3919061125b565b5080600360006101000a81548173ffffffffffffffffffffffffffffffffffffffff021916908373ffffffffffffffffffffffffffffffffffffffff16021790555061081d610a44565b50565b6000600760019054906101000a900460ff16905090565b6000600554905090565b6000600360009054906101000a900473ffffffffffffffffffffffffffffffffffffffff16905090565b610873610aeb565b61087d6000610b69565b565b6000600760029054906101000a900473ffffffffffffffffffffffffffffffffffffffff1673ffffffffffffffffffffffffffffffffffffffff166370a08231306040518263ffffffff1660e01b81526004016108dc9190610f98565b602060405180830381865afa1580156108f9573d6000803e3d6000fd5b505050506040513d601f19601f8201168201806040525081019061091d919061115f565b905090565b60008060009054906101000a900473ffffffffffffffffffffffffffffffffffffffff16905090565b6000600454905090565b6000600260009054906101000a900473ffffffffffffffffffffffffffffffffffffffff16905090565b600760009054906101000a900460ff16156109cf576040517f08c379a00000000000000000000000000000000000000000000000000000000081526004016109c69061107c565b60405180910390fd5b600760019054906101000a900460ff1615610a1f576040517f08c379a0000000000000000000000000000000000000000000000000000000008152600401610a16906112d4565b60405180910390fd5b6001600760016101000a81548160ff021916908315150217905550610a42610a44565b565b426006819055506001600760006101000a81548160ff021916908315150217905550565b610a70610aeb565b600073ffffffffffffffffffffffffffffffffffffffff168173ffffffffffffffffffffffffffffffffffffffff1603610adf576040517f08c379a0000000000000000000000000000000000000000000000000000000008152600401610ad690611366565b60405180910390fd5b610ae881610b69565b50565b610af3610c2d565b73ffffffffffffffffffffffffffffffffffffffff16610b11610922565b73ffffffffffffffffffffffffffffffffffffffff1614610b67576040517f08c379a0000000000000000000000000000000000000000000000000000000008152600401610b5e906113d2565b60405180910390fd5b565b60008060009054906101000a900473ffffffffffffffffffffffffffffffffffffffff169050816000806101000a81548173ffffffffffffffffffffffffffffffffffffffff021916908373ffffffffffffffffffffffffffffffffffffffff1602179055508173ffffffffffffffffffffffffffffffffffffffff168173ffffffffffffffffffffffffffffffffffffffff167f8be0079c531659141344cd1fd0a4f28419497f9722a3daafe3b4186f6b6457e060405160405180910390a35050565b600033905090565b6000819050919050565b610c4881610c35565b82525050565b6000602082019050610c636000830184610c3f565b92915050565b60008115159050919050565b610c7e81610c69565b82525050565b6000602082019050610c996000830184610c75565b92915050565b6000604051905090565b600080fd5b600080fd5b600073ffffffffffffffffffffffffffffffffffffffff82169050919050565b6000610cde82610cb3565b9050919050565b610cee81610cd3565b8114610cf957600080fd5b50565b600081359050610d0b81610ce5565b92915050565b610d1a81610c35565b8114610d2557600080fd5b50565b600081359050610d3781610d11565b92915050565b600080fd5b600080fd5b6000601f19601f8301169050919050565b7f4e487b7100000000000000000000000000000000000000000000000000000000600052604160045260246000fd5b610d9082610d47565b810181811067ffffffffffffffff82111715610daf57610dae610d58565b5b80604052505050565b6000610dc2610c9f565b9050610dce8282610d87565b919050565b600067ffffffffffffffff821115610dee57610ded610d58565b5b610df782610d47565b9050602081019050919050565b82818337600083830152505050565b6000610e26610e2184610dd3565b610db8565b905082815260208101848484011115610e4257610e41610d42565b5b610e4d848285610e04565b509392505050565b600082601f830112610e6a57610e69610d3d565b5b8135610e7a848260208601610e13565b91505092915050565b60008060008060808587031215610e9d57610e9c610ca9565b5b6000610eab87828801610cfc565b9450506020610ebc87828801610cfc565b9350506040610ecd87828801610d28565b925050606085013567ffffffffffffffff811115610eee57610eed610cae565b5b610efa87828801610e55565b91505092959194509250565b60007fffffffff0000000000000000000000000000000000000000000000000000000082169050919050565b610f3b81610f06565b82525050565b6000602082019050610f566000830184610f32565b92915050565b600060208284031215610f7257610f71610ca9565b5b6000610f8084828501610cfc565b91505092915050565b610f9281610cd3565b82525050565b6000602082019050610fad6000830184610f89565b92915050565b600082825260208201905092915050565b7f546869732073616c65206973206e6f7420656e646564207965742e0000000000600082015250565b6000610ffa601b83610fb3565b915061100582610fc4565b602082019050919050565b6000602082019050818103600083015261102981610fed565b9050919050565b7f546869732073616c6520697320616c726561647920656e6465642e0000000000600082015250565b6000611066601b83610fb3565b915061107182611030565b602082019050919050565b6000602082019050818103600083015261109581611059565b9050919050565b6000815190506110ab81610ce5565b92915050565b6000602082840312156110c7576110c6610ca9565b5b60006110d58482850161109c565b91505092915050565b7f73656c6c6572206973206e6f74206f776e657200000000000000000000000000600082015250565b6000611114601383610fb3565b915061111f826110de565b602082019050919050565b6000602082019050818103600083015261114381611107565b9050919050565b60008151905061115981610d11565b92915050565b60006020828403121561117557611174610ca9565b5b60006111838482850161114a565b91505092915050565b7f427579657227732062616c616e6365206973206578686175737465642e000000600082015250565b60006111c2601d83610fb3565b91506111cd8261118c565b602082019050919050565b600060208201905081810360008301526111f1816111b5565b9050919050565b600060608201905061120d6000830186610f89565b61121a6020830185610f89565b6112276040830184610c3f565b949350505050565b61123881610c69565b811461124357600080fd5b50565b6000815190506112558161122f565b92915050565b60006020828403121561127157611270610ca9565b5b600061127f84828501611246565b91505092915050565b7f546869732073616c6520697320616c72656164792063616e63656c65642e0000600082015250565b60006112be601e83610fb3565b91506112c982611288565b602082019050919050565b600060208201905081810360008301526112ed816112b1565b9050919050565b7f4f776e61626c653a206e6577206f776e657220697320746865207a65726f206160008201527f6464726573730000000000000000000000000000000000000000000000000000602082015250565b6000611350602683610fb3565b915061135b826112f4565b604082019050919050565b6000602082019050818103600083015261137f81611343565b9050919050565b7f4f776e61626c653a2063616c6c6572206973206e6f7420746865206f776e6572600082015250565b60006113bc602083610fb3565b91506113c782611386565b602082019050919050565b600060208201905081810360008301526113eb816113af565b905091905056fea26469706673582212202c5c26cf7bed75e58e9ec3d6967a6bb85f2ff242313f7ceccf94ae491dba726864736f6c63430008120033a2646970667358221220ea07fc48d84084f93edf6c50fc51e1d7cf55992f7810f14fc450511869a2a3dd64736f6c63430008120033",
  "immutableReferences": {},
  "source": "// // SPDX-License-Identifier: MIT\r\npragma solidity >=0.7.0 <0.9.0;\r\n\r\n\r\nimport \"@openzeppelin/contracts/access/Ownable.sol\";\r\nimport \"@openzeppelin/contracts/utils/Counters.sol\";\r\nimport \"./Sale.sol\";\r\nimport \"./O2Token.sol\";\r\nimport \"./MARS_NFT.sol\";\r\n\r\n\r\ncontract SaleFactory is Ownable {\r\n    using Counters for Counters.Counter;\r\n\r\n    // Sale ID(1  )\r\n    Counters.Counter private _saleIds;\r\n    // Sale  \r\n    mapping(uint256 => address) private _saleAddrs;\r\n    // NFT \r\n    mapping(uint256 => address) private _saleSellers;\r\n    // NFT \r\n    mapping(uint256 => address) private _saleBuyers;\r\n    //     Sale ID \r\n    mapping(address => uint256[]) private _sellSaleIdsByWallet;\r\n    //     Sale ID \r\n    mapping(address => uint256[]) private _buySaleIdsByWallet;\r\n    //     Sale ID \r\n    mapping(address => uint256[]) private _saleIdsByWallet;\r\n    //  NFT ID  Sale ID \r\n    mapping(uint256 => uint256[]) private _saleIdsOfMARS_NFT;\r\n    //  NFT ID  \r\n    mapping(uint256 => bool) private _saleStatusOfMARS_NFT;\r\n    //  NFT ID   Sale\r\n    mapping(uint256 => uint256) private _currentSaleOfMARS_NFT;\r\n\r\n    // OT    ERC-20   \r\n    address private _O2TokenContractAddress;\r\n    // MARS_NFT   ERC-721   \r\n    address private _MARS_NFTContractAddress;\r\n\r\n    /**\r\n    * constructor\r\n    * Sale   SaleFactory \r\n    * \r\n    * @ param address O2TokenContractAddress O2 (ERC-20)  \r\n    * @ param address MARS_NFTContractAddress NFT(ERC-721)  \r\n    * @ return None\r\n    * @ exception None\r\n    */\r\n    constructor(address O2TokenContractAddress, address MARS_NFTContractAddress) payable {\r\n        _O2TokenContractAddress = O2TokenContractAddress;\r\n        _MARS_NFTContractAddress = MARS_NFTContractAddress;\r\n    }\r\n\r\n    /**\r\n    * createSale\r\n    *  Sale     \r\n    * \r\n    * @ param uint256 MARS_NFT_Id MARS_NFT ID \r\n    * @ param address seller \r\n    * @ param uint256 buyNowPrice   \r\n    * @ param uint256 startedAt   \r\n    * @ return None\r\n    * @ exception    0  \r\n    * @ exception MARS_NFT       \r\n    * @ exception  MARS_NFT  \r\n    */\r\n    function createSale(uint256 MARS_NFT_Id, address seller, uint256 buyNowPrice) public payable {\r\n        require(buyNowPrice > 0, \"Price must be higher than 0.\");\r\n        require(MARS_NFT(_MARS_NFTContractAddress).ownerOf(MARS_NFT_Id) == seller, \"Seller is not owner.\");\r\n        require(!_saleStatusOfMARS_NFT[MARS_NFT_Id], \"This MARS_NFT is already on sale.\");\r\n\r\n        //  Sale ID \r\n        _saleIds.increment();\r\n        uint256 newSaleId = _saleIds.current();\r\n        \r\n        //  Sale  \r\n        Sale newSale = new Sale(MARS_NFT_Id, seller, buyNowPrice, block.timestamp, _O2TokenContractAddress, _MARS_NFTContractAddress);\r\n\r\n        //  Sale    MARS_NFT    \r\n        MARS_NFT(_MARS_NFTContractAddress).approveTo(address(newSale), MARS_NFT_Id);\r\n\r\n        // Sale   \r\n        _saleAddrs[newSaleId] = address(newSale);\r\n        _saleSellers[newSaleId] = seller;\r\n        _sellSaleIdsByWallet[seller].push(newSaleId);\r\n        _saleIdsByWallet[seller].push(newSaleId);\r\n        _saleIdsOfMARS_NFT[MARS_NFT_Id].push(newSaleId);\r\n        _saleStatusOfMARS_NFT[MARS_NFT_Id] = true;\r\n        _currentSaleOfMARS_NFT[MARS_NFT_Id] = newSaleId;\r\n    }\r\n\r\n    /**\r\n    * cancelSale\r\n    *  Sale   .\r\n    * \r\n    * @ param uint256 saleId  Sale ID\r\n    * @ return None\r\n    * @ exception  Sale  \r\n    * @ exception  Sale   \r\n    */\r\n    function cancelSale(uint256 saleId) public {\r\n        Sale canceledSale = Sale(_saleAddrs[saleId]);\r\n        require(!canceledSale.getIsEnded(), \"This sale is already ended.\");\r\n        require(!canceledSale.getIsCanceled(), \"This sale is already canceled.\");\r\n\r\n        canceledSale.cancel();\r\n\r\n        _saleStatusOfMARS_NFT[canceledSale.getMARS_NFT_Id()] = false;\r\n    }\r\n\r\n\r\n    /**\r\n    * buyNow\r\n    * Sale      .\r\n    *    .\r\n    * \r\n    * @ param uint256 saleId Sale ID\r\n    * @ param address buyer   \r\n    * @ return None\r\n    * @ exception    \r\n    * @ exception  MARS_NFT  \r\n    * @ exception         \r\n    */\r\n\r\n    function buyNow(uint256 saleId, address buyer) public payable {\r\n        Sale finishedSale = Sale(_saleAddrs[saleId]);\r\n        require(!finishedSale.getIsEnded(), \"This sale is already ended.\");\r\n        require(MARS_NFT(_MARS_NFTContractAddress).ownerOf(finishedSale.getMARS_NFT_Id()) != buyer, \"Buyer must non equal owner of the token.\");\r\n        require(MARS_NFT(_MARS_NFTContractAddress).ownerOf(finishedSale.getMARS_NFT_Id()) == finishedSale.getSeller(), \"Seller must equal owner of the token.\");\r\n        require(O2Token(_O2TokenContractAddress).balanceOf(buyer) >= finishedSale.getPrice(), \"Buyer's balance is exhausted......\");\r\n\r\n        finishedSale.buyNow(buyer);\r\n\r\n        reportBuyer(saleId, buyer);\r\n        _saleStatusOfMARS_NFT[finishedSale.getMARS_NFT_Id()] = false;\r\n    }\r\n\r\n    /** \r\n    * reportBuyer\r\n    * Sale     \r\n    * \r\n    * @ param uint256 endedSaleId  Sale Id\r\n    * @ param address saleBuyer \r\n    * @ return None\r\n    * @ exception None\r\n    */\r\n    function reportBuyer(uint256 endedSaleId, address saleBuyer) private {\r\n        _saleBuyers[endedSaleId] = saleBuyer;\r\n        _buySaleIdsByWallet[saleBuyer].push(endedSaleId);\r\n        _saleIdsByWallet[saleBuyer].push(endedSaleId);\r\n    }\r\n\r\n    function getSale(uint256 saleId) public view returns(address) {\r\n        return _saleAddrs[saleId];\r\n    }\r\n\r\n    function getSeller(uint256 saleId) public view returns(address) {\r\n        return _saleSellers[saleId];\r\n    }\r\n\r\n    function getBuyer(uint256 saleId) public view returns(address) {\r\n        require(_saleBuyers[saleId] != address(0), \"This sale is proceeding or canceled.\");\r\n\r\n        return _saleBuyers[saleId];\r\n    }\r\n\r\n    function getSellIdsByWallet(address seller) public view returns(uint256[] memory) {\r\n        return _sellSaleIdsByWallet[seller];\r\n    }\r\n\r\n    function getBuyIdsByWallet(address buyer) public view returns(uint256[] memory) {\r\n        return _buySaleIdsByWallet[buyer];\r\n    }\r\n\r\n    function getSaleIdsByWallet(address walletAddr) public view returns(uint256[] memory) {\r\n        return _saleIdsByWallet[walletAddr];\r\n    }\r\n\r\n    function getSaleIdsOfMARS_NFT(uint256 MARS_NFT_Id) public view returns(uint256[] memory) {\r\n        return _saleIdsOfMARS_NFT[MARS_NFT_Id];\r\n    }\r\n\r\n    function getSaleStatusOfMARS_NFT(uint256 MARS_NFT_Id) public view returns(bool) {\r\n        return _saleStatusOfMARS_NFT[MARS_NFT_Id];\r\n    }\r\n\r\n    function getCurrentSaleOfMARS_NFT(uint256 MARS_NFT_Id) public view returns(uint256) {\r\n        require(_saleStatusOfMARS_NFT[MARS_NFT_Id], \"This MARS_NFT is not on sale.\");\r\n        return _currentSaleOfMARS_NFT[MARS_NFT_Id];\r\n    }\r\n}\r\n",
  "sourcePath": "D:\\Desktop\\SSAFY_PJT\\S08P22E207\\truffle\\contracts\\SaleFactory.sol",
  "compiler": {
    "name": "solc",
    "version": "0.8.18+commit.87f61d96.Emscripten.clang"
  },
  "schemaVersion": "3.4.12",
  "updatedAt": "2023-04-05T11:34:27.563Z",
  "networkType": "ethereum",
  "devdoc": {
    "kind": "dev",
    "methods": {
      "owner()": {
        "details": "Returns the address of the current owner."
      },
      "renounceOwnership()": {
        "details": "Leaves the contract without owner. It will not be possible to call `onlyOwner` functions anymore. Can only be called by the current owner. NOTE: Renouncing ownership will leave the contract without an owner, thereby removing any functionality that is only available to the owner."
      },
      "transferOwnership(address)": {
        "details": "Transfers ownership of the contract to a new account (`newOwner`). Can only be called by the current owner."
      }
    },
    "version": 1
  },
  "userdoc": {
    "kind": "user",
    "methods": {
      "buyNow(uint256,address)": {
        "notice": "buyNow Sale      .    .  param uint256 saleId Sale ID param address buyer    return None exception     exception  MARS_NFT   exception         "
      },
      "cancelSale(uint256)": {
        "notice": "cancelSale  Sale   .  param uint256 saleId  Sale ID return None exception  Sale   exception  Sale   "
      },
      "constructor": {
        "notice": "constructor Sale   SaleFactory   param address O2TokenContractAddress O2 (ERC-20)   param address MARS_NFTContractAddress NFT(ERC-721)   return None exception None"
      },
      "createSale(uint256,address,uint256)": {
        "notice": "createSale  Sale       param uint256 MARS_NFT_Id MARS_NFT ID  param address seller  param uint256 buyNowPrice    param uint256 startedAt    return None exception    0   exception MARS_NFT        exception  MARS_NFT  "
      }
    },
    "version": 1
  }
}