{
  "contractName": "SaleFactory",
  "abi": [
    {
      "inputs": [
        {
          "internalType": "address",
          "name": "O2TokenContractAddress",
          "type": "address"
        },
        {
          "internalType": "address",
          "name": "MARS_NFTContractAddress",
          "type": "address"
        }
      ],
      "stateMutability": "payable",
      "type": "constructor",
      "payable": true
    },
    {
      "anonymous": false,
      "inputs": [
        {
          "indexed": true,
          "internalType": "address",
          "name": "previousOwner",
          "type": "address"
        },
        {
          "indexed": true,
          "internalType": "address",
          "name": "newOwner",
          "type": "address"
        }
      ],
      "name": "OwnershipTransferred",
      "type": "event"
    },
    {
      "inputs": [],
      "name": "owner",
      "outputs": [
        {
          "internalType": "address",
          "name": "",
          "type": "address"
        }
      ],
      "stateMutability": "view",
      "type": "function",
      "constant": true
    },
    {
      "inputs": [],
      "name": "renounceOwnership",
      "outputs": [],
      "stateMutability": "nonpayable",
      "type": "function"
    },
    {
      "inputs": [
        {
          "internalType": "address",
          "name": "newOwner",
          "type": "address"
        }
      ],
      "name": "transferOwnership",
      "outputs": [],
      "stateMutability": "nonpayable",
      "type": "function"
    },
    {
      "inputs": [
        {
          "internalType": "uint256",
          "name": "MARS_NFT_Id",
          "type": "uint256"
        },
        {
          "internalType": "address",
          "name": "seller",
          "type": "address"
        },
        {
          "internalType": "uint256",
          "name": "buyNowPrice",
          "type": "uint256"
        }
      ],
      "name": "createSale",
      "outputs": [],
      "stateMutability": "payable",
      "type": "function",
      "payable": true
    },
    {
      "inputs": [
        {
          "internalType": "uint256",
          "name": "saleId",
          "type": "uint256"
        }
      ],
      "name": "cancelSale",
      "outputs": [],
      "stateMutability": "nonpayable",
      "type": "function"
    },
    {
      "inputs": [
        {
          "internalType": "uint256",
          "name": "saleId",
          "type": "uint256"
        }
      ],
      "name": "SalePrice",
      "outputs": [
        {
          "internalType": "uint256",
          "name": "",
          "type": "uint256"
        }
      ],
      "stateMutability": "view",
      "type": "function",
      "constant": true
    },
    {
      "inputs": [
        {
          "internalType": "address",
          "name": "buyer",
          "type": "address"
        }
      ],
      "name": "buyerBal",
      "outputs": [
        {
          "internalType": "uint256",
          "name": "",
          "type": "uint256"
        }
      ],
      "stateMutability": "view",
      "type": "function",
      "constant": true
    },
    {
      "inputs": [
        {
          "internalType": "uint256",
          "name": "saleId",
          "type": "uint256"
        },
        {
          "internalType": "address",
          "name": "buyer",
          "type": "address"
        }
      ],
      "name": "buyNow",
      "outputs": [],
      "stateMutability": "payable",
      "type": "function",
      "payable": true
    },
    {
      "inputs": [
        {
          "internalType": "uint256",
          "name": "saleId",
          "type": "uint256"
        }
      ],
      "name": "getSale",
      "outputs": [
        {
          "internalType": "address",
          "name": "",
          "type": "address"
        }
      ],
      "stateMutability": "view",
      "type": "function",
      "constant": true
    },
    {
      "inputs": [
        {
          "internalType": "uint256",
          "name": "saleId",
          "type": "uint256"
        }
      ],
      "name": "getSeller",
      "outputs": [
        {
          "internalType": "address",
          "name": "",
          "type": "address"
        }
      ],
      "stateMutability": "view",
      "type": "function",
      "constant": true
    },
    {
      "inputs": [
        {
          "internalType": "uint256",
          "name": "saleId",
          "type": "uint256"
        }
      ],
      "name": "getBuyer",
      "outputs": [
        {
          "internalType": "address",
          "name": "",
          "type": "address"
        }
      ],
      "stateMutability": "view",
      "type": "function",
      "constant": true
    },
    {
      "inputs": [
        {
          "internalType": "address",
          "name": "seller",
          "type": "address"
        }
      ],
      "name": "getSellIdsByWallet",
      "outputs": [
        {
          "internalType": "uint256[]",
          "name": "",
          "type": "uint256[]"
        }
      ],
      "stateMutability": "view",
      "type": "function",
      "constant": true
    },
    {
      "inputs": [
        {
          "internalType": "address",
          "name": "buyer",
          "type": "address"
        }
      ],
      "name": "getBuyIdsByWallet",
      "outputs": [
        {
          "internalType": "uint256[]",
          "name": "",
          "type": "uint256[]"
        }
      ],
      "stateMutability": "view",
      "type": "function",
      "constant": true
    },
    {
      "inputs": [
        {
          "internalType": "address",
          "name": "walletAddr",
          "type": "address"
        }
      ],
      "name": "getSaleIdsByWallet",
      "outputs": [
        {
          "internalType": "uint256[]",
          "name": "",
          "type": "uint256[]"
        }
      ],
      "stateMutability": "view",
      "type": "function",
      "constant": true
    },
    {
      "inputs": [
        {
          "internalType": "uint256",
          "name": "MARS_NFT_Id",
          "type": "uint256"
        }
      ],
      "name": "getSaleIdsOfMARS_NFT",
      "outputs": [
        {
          "internalType": "uint256[]",
          "name": "",
          "type": "uint256[]"
        }
      ],
      "stateMutability": "view",
      "type": "function",
      "constant": true
    },
    {
      "inputs": [
        {
          "internalType": "uint256",
          "name": "MARS_NFT_Id",
          "type": "uint256"
        }
      ],
      "name": "getSaleStatusOfMARS_NFT",
      "outputs": [
        {
          "internalType": "bool",
          "name": "",
          "type": "bool"
        }
      ],
      "stateMutability": "view",
      "type": "function",
      "constant": true
    },
    {
      "inputs": [
        {
          "internalType": "uint256",
          "name": "MARS_NFT_Id",
          "type": "uint256"
        }
      ],
      "name": "getCurrentSaleOfMARS_NFT",
      "outputs": [
        {
          "internalType": "uint256",
          "name": "",
          "type": "uint256"
        }
      ],
      "stateMutability": "view",
      "type": "function",
      "constant": true
    }
  ],
  "bytecode": "0x60806040526040516200443d3803806200443d833981810160405281019062000029919062000209565b620000496200003d620000d360201b60201c565b620000db60201b60201c565b81600b60006101000a81548173ffffffffffffffffffffffffffffffffffffffff021916908373ffffffffffffffffffffffffffffffffffffffff16021790555080600c60006101000a81548173ffffffffffffffffffffffffffffffffffffffff021916908373ffffffffffffffffffffffffffffffffffffffff160217905550505062000250565b600033905090565b60008060009054906101000a900473ffffffffffffffffffffffffffffffffffffffff169050816000806101000a81548173ffffffffffffffffffffffffffffffffffffffff021916908373ffffffffffffffffffffffffffffffffffffffff1602179055508173ffffffffffffffffffffffffffffffffffffffff168173ffffffffffffffffffffffffffffffffffffffff167f8be0079c531659141344cd1fd0a4f28419497f9722a3daafe3b4186f6b6457e060405160405180910390a35050565b600080fd5b600073ffffffffffffffffffffffffffffffffffffffff82169050919050565b6000620001d182620001a4565b9050919050565b620001e381620001c4565b8114620001ef57600080fd5b50565b6000815190506200020381620001d8565b92915050565b600080604083850312156200022357620002226200019f565b5b60006200023385828601620001f2565b92505060206200024685828601620001f2565b9150509250929050565b6141dd80620002606000396000f3fe608060405260043610620001165760003560e01c806385f30db911620000a3578063bd94b005116200006d578063bd94b00514620003c5578063cbe844e614620003f3578063d6a9de511462000437578063d8f6d596146200047b578063f2fde38b14620004bf5762000116565b806385f30db914620002ed5780638d8fc61514620003315780638da5cb5b14620003755780638f34725714620003a55762000116565b80635bf608b811620000e55780635bf608b814620002075780635e8fbeed146200024b5780636f8556d6146200028f578063715018a614620002d35762000116565b8063075ec4ae146200011b5780633fb611f8146200015f5780634336d07b14620001a357806347ab209014620001e7575b600080fd5b3480156200012857600080fd5b5062000147600480360381019062000141919062001c97565b620004ed565b60405162000156919062001cda565b60405180910390f35b3480156200016c57600080fd5b506200018b600480360381019062000185919062001d5c565b6200056d565b6040516200019a919062001cda565b60405180910390f35b348015620001b057600080fd5b50620001cf6004803603810190620001c9919062001c97565b62000617565b604051620001de919062001e5c565b60405180910390f35b620002056004803603810190620001ff919062001e80565b62000684565b005b3480156200021457600080fd5b506200023360048036038101906200022d919062001c97565b62000b6e565b60405162000242919062001eed565b60405180910390f35b3480156200025857600080fd5b5062000277600480360381019062000271919062001d5c565b62000c4f565b60405162000286919062001e5c565b60405180910390f35b3480156200029c57600080fd5b50620002bb6004803603810190620002b5919062001d5c565b62000ce8565b604051620002ca919062001e5c565b60405180910390f35b348015620002e057600080fd5b50620002eb62000d81565b005b348015620002fa57600080fd5b5062000319600480360381019062000313919062001c97565b62000d99565b60405162000328919062001cda565b60405180910390f35b3480156200033e57600080fd5b506200035d600480360381019062000357919062001d5c565b62000e47565b6040516200036c919062001e5c565b60405180910390f35b3480156200038257600080fd5b506200038d62000ee0565b6040516200039c919062001eed565b60405180910390f35b620003c36004803603810190620003bd919062001f0a565b62000f09565b005b348015620003d257600080fd5b50620003f16004803603810190620003eb919062001c97565b620015df565b005b3480156200040057600080fd5b506200041f600480360381019062000419919062001c97565b62001884565b6040516200042e919062001f6e565b60405180910390f35b3480156200044457600080fd5b506200046360048036038101906200045d919062001c97565b620018ae565b60405162000472919062001eed565b60405180910390f35b3480156200048857600080fd5b50620004a76004803603810190620004a1919062001c97565b620018eb565b604051620004b6919062001eed565b60405180910390f35b348015620004cc57600080fd5b50620004eb6004803603810190620004e5919062001d5c565b62001928565b005b60006009600083815260200190815260200160002060009054906101000a900460ff1662000552576040517f08c379a0000000000000000000000000000000000000000000000000000000008152600401620005499062001fec565b60405180910390fd5b600a6000838152602001908152602001600020549050919050565b6000600b60009054906101000a900473ffffffffffffffffffffffffffffffffffffffff1673ffffffffffffffffffffffffffffffffffffffff166370a08231836040518263ffffffff1660e01b8152600401620005cc919062001eed565b602060405180830381865afa158015620005ea573d6000803e3d6000fd5b505050506040513d601f19601f8201168201806040525081019062000610919062002025565b9050919050565b6060600860008381526020019081526020016000208054806020026020016040519081016040528092919081815260200182805480156200067857602002820191906000526020600020905b81548152602001906001019080831162000663575b50505050509050919050565b60008111620006ca576040517f08c379a0000000000000000000000000000000000000000000000000000000008152600401620006c190620020a7565b60405180910390fd5b8173ffffffffffffffffffffffffffffffffffffffff16600c60009054906101000a900473ffffffffffffffffffffffffffffffffffffffff1673ffffffffffffffffffffffffffffffffffffffff16636352211e856040518263ffffffff1660e01b81526004016200073e919062001cda565b602060405180830381865afa1580156200075c573d6000803e3d6000fd5b505050506040513d601f19601f82011682018060405250810190620007829190620020e0565b73ffffffffffffffffffffffffffffffffffffffff1614620007db576040517f08c379a0000000000000000000000000000000000000000000000000000000008152600401620007d29062002162565b60405180910390fd5b6009600084815260200190815260200160002060009054906101000a900460ff16156200083f576040517f08c379a00000000000000000000000000000000000000000000000000000000081526004016200083690620021fa565b60405180910390fd5b6200084b6001620019b2565b6000620008596001620019c8565b9050600084848442600b60009054906101000a900473ffffffffffffffffffffffffffffffffffffffff16600c60009054906101000a900473ffffffffffffffffffffffffffffffffffffffff16604051620008b59062001c49565b620008c6969594939291906200221c565b604051809103906000f080158015620008e3573d6000803e3d6000fd5b509050600c60009054906101000a900473ffffffffffffffffffffffffffffffffffffffff1673ffffffffffffffffffffffffffffffffffffffff16631f64e71f82876040518363ffffffff1660e01b81526004016200094592919062002289565b600060405180830381600087803b1580156200096057600080fd5b505af115801562000975573d6000803e3d6000fd5b50505050806002600084815260200190815260200160002060006101000a81548173ffffffffffffffffffffffffffffffffffffffff021916908373ffffffffffffffffffffffffffffffffffffffff160217905550836003600084815260200190815260200160002060006101000a81548173ffffffffffffffffffffffffffffffffffffffff021916908373ffffffffffffffffffffffffffffffffffffffff160217905550600560008573ffffffffffffffffffffffffffffffffffffffff1673ffffffffffffffffffffffffffffffffffffffff168152602001908152602001600020829080600181540180825580915050600190039060005260206000200160009091909190915055600760008573ffffffffffffffffffffffffffffffffffffffff1673ffffffffffffffffffffffffffffffffffffffff1681526020019081526020016000208290806001815401808255809150506001900390600052602060002001600090919091909150556008600086815260200190815260200160002082908060018154018082558091505060019003906000526020600020016000909190919091505560016009600087815260200190815260200160002060006101000a81548160ff02191690831515021790555081600a6000878152602001908152602001600020819055505050505050565b60008073ffffffffffffffffffffffffffffffffffffffff166004600084815260200190815260200160002060009054906101000a900473ffffffffffffffffffffffffffffffffffffffff1673ffffffffffffffffffffffffffffffffffffffff160362000c14576040517f08c379a000000000000000000000000000000000000000000000000000000000815260040162000c0b906200232c565b60405180910390fd5b6004600083815260200190815260200160002060009054906101000a900473ffffffffffffffffffffffffffffffffffffffff169050919050565b6060600760008373ffffffffffffffffffffffffffffffffffffffff1673ffffffffffffffffffffffffffffffffffffffff16815260200190815260200160002080548060200260200160405190810160405280929190818152602001828054801562000cdc57602002820191906000526020600020905b81548152602001906001019080831162000cc7575b50505050509050919050565b6060600560008373ffffffffffffffffffffffffffffffffffffffff1673ffffffffffffffffffffffffffffffffffffffff16815260200190815260200160002080548060200260200160405190810160405280929190818152602001828054801562000d7557602002820191906000526020600020905b81548152602001906001019080831162000d60575b50505050509050919050565b62000d8b620019d6565b62000d97600062001a5b565b565b60006002600083815260200190815260200160002060009054906101000a900473ffffffffffffffffffffffffffffffffffffffff1673ffffffffffffffffffffffffffffffffffffffff166398d5fdca6040518163ffffffff1660e01b8152600401602060405180830381865afa15801562000e1a573d6000803e3d6000fd5b505050506040513d601f19601f8201168201806040525081019062000e40919062002025565b9050919050565b6060600660008373ffffffffffffffffffffffffffffffffffffffff1673ffffffffffffffffffffffffffffffffffffffff16815260200190815260200160002080548060200260200160405190810160405280929190818152602001828054801562000ed457602002820191906000526020600020905b81548152602001906001019080831162000ebf575b50505050509050919050565b60008060009054906101000a900473ffffffffffffffffffffffffffffffffffffffff16905090565b60006002600084815260200190815260200160002060009054906101000a900473ffffffffffffffffffffffffffffffffffffffff1690508073ffffffffffffffffffffffffffffffffffffffff16630a03d71e6040518163ffffffff1660e01b8152600401602060405180830381865afa15801562000f8d573d6000803e3d6000fd5b505050506040513d601f19601f8201168201806040525081019062000fb391906200237f565b1562000ff6576040517f08c379a000000000000000000000000000000000000000000000000000000000815260040162000fed9062002401565b60405180910390fd5b8173ffffffffffffffffffffffffffffffffffffffff16600c60009054906101000a900473ffffffffffffffffffffffffffffffffffffffff1673ffffffffffffffffffffffffffffffffffffffff16636352211e8373ffffffffffffffffffffffffffffffffffffffff1663089de03d6040518163ffffffff1660e01b8152600401602060405180830381865afa15801562001097573d6000803e3d6000fd5b505050506040513d601f19601f82011682018060405250810190620010bd919062002025565b6040518263ffffffff1660e01b8152600401620010db919062001cda565b602060405180830381865afa158015620010f9573d6000803e3d6000fd5b505050506040513d601f19601f820116820180604052508101906200111f9190620020e0565b73ffffffffffffffffffffffffffffffffffffffff160362001178576040517f08c379a00000000000000000000000000000000000000000000000000000000081526004016200116f9062002499565b60405180910390fd5b8073ffffffffffffffffffffffffffffffffffffffff1663dbd0e1b66040518163ffffffff1660e01b8152600401602060405180830381865afa158015620011c4573d6000803e3d6000fd5b505050506040513d601f19601f82011682018060405250810190620011ea9190620020e0565b73ffffffffffffffffffffffffffffffffffffffff16600c60009054906101000a900473ffffffffffffffffffffffffffffffffffffffff1673ffffffffffffffffffffffffffffffffffffffff16636352211e8373ffffffffffffffffffffffffffffffffffffffff1663089de03d6040518163ffffffff1660e01b8152600401602060405180830381865afa1580156200128a573d6000803e3d6000fd5b505050506040513d601f19601f82011682018060405250810190620012b0919062002025565b6040518263ffffffff1660e01b8152600401620012ce919062001cda565b602060405180830381865afa158015620012ec573d6000803e3d6000fd5b505050506040513d601f19601f82011682018060405250810190620013129190620020e0565b73ffffffffffffffffffffffffffffffffffffffff16146200136b576040517f08c379a0000000000000000000000000000000000000000000000000000000008152600401620013629062002531565b60405180910390fd5b8073ffffffffffffffffffffffffffffffffffffffff166398d5fdca6040518163ffffffff1660e01b8152600401602060405180830381865afa158015620013b7573d6000803e3d6000fd5b505050506040513d601f19601f82011682018060405250810190620013dd919062002025565b600b60009054906101000a900473ffffffffffffffffffffffffffffffffffffffff1673ffffffffffffffffffffffffffffffffffffffff166370a08231846040518263ffffffff1660e01b81526004016200143a919062001eed565b602060405180830381865afa15801562001458573d6000803e3d6000fd5b505050506040513d601f19601f820116820180604052508101906200147e919062002025565b1015620014c2576040517f08c379a0000000000000000000000000000000000000000000000000000000008152600401620014b990620025c9565b60405180910390fd5b8073ffffffffffffffffffffffffffffffffffffffff16631d8bbc3f836040518263ffffffff1660e01b8152600401620014fd919062001eed565b600060405180830381600087803b1580156200151857600080fd5b505af11580156200152d573d6000803e3d6000fd5b505050506200153d838362001b1f565b6000600960008373ffffffffffffffffffffffffffffffffffffffff1663089de03d6040518163ffffffff1660e01b8152600401602060405180830381865afa1580156200158f573d6000803e3d6000fd5b505050506040513d601f19601f82011682018060405250810190620015b5919062002025565b815260200190815260200160002060006101000a81548160ff021916908315150217905550505050565b60006002600083815260200190815260200160002060009054906101000a900473ffffffffffffffffffffffffffffffffffffffff1690508073ffffffffffffffffffffffffffffffffffffffff16630a03d71e6040518163ffffffff1660e01b8152600401602060405180830381865afa15801562001663573d6000803e3d6000fd5b505050506040513d601f19601f820116820180604052508101906200168991906200237f565b15620016cc576040517f08c379a0000000000000000000000000000000000000000000000000000000008152600401620016c39062002401565b60405180910390fd5b8073ffffffffffffffffffffffffffffffffffffffff16632a0e1c4f6040518163ffffffff1660e01b8152600401602060405180830381865afa15801562001718573d6000803e3d6000fd5b505050506040513d601f19601f820116820180604052508101906200173e91906200237f565b1562001781576040517f08c379a000000000000000000000000000000000000000000000000000000000815260040162001778906200263b565b60405180910390fd5b8073ffffffffffffffffffffffffffffffffffffffff1663ea8a1af06040518163ffffffff1660e01b8152600401600060405180830381600087803b158015620017ca57600080fd5b505af1158015620017df573d6000803e3d6000fd5b505050506000600960008373ffffffffffffffffffffffffffffffffffffffff1663089de03d6040518163ffffffff1660e01b8152600401602060405180830381865afa15801562001835573d6000803e3d6000fd5b505050506040513d601f19601f820116820180604052508101906200185b919062002025565b815260200190815260200160002060006101000a81548160ff0219169083151502179055505050565b60006009600083815260200190815260200160002060009054906101000a900460ff169050919050565b60006003600083815260200190815260200160002060009054906101000a900473ffffffffffffffffffffffffffffffffffffffff169050919050565b60006002600083815260200190815260200160002060009054906101000a900473ffffffffffffffffffffffffffffffffffffffff169050919050565b62001932620019d6565b600073ffffffffffffffffffffffffffffffffffffffff168173ffffffffffffffffffffffffffffffffffffffff1603620019a4576040517f08c379a00000000000000000000000000000000000000000000000000000000081526004016200199b90620026d3565b60405180910390fd5b620019af8162001a5b565b50565b6001816000016000828254019250508190555050565b600081600001549050919050565b620019e062001c41565b73ffffffffffffffffffffffffffffffffffffffff1662001a0062000ee0565b73ffffffffffffffffffffffffffffffffffffffff161462001a59576040517f08c379a000000000000000000000000000000000000000000000000000000000815260040162001a509062002745565b60405180910390fd5b565b60008060009054906101000a900473ffffffffffffffffffffffffffffffffffffffff169050816000806101000a81548173ffffffffffffffffffffffffffffffffffffffff021916908373ffffffffffffffffffffffffffffffffffffffff1602179055508173ffffffffffffffffffffffffffffffffffffffff168173ffffffffffffffffffffffffffffffffffffffff167f8be0079c531659141344cd1fd0a4f28419497f9722a3daafe3b4186f6b6457e060405160405180910390a35050565b806004600084815260200190815260200160002060006101000a81548173ffffffffffffffffffffffffffffffffffffffff021916908373ffffffffffffffffffffffffffffffffffffffff160217905550600660008273ffffffffffffffffffffffffffffffffffffffff1673ffffffffffffffffffffffffffffffffffffffff168152602001908152602001600020829080600181540180825580915050600190039060005260206000200160009091909190915055600760008273ffffffffffffffffffffffffffffffffffffffff1673ffffffffffffffffffffffffffffffffffffffff1681526020019081526020016000208290806001815401808255809150506001900390600052602060002001600090919091909150555050565b600033905090565b611a40806200276883390190565b600080fd5b6000819050919050565b62001c718162001c5c565b811462001c7d57600080fd5b50565b60008135905062001c918162001c66565b92915050565b60006020828403121562001cb05762001caf62001c57565b5b600062001cc08482850162001c80565b91505092915050565b62001cd48162001c5c565b82525050565b600060208201905062001cf1600083018462001cc9565b92915050565b600073ffffffffffffffffffffffffffffffffffffffff82169050919050565b600062001d248262001cf7565b9050919050565b62001d368162001d17565b811462001d4257600080fd5b50565b60008135905062001d568162001d2b565b92915050565b60006020828403121562001d755762001d7462001c57565b5b600062001d858482850162001d45565b91505092915050565b600081519050919050565b600082825260208201905092915050565b6000819050602082019050919050565b62001dc58162001c5c565b82525050565b600062001dd9838362001dba565b60208301905092915050565b6000602082019050919050565b600062001dff8262001d8e565b62001e0b818562001d99565b935062001e188362001daa565b8060005b8381101562001e4f57815162001e33888262001dcb565b975062001e408362001de5565b92505060018101905062001e1c565b5085935050505092915050565b6000602082019050818103600083015262001e78818462001df2565b905092915050565b60008060006060848603121562001e9c5762001e9b62001c57565b5b600062001eac8682870162001c80565b935050602062001ebf8682870162001d45565b925050604062001ed28682870162001c80565b9150509250925092565b62001ee78162001d17565b82525050565b600060208201905062001f04600083018462001edc565b92915050565b6000806040838503121562001f245762001f2362001c57565b5b600062001f348582860162001c80565b925050602062001f478582860162001d45565b9150509250929050565b60008115159050919050565b62001f688162001f51565b82525050565b600060208201905062001f85600083018462001f5d565b92915050565b600082825260208201905092915050565b7f54686973204d4152535f4e4654206973206e6f74206f6e2073616c652e000000600082015250565b600062001fd4601d8362001f8b565b915062001fe18262001f9c565b602082019050919050565b60006020820190508181036000830152620020078162001fc5565b9050919050565b6000815190506200201f8162001c66565b92915050565b6000602082840312156200203e576200203d62001c57565b5b60006200204e848285016200200e565b91505092915050565b7f5072696365206d75737420626520686967686572207468616e20302e00000000600082015250565b60006200208f601c8362001f8b565b91506200209c8262002057565b602082019050919050565b60006020820190508181036000830152620020c28162002080565b9050919050565b600081519050620020da8162001d2b565b92915050565b600060208284031215620020f957620020f862001c57565b5b60006200210984828501620020c9565b91505092915050565b7f53656c6c6572206973206e6f74206f776e65722e000000000000000000000000600082015250565b60006200214a60148362001f8b565b9150620021578262002112565b602082019050919050565b600060208201905081810360008301526200217d816200213b565b9050919050565b7f54686973204d4152535f4e465420697320616c7265616479206f6e2073616c6560008201527f2e00000000000000000000000000000000000000000000000000000000000000602082015250565b6000620021e260218362001f8b565b9150620021ef8262002184565b604082019050919050565b600060208201905081810360008301526200221581620021d3565b9050919050565b600060c08201905062002233600083018962001cc9565b62002242602083018862001edc565b62002251604083018762001cc9565b62002260606083018662001cc9565b6200226f608083018562001edc565b6200227e60a083018462001edc565b979650505050505050565b6000604082019050620022a0600083018562001edc565b620022af602083018462001cc9565b9392505050565b7f546869732073616c652069732070726f63656564696e67206f722063616e636560008201527f6c65642e00000000000000000000000000000000000000000000000000000000602082015250565b60006200231460248362001f8b565b91506200232182620022b6565b604082019050919050565b60006020820190508181036000830152620023478162002305565b9050919050565b620023598162001f51565b81146200236557600080fd5b50565b60008151905062002379816200234e565b92915050565b60006020828403121562002398576200239762001c57565b5b6000620023a88482850162002368565b91505092915050565b7f546869732073616c6520697320616c726561647920656e6465642e0000000000600082015250565b6000620023e9601b8362001f8b565b9150620023f682620023b1565b602082019050919050565b600060208201905081810360008301526200241c81620023da565b9050919050565b7f4275796572206d757374206e6f6e20657175616c206f776e6572206f6620746860008201527f6520746f6b656e2e000000000000000000000000000000000000000000000000602082015250565b60006200248160288362001f8b565b91506200248e8262002423565b604082019050919050565b60006020820190508181036000830152620024b48162002472565b9050919050565b7f53656c6c6572206d75737420657175616c206f776e6572206f6620746865207460008201527f6f6b656e2e000000000000000000000000000000000000000000000000000000602082015250565b60006200251960258362001f8b565b91506200252682620024bb565b604082019050919050565b600060208201905081810360008301526200254c816200250a565b9050919050565b7f427579657227732062616c616e6365206973206578686175737465642e2e2e2e60008201527f2e2e000000000000000000000000000000000000000000000000000000000000602082015250565b6000620025b160228362001f8b565b9150620025be8262002553565b604082019050919050565b60006020820190508181036000830152620025e481620025a2565b9050919050565b7f546869732073616c6520697320616c72656164792063616e63656c65642e0000600082015250565b600062002623601e8362001f8b565b91506200263082620025eb565b602082019050919050565b60006020820190508181036000830152620026568162002614565b9050919050565b7f4f776e61626c653a206e6577206f776e657220697320746865207a65726f206160008201527f6464726573730000000000000000000000000000000000000000000000000000602082015250565b6000620026bb60268362001f8b565b9150620026c8826200265d565b604082019050919050565b60006020820190508181036000830152620026ee81620026ac565b9050919050565b7f4f776e61626c653a2063616c6c6572206973206e6f7420746865206f776e6572600082015250565b60006200272d60208362001f8b565b91506200273a82620026f5565b602082019050919050565b6000602082019050818103600083015262002760816200271e565b905091905056fe60806040523480156200001157600080fd5b5060405162001a4038038062001a40833981810160405281019062000037919062000417565b620000576200004b620002a660201b60201c565b620002ae60201b60201c565b600084116200009d576040517f08c379a0000000000000000000000000000000000000000000000000000000008152600401620000949062000514565b60405180910390fd5b8473ffffffffffffffffffffffffffffffffffffffff168173ffffffffffffffffffffffffffffffffffffffff16636352211e886040518263ffffffff1660e01b8152600401620000ef919062000547565b602060405180830381865afa1580156200010d573d6000803e3d6000fd5b505050506040513d601f19601f8201168201806040525081019062000133919062000564565b73ffffffffffffffffffffffffffffffffffffffff16146200018c576040517f08c379a00000000000000000000000000000000000000000000000000000000081526004016200018390620005e6565b60405180910390fd5b8560018190555084600260006101000a81548173ffffffffffffffffffffffffffffffffffffffff021916908373ffffffffffffffffffffffffffffffffffffffff16021790555083600481905550826005819055506000600760006101000a81548160ff0219169083151502179055506000600760016101000a81548160ff02191690831515021790555081600760026101000a81548173ffffffffffffffffffffffffffffffffffffffff021916908373ffffffffffffffffffffffffffffffffffffffff16021790555080600860006101000a81548173ffffffffffffffffffffffffffffffffffffffff021916908373ffffffffffffffffffffffffffffffffffffffff16021790555050505050505062000608565b600033905090565b60008060009054906101000a900473ffffffffffffffffffffffffffffffffffffffff169050816000806101000a81548173ffffffffffffffffffffffffffffffffffffffff021916908373ffffffffffffffffffffffffffffffffffffffff1602179055508173ffffffffffffffffffffffffffffffffffffffff168173ffffffffffffffffffffffffffffffffffffffff167f8be0079c531659141344cd1fd0a4f28419497f9722a3daafe3b4186f6b6457e060405160405180910390a35050565b600080fd5b6000819050919050565b6200038c8162000377565b81146200039857600080fd5b50565b600081519050620003ac8162000381565b92915050565b600073ffffffffffffffffffffffffffffffffffffffff82169050919050565b6000620003df82620003b2565b9050919050565b620003f181620003d2565b8114620003fd57600080fd5b50565b6000815190506200041181620003e6565b92915050565b60008060008060008060c0878903121562000437576200043662000372565b5b60006200044789828a016200039b565b96505060206200045a89828a0162000400565b95505060406200046d89828a016200039b565b94505060606200048089828a016200039b565b93505060806200049389828a0162000400565b92505060a0620004a689828a0162000400565b9150509295509295509295565b600082825260208201905092915050565b7f5072696365206d75737420626520686967686572207468616e20302e00000000600082015250565b6000620004fc601c83620004b3565b91506200050982620004c4565b602082019050919050565b600060208201905081810360008301526200052f81620004ed565b9050919050565b620005418162000377565b82525050565b60006020820190506200055e600083018462000536565b92915050565b6000602082840312156200057d576200057c62000372565b5b60006200058d8482850162000400565b91505092915050565b7f53656c6c6572206973206e6f74206f776e65722e000000000000000000000000600082015250565b6000620005ce601483620004b3565b9150620005db8262000596565b602082019050919050565b600060208201905081810360008301526200060181620005bf565b9050919050565b61142880620006186000396000f3fe6080604052600436106100f35760003560e01c8063715018a61161008a578063dbd0e1b611610059578063dbd0e1b6146102eb578063ea8a1af014610316578063efbe1c1c1461032d578063f2fde38b14610344576100f3565b8063715018a614610253578063722713f71461026a5780638da5cb5b1461029557806398d5fdca146102c0576100f3565b80631d8bbc3f116100c65780631d8bbc3f146101b65780632a0e1c4f146101d257806341fc8d75146101fd578063603daf9a14610228576100f3565b8063089de03d146100f85780630a03d71e14610123578063150b7a021461014e5780631906ab9b1461018b575b600080fd5b34801561010457600080fd5b5061010d61036d565b60405161011a9190610c4e565b60405180910390f35b34801561012f57600080fd5b50610138610377565b6040516101459190610c84565b60405180910390f35b34801561015a57600080fd5b5061017560048036038101906101709190610e83565b61038e565b6040516101829190610f41565b60405180910390f35b34801561019757600080fd5b506101a06103a2565b6040516101ad9190610c4e565b60405180910390f35b6101d060048036038101906101cb9190610f5c565b6103fb565b005b3480156101de57600080fd5b506101e7610820565b6040516101f49190610c84565b60405180910390f35b34801561020957600080fd5b50610212610837565b60405161021f9190610c4e565b60405180910390f35b34801561023457600080fd5b5061023d610841565b60405161024a9190610f98565b60405180910390f35b34801561025f57600080fd5b5061026861086b565b005b34801561027657600080fd5b5061027f61087f565b60405161028c9190610c4e565b60405180910390f35b3480156102a157600080fd5b506102aa610922565b6040516102b79190610f98565b60405180910390f35b3480156102cc57600080fd5b506102d561094b565b6040516102e29190610c4e565b60405180910390f35b3480156102f757600080fd5b50610300610955565b60405161030d9190610f98565b60405180910390f35b34801561032257600080fd5b5061032b61097f565b005b34801561033957600080fd5b50610342610a44565b005b34801561035057600080fd5b5061036b60048036038101906103669190610f5c565b610a68565b005b6000600154905090565b6000600760009054906101000a900460ff16905090565b600063150b7a0260e01b9050949350505050565b6000600760009054906101000a900460ff166103f3576040517f08c379a00000000000000000000000000000000000000000000000000000000081526004016103ea90611010565b60405180910390fd5b600654905090565b600760009054906101000a900460ff161561044b576040517f08c379a00000000000000000000000000000000000000000000000000000000081526004016104429061107c565b60405180910390fd5b600260009054906101000a900473ffffffffffffffffffffffffffffffffffffffff1673ffffffffffffffffffffffffffffffffffffffff16600860009054906101000a900473ffffffffffffffffffffffffffffffffffffffff1673ffffffffffffffffffffffffffffffffffffffff16636352211e6001546040518263ffffffff1660e01b81526004016104e19190610c4e565b602060405180830381865afa1580156104fe573d6000803e3d6000fd5b505050506040513d601f19601f8201168201806040525081019061052291906110b1565b73ffffffffffffffffffffffffffffffffffffffff1614610578576040517f08c379a000000000000000000000000000000000000000000000000000000000815260040161056f9061112a565b60405180910390fd5b600454600760029054906101000a900473ffffffffffffffffffffffffffffffffffffffff1673ffffffffffffffffffffffffffffffffffffffff166370a08231836040518263ffffffff1660e01b81526004016105d69190610f98565b602060405180830381865afa1580156105f3573d6000803e3d6000fd5b505050506040513d601f19601f82011682018060405250810190610617919061115f565b1015610658576040517f08c379a000000000000000000000000000000000000000000000000000000000815260040161064f906111d8565b60405180910390fd5b600860009054906101000a900473ffffffffffffffffffffffffffffffffffffffff1673ffffffffffffffffffffffffffffffffffffffff166342842e0e600260009054906101000a900473ffffffffffffffffffffffffffffffffffffffff16836001546040518463ffffffff1660e01b81526004016106db939291906111f8565b600060405180830381600087803b1580156106f557600080fd5b505af1158015610709573d6000803e3d6000fd5b50505050600760029054906101000a900473ffffffffffffffffffffffffffffffffffffffff1673ffffffffffffffffffffffffffffffffffffffff166323b872dd82600260009054906101000a900473ffffffffffffffffffffffffffffffffffffffff166004546040518463ffffffff1660e01b8152600401610790939291906111f8565b6020604051808303816000875af11580156107af573d6000803e3d6000fd5b505050506040513d601f19601f820116820180604052508101906107d3919061125b565b5080600360006101000a81548173ffffffffffffffffffffffffffffffffffffffff021916908373ffffffffffffffffffffffffffffffffffffffff16021790555061081d610a44565b50565b6000600760019054906101000a900460ff16905090565b6000600554905090565b6000600360009054906101000a900473ffffffffffffffffffffffffffffffffffffffff16905090565b610873610aeb565b61087d6000610b69565b565b6000600760029054906101000a900473ffffffffffffffffffffffffffffffffffffffff1673ffffffffffffffffffffffffffffffffffffffff166370a08231306040518263ffffffff1660e01b81526004016108dc9190610f98565b602060405180830381865afa1580156108f9573d6000803e3d6000fd5b505050506040513d601f19601f8201168201806040525081019061091d919061115f565b905090565b60008060009054906101000a900473ffffffffffffffffffffffffffffffffffffffff16905090565b6000600454905090565b6000600260009054906101000a900473ffffffffffffffffffffffffffffffffffffffff16905090565b600760009054906101000a900460ff16156109cf576040517f08c379a00000000000000000000000000000000000000000000000000000000081526004016109c69061107c565b60405180910390fd5b600760019054906101000a900460ff1615610a1f576040517f08c379a0000000000000000000000000000000000000000000000000000000008152600401610a16906112d4565b60405180910390fd5b6001600760016101000a81548160ff021916908315150217905550610a42610a44565b565b426006819055506001600760006101000a81548160ff021916908315150217905550565b610a70610aeb565b600073ffffffffffffffffffffffffffffffffffffffff168173ffffffffffffffffffffffffffffffffffffffff1603610adf576040517f08c379a0000000000000000000000000000000000000000000000000000000008152600401610ad690611366565b60405180910390fd5b610ae881610b69565b50565b610af3610c2d565b73ffffffffffffffffffffffffffffffffffffffff16610b11610922565b73ffffffffffffffffffffffffffffffffffffffff1614610b67576040517f08c379a0000000000000000000000000000000000000000000000000000000008152600401610b5e906113d2565b60405180910390fd5b565b60008060009054906101000a900473ffffffffffffffffffffffffffffffffffffffff169050816000806101000a81548173ffffffffffffffffffffffffffffffffffffffff021916908373ffffffffffffffffffffffffffffffffffffffff1602179055508173ffffffffffffffffffffffffffffffffffffffff168173ffffffffffffffffffffffffffffffffffffffff167f8be0079c531659141344cd1fd0a4f28419497f9722a3daafe3b4186f6b6457e060405160405180910390a35050565b600033905090565b6000819050919050565b610c4881610c35565b82525050565b6000602082019050610c636000830184610c3f565b92915050565b60008115159050919050565b610c7e81610c69565b82525050565b6000602082019050610c996000830184610c75565b92915050565b6000604051905090565b600080fd5b600080fd5b600073ffffffffffffffffffffffffffffffffffffffff82169050919050565b6000610cde82610cb3565b9050919050565b610cee81610cd3565b8114610cf957600080fd5b50565b600081359050610d0b81610ce5565b92915050565b610d1a81610c35565b8114610d2557600080fd5b50565b600081359050610d3781610d11565b92915050565b600080fd5b600080fd5b6000601f19601f8301169050919050565b7f4e487b7100000000000000000000000000000000000000000000000000000000600052604160045260246000fd5b610d9082610d47565b810181811067ffffffffffffffff82111715610daf57610dae610d58565b5b80604052505050565b6000610dc2610c9f565b9050610dce8282610d87565b919050565b600067ffffffffffffffff821115610dee57610ded610d58565b5b610df782610d47565b9050602081019050919050565b82818337600083830152505050565b6000610e26610e2184610dd3565b610db8565b905082815260208101848484011115610e4257610e41610d42565b5b610e4d848285610e04565b509392505050565b600082601f830112610e6a57610e69610d3d565b5b8135610e7a848260208601610e13565b91505092915050565b60008060008060808587031215610e9d57610e9c610ca9565b5b6000610eab87828801610cfc565b9450506020610ebc87828801610cfc565b9350506040610ecd87828801610d28565b925050606085013567ffffffffffffffff811115610eee57610eed610cae565b5b610efa87828801610e55565b91505092959194509250565b60007fffffffff0000000000000000000000000000000000000000000000000000000082169050919050565b610f3b81610f06565b82525050565b6000602082019050610f566000830184610f32565b92915050565b600060208284031215610f7257610f71610ca9565b5b6000610f8084828501610cfc565b91505092915050565b610f9281610cd3565b82525050565b6000602082019050610fad6000830184610f89565b92915050565b600082825260208201905092915050565b7f546869732073616c65206973206e6f7420656e646564207965742e0000000000600082015250565b6000610ffa601b83610fb3565b915061100582610fc4565b602082019050919050565b6000602082019050818103600083015261102981610fed565b9050919050565b7f546869732073616c6520697320616c726561647920656e6465642e0000000000600082015250565b6000611066601b83610fb3565b915061107182611030565b602082019050919050565b6000602082019050818103600083015261109581611059565b9050919050565b6000815190506110ab81610ce5565b92915050565b6000602082840312156110c7576110c6610ca9565b5b60006110d58482850161109c565b91505092915050565b7f73656c6c6572206973206e6f74206f776e657200000000000000000000000000600082015250565b6000611114601383610fb3565b915061111f826110de565b602082019050919050565b6000602082019050818103600083015261114381611107565b9050919050565b60008151905061115981610d11565b92915050565b60006020828403121561117557611174610ca9565b5b60006111838482850161114a565b91505092915050565b7f427579657227732062616c616e6365206973206578686175737465642e000000600082015250565b60006111c2601d83610fb3565b91506111cd8261118c565b602082019050919050565b600060208201905081810360008301526111f1816111b5565b9050919050565b600060608201905061120d6000830186610f89565b61121a6020830185610f89565b6112276040830184610c3f565b949350505050565b61123881610c69565b811461124357600080fd5b50565b6000815190506112558161122f565b92915050565b60006020828403121561127157611270610ca9565b5b600061127f84828501611246565b91505092915050565b7f546869732073616c6520697320616c72656164792063616e63656c65642e0000600082015250565b60006112be601e83610fb3565b91506112c982611288565b602082019050919050565b600060208201905081810360008301526112ed816112b1565b9050919050565b7f4f776e61626c653a206e6577206f776e657220697320746865207a65726f206160008201527f6464726573730000000000000000000000000000000000000000000000000000602082015250565b6000611350602683610fb3565b915061135b826112f4565b604082019050919050565b6000602082019050818103600083015261137f81611343565b9050919050565b7f4f776e61626c653a2063616c6c6572206973206e6f7420746865206f776e6572600082015250565b60006113bc602083610fb3565b91506113c782611386565b602082019050919050565b600060208201905081810360008301526113eb816113af565b905091905056fea264697066735822122066d9d4412b5447967db7dcf97fe97927c7d18a882a2174344e3e253d073659e564736f6c63430008120033a2646970667358221220349a0d8d7cdde3264f9d8ba05f93f5e53c2c02d625574339c090e9ed480f6bee64736f6c63430008120033",
  "immutableReferences": {},
  "source": "// // SPDX-License-Identifier: MIT\r\npragma solidity >=0.7.0 <0.9.0;\r\n\r\n\r\nimport \"@openzeppelin/contracts/access/Ownable.sol\";\r\nimport \"@openzeppelin/contracts/utils/Counters.sol\";\r\nimport \"./Sale.sol\";\r\nimport \"./O2Token.sol\";\r\nimport \"./MARS_NFT.sol\";\r\n\r\n\r\ncontract SaleFactory is Ownable {\r\n    using Counters for Counters.Counter;\r\n\r\n    // Sale ID(1  )\r\n    Counters.Counter private _saleIds;\r\n    // Sale  \r\n    mapping(uint256 => address) private _saleAddrs;\r\n    // NFT \r\n    mapping(uint256 => address) private _saleSellers;\r\n    // NFT \r\n    mapping(uint256 => address) private _saleBuyers;\r\n    //     Sale ID \r\n    mapping(address => uint256[]) private _sellSaleIdsByWallet;\r\n    //     Sale ID \r\n    mapping(address => uint256[]) private _buySaleIdsByWallet;\r\n    //     Sale ID \r\n    mapping(address => uint256[]) private _saleIdsByWallet;\r\n    //  NFT ID  Sale ID \r\n    mapping(uint256 => uint256[]) private _saleIdsOfMARS_NFT;\r\n    //  NFT ID  \r\n    mapping(uint256 => bool) private _saleStatusOfMARS_NFT;\r\n    //  NFT ID   Sale\r\n    mapping(uint256 => uint256) private _currentSaleOfMARS_NFT;\r\n\r\n    // OT    ERC-20   \r\n    address private _O2TokenContractAddress;\r\n    // MARS_NFT   ERC-721   \r\n    address private _MARS_NFTContractAddress;\r\n\r\n    /**\r\n    * constructor\r\n    * Sale   SaleFactory \r\n    * \r\n    * @ param address O2TokenContractAddress O2 (ERC-20)  \r\n    * @ param address MARS_NFTContractAddress NFT(ERC-721)  \r\n    * @ return None\r\n    * @ exception None\r\n    */\r\n    constructor(address O2TokenContractAddress, address MARS_NFTContractAddress) payable {\r\n        _O2TokenContractAddress = O2TokenContractAddress;\r\n        _MARS_NFTContractAddress = MARS_NFTContractAddress;\r\n    }\r\n\r\n    /**\r\n    * createSale\r\n    *  Sale     \r\n    * \r\n    * @ param uint256 MARS_NFT_Id MARS_NFT ID \r\n    * @ param address seller \r\n    * @ param uint256 buyNowPrice   \r\n    * @ param uint256 startedAt   \r\n    * @ return None\r\n    * @ exception    0  \r\n    * @ exception MARS_NFT       \r\n    * @ exception  MARS_NFT  \r\n    */\r\n    function createSale(uint256 MARS_NFT_Id, address seller, uint256 buyNowPrice) public payable {\r\n        require(buyNowPrice > 0, \"Price must be higher than 0.\");\r\n        require(MARS_NFT(_MARS_NFTContractAddress).ownerOf(MARS_NFT_Id) == seller, \"Seller is not owner.\");\r\n        require(!_saleStatusOfMARS_NFT[MARS_NFT_Id], \"This MARS_NFT is already on sale.\");\r\n\r\n        //  Sale ID \r\n        _saleIds.increment();\r\n        uint256 newSaleId = _saleIds.current();\r\n        \r\n        //  Sale  \r\n        Sale newSale = new Sale(MARS_NFT_Id, seller, buyNowPrice, block.timestamp, _O2TokenContractAddress, _MARS_NFTContractAddress);\r\n\r\n        //  Sale    MARS_NFT    \r\n        MARS_NFT(_MARS_NFTContractAddress).approveTo(address(newSale), MARS_NFT_Id);\r\n\r\n        // Sale   \r\n        _saleAddrs[newSaleId] = address(newSale);\r\n        _saleSellers[newSaleId] = seller;\r\n        _sellSaleIdsByWallet[seller].push(newSaleId);\r\n        _saleIdsByWallet[seller].push(newSaleId);\r\n        _saleIdsOfMARS_NFT[MARS_NFT_Id].push(newSaleId);\r\n        _saleStatusOfMARS_NFT[MARS_NFT_Id] = true;\r\n        _currentSaleOfMARS_NFT[MARS_NFT_Id] = newSaleId;\r\n    }\r\n\r\n    /**\r\n    * cancelSale\r\n    *  Sale   .\r\n    * \r\n    * @ param uint256 saleId  Sale ID\r\n    * @ return None\r\n    * @ exception  Sale  \r\n    * @ exception  Sale   \r\n    */\r\n    function cancelSale(uint256 saleId) public {\r\n        Sale canceledSale = Sale(_saleAddrs[saleId]);\r\n        require(!canceledSale.getIsEnded(), \"This sale is already ended.\");\r\n        require(!canceledSale.getIsCanceled(), \"This sale is already canceled.\");\r\n\r\n        canceledSale.cancel();\r\n\r\n        _saleStatusOfMARS_NFT[canceledSale.getMARS_NFT_Id()] = false;\r\n    }\r\n\r\n\r\n    /**\r\n    * buyNow\r\n    * Sale      .\r\n    *    .\r\n    * \r\n    * @ param uint256 saleId Sale ID\r\n    * @ param address buyer   \r\n    * @ return None\r\n    * @ exception    \r\n    * @ exception  MARS_NFT  \r\n    * @ exception         \r\n    */\r\n    function SalePrice(uint256 saleId) public view returns(uint256) {\r\n        return Sale(_saleAddrs[saleId]).getPrice();\r\n    }\r\n\r\n    function buyerBal(address buyer) public view returns(uint256){\r\n        return O2Token(_O2TokenContractAddress).balanceOf(buyer);\r\n    }\r\n\r\n    function buyNow(uint256 saleId, address buyer) public payable {\r\n        Sale finishedSale = Sale(_saleAddrs[saleId]);\r\n        require(!finishedSale.getIsEnded(), \"This sale is already ended.\");\r\n        require(MARS_NFT(_MARS_NFTContractAddress).ownerOf(finishedSale.getMARS_NFT_Id()) != buyer, \"Buyer must non equal owner of the token.\");\r\n        require(MARS_NFT(_MARS_NFTContractAddress).ownerOf(finishedSale.getMARS_NFT_Id()) == finishedSale.getSeller(), \"Seller must equal owner of the token.\");\r\n        require(O2Token(_O2TokenContractAddress).balanceOf(buyer) >= finishedSale.getPrice(), \"Buyer's balance is exhausted......\");\r\n\r\n        finishedSale.buyNow(buyer);\r\n\r\n        reportBuyer(saleId, buyer);\r\n        _saleStatusOfMARS_NFT[finishedSale.getMARS_NFT_Id()] = false;\r\n    }\r\n\r\n    /** \r\n    * reportBuyer\r\n    * Sale     \r\n    * \r\n    * @ param uint256 endedSaleId  Sale Id\r\n    * @ param address saleBuyer \r\n    * @ return None\r\n    * @ exception None\r\n    */\r\n    function reportBuyer(uint256 endedSaleId, address saleBuyer) private {\r\n        _saleBuyers[endedSaleId] = saleBuyer;\r\n        _buySaleIdsByWallet[saleBuyer].push(endedSaleId);\r\n        _saleIdsByWallet[saleBuyer].push(endedSaleId);\r\n    }\r\n\r\n    function getSale(uint256 saleId) public view returns(address) {\r\n        return _saleAddrs[saleId];\r\n    }\r\n\r\n    function getSeller(uint256 saleId) public view returns(address) {\r\n        return _saleSellers[saleId];\r\n    }\r\n\r\n    function getBuyer(uint256 saleId) public view returns(address) {\r\n        require(_saleBuyers[saleId] != address(0), \"This sale is proceeding or canceled.\");\r\n\r\n        return _saleBuyers[saleId];\r\n    }\r\n\r\n    function getSellIdsByWallet(address seller) public view returns(uint256[] memory) {\r\n        return _sellSaleIdsByWallet[seller];\r\n    }\r\n\r\n    function getBuyIdsByWallet(address buyer) public view returns(uint256[] memory) {\r\n        return _buySaleIdsByWallet[buyer];\r\n    }\r\n\r\n    function getSaleIdsByWallet(address walletAddr) public view returns(uint256[] memory) {\r\n        return _saleIdsByWallet[walletAddr];\r\n    }\r\n\r\n    function getSaleIdsOfMARS_NFT(uint256 MARS_NFT_Id) public view returns(uint256[] memory) {\r\n        return _saleIdsOfMARS_NFT[MARS_NFT_Id];\r\n    }\r\n\r\n    function getSaleStatusOfMARS_NFT(uint256 MARS_NFT_Id) public view returns(bool) {\r\n        return _saleStatusOfMARS_NFT[MARS_NFT_Id];\r\n    }\r\n\r\n    function getCurrentSaleOfMARS_NFT(uint256 MARS_NFT_Id) public view returns(uint256) {\r\n        require(_saleStatusOfMARS_NFT[MARS_NFT_Id], \"This MARS_NFT is not on sale.\");\r\n        return _currentSaleOfMARS_NFT[MARS_NFT_Id];\r\n    }\r\n}",
  "sourcePath": "C:\\Users\\elfn7\\Desktop\\gitlab\\S08P22E207\\truffle\\contracts\\SaleFactory.sol",
  "compiler": {
    "name": "solc",
    "version": "0.8.18+commit.87f61d96.Emscripten.clang"
  },
  "schemaVersion": "3.4.13",
  "updatedAt": "2023-04-04T13:54:24.200Z",
  "networkType": "ethereum",
  "devdoc": {
    "kind": "dev",
    "methods": {
      "owner()": {
        "details": "Returns the address of the current owner."
      },
      "renounceOwnership()": {
        "details": "Leaves the contract without owner. It will not be possible to call `onlyOwner` functions anymore. Can only be called by the current owner. NOTE: Renouncing ownership will leave the contract without an owner, thereby removing any functionality that is only available to the owner."
      },
      "transferOwnership(address)": {
        "details": "Transfers ownership of the contract to a new account (`newOwner`). Can only be called by the current owner."
      }
    },
    "version": 1
  },
  "userdoc": {
    "kind": "user",
    "methods": {
      "SalePrice(uint256)": {
        "notice": "buyNow Sale      .    .  param uint256 saleId Sale ID param address buyer    return None exception     exception  MARS_NFT   exception         "
      },
      "cancelSale(uint256)": {
        "notice": "cancelSale  Sale   .  param uint256 saleId  Sale ID return None exception  Sale   exception  Sale   "
      },
      "constructor": {
        "notice": "constructor Sale   SaleFactory   param address O2TokenContractAddress O2 (ERC-20)   param address MARS_NFTContractAddress NFT(ERC-721)   return None exception None"
      },
      "createSale(uint256,address,uint256)": {
        "notice": "createSale  Sale       param uint256 MARS_NFT_Id MARS_NFT ID  param address seller  param uint256 buyNowPrice    param uint256 startedAt    return None exception    0   exception MARS_NFT        exception  MARS_NFT  "
      }
    },
    "version": 1
  }
}