{
  "contractName": "Sale",
  "abi": [
    {
      "inputs": [
        {
          "internalType": "uint256",
          "name": "MARS_NFT_Id",
          "type": "uint256"
        },
        {
          "internalType": "address",
          "name": "seller",
          "type": "address"
        },
        {
          "internalType": "uint256",
          "name": "price",
          "type": "uint256"
        },
        {
          "internalType": "uint256",
          "name": "startedAt",
          "type": "uint256"
        },
        {
          "internalType": "address",
          "name": "O2TokenContractAddress",
          "type": "address"
        },
        {
          "internalType": "address",
          "name": "MARS_NFTContractAddress",
          "type": "address"
        }
      ],
      "stateMutability": "nonpayable",
      "type": "constructor"
    },
    {
      "anonymous": false,
      "inputs": [
        {
          "indexed": true,
          "internalType": "address",
          "name": "previousOwner",
          "type": "address"
        },
        {
          "indexed": true,
          "internalType": "address",
          "name": "newOwner",
          "type": "address"
        }
      ],
      "name": "OwnershipTransferred",
      "type": "event"
    },
    {
      "inputs": [],
      "name": "owner",
      "outputs": [
        {
          "internalType": "address",
          "name": "",
          "type": "address"
        }
      ],
      "stateMutability": "view",
      "type": "function"
    },
    {
      "inputs": [],
      "name": "renounceOwnership",
      "outputs": [],
      "stateMutability": "nonpayable",
      "type": "function"
    },
    {
      "inputs": [
        {
          "internalType": "address",
          "name": "newOwner",
          "type": "address"
        }
      ],
      "name": "transferOwnership",
      "outputs": [],
      "stateMutability": "nonpayable",
      "type": "function"
    },
    {
      "inputs": [],
      "name": "end",
      "outputs": [],
      "stateMutability": "nonpayable",
      "type": "function"
    },
    {
      "inputs": [],
      "name": "cancel",
      "outputs": [],
      "stateMutability": "nonpayable",
      "type": "function"
    },
    {
      "inputs": [],
      "name": "balanceOf",
      "outputs": [
        {
          "internalType": "uint256",
          "name": "",
          "type": "uint256"
        }
      ],
      "stateMutability": "view",
      "type": "function"
    },
    {
      "inputs": [
        {
          "internalType": "address",
          "name": "buyer",
          "type": "address"
        }
      ],
      "name": "buyNow",
      "outputs": [],
      "stateMutability": "payable",
      "type": "function"
    },
    {
      "inputs": [],
      "name": "getMARS_NFT_Id",
      "outputs": [
        {
          "internalType": "uint256",
          "name": "",
          "type": "uint256"
        }
      ],
      "stateMutability": "view",
      "type": "function"
    },
    {
      "inputs": [],
      "name": "getSeller",
      "outputs": [
        {
          "internalType": "address",
          "name": "",
          "type": "address"
        }
      ],
      "stateMutability": "view",
      "type": "function"
    },
    {
      "inputs": [],
      "name": "getBuyer",
      "outputs": [
        {
          "internalType": "address",
          "name": "",
          "type": "address"
        }
      ],
      "stateMutability": "view",
      "type": "function"
    },
    {
      "inputs": [],
      "name": "getPrice",
      "outputs": [
        {
          "internalType": "uint256",
          "name": "",
          "type": "uint256"
        }
      ],
      "stateMutability": "view",
      "type": "function"
    },
    {
      "inputs": [],
      "name": "getStartedAt",
      "outputs": [
        {
          "internalType": "uint256",
          "name": "",
          "type": "uint256"
        }
      ],
      "stateMutability": "view",
      "type": "function"
    },
    {
      "inputs": [],
      "name": "getEndedAt",
      "outputs": [
        {
          "internalType": "uint256",
          "name": "",
          "type": "uint256"
        }
      ],
      "stateMutability": "view",
      "type": "function"
    },
    {
      "inputs": [],
      "name": "getIsEnded",
      "outputs": [
        {
          "internalType": "bool",
          "name": "",
          "type": "bool"
        }
      ],
      "stateMutability": "view",
      "type": "function"
    },
    {
      "inputs": [],
      "name": "getIsCanceled",
      "outputs": [
        {
          "internalType": "bool",
          "name": "",
          "type": "bool"
        }
      ],
      "stateMutability": "view",
      "type": "function"
    },
    {
      "inputs": [
        {
          "internalType": "address",
          "name": "_operator",
          "type": "address"
        },
        {
          "internalType": "address",
          "name": "_from",
          "type": "address"
        },
        {
          "internalType": "uint256",
          "name": "_tokenId",
          "type": "uint256"
        },
        {
          "internalType": "bytes",
          "name": "_data",
          "type": "bytes"
        }
      ],
      "name": "onERC721Received",
      "outputs": [
        {
          "internalType": "bytes4",
          "name": "",
          "type": "bytes4"
        }
      ],
      "stateMutability": "pure",
      "type": "function"
    }
  ],
  "bytecode": "0x60806040523480156200001157600080fd5b5060405162001a4038038062001a40833981810160405281019062000037919062000417565b620000576200004b620002a660201b60201c565b620002ae60201b60201c565b600084116200009d576040517f08c379a0000000000000000000000000000000000000000000000000000000008152600401620000949062000514565b60405180910390fd5b8473ffffffffffffffffffffffffffffffffffffffff168173ffffffffffffffffffffffffffffffffffffffff16636352211e886040518263ffffffff1660e01b8152600401620000ef919062000547565b602060405180830381865afa1580156200010d573d6000803e3d6000fd5b505050506040513d601f19601f8201168201806040525081019062000133919062000564565b73ffffffffffffffffffffffffffffffffffffffff16146200018c576040517f08c379a00000000000000000000000000000000000000000000000000000000081526004016200018390620005e6565b60405180910390fd5b8560018190555084600260006101000a81548173ffffffffffffffffffffffffffffffffffffffff021916908373ffffffffffffffffffffffffffffffffffffffff16021790555083600481905550826005819055506000600760006101000a81548160ff0219169083151502179055506000600760016101000a81548160ff02191690831515021790555081600760026101000a81548173ffffffffffffffffffffffffffffffffffffffff021916908373ffffffffffffffffffffffffffffffffffffffff16021790555080600860006101000a81548173ffffffffffffffffffffffffffffffffffffffff021916908373ffffffffffffffffffffffffffffffffffffffff16021790555050505050505062000608565b600033905090565b60008060009054906101000a900473ffffffffffffffffffffffffffffffffffffffff169050816000806101000a81548173ffffffffffffffffffffffffffffffffffffffff021916908373ffffffffffffffffffffffffffffffffffffffff1602179055508173ffffffffffffffffffffffffffffffffffffffff168173ffffffffffffffffffffffffffffffffffffffff167f8be0079c531659141344cd1fd0a4f28419497f9722a3daafe3b4186f6b6457e060405160405180910390a35050565b600080fd5b6000819050919050565b6200038c8162000377565b81146200039857600080fd5b50565b600081519050620003ac8162000381565b92915050565b600073ffffffffffffffffffffffffffffffffffffffff82169050919050565b6000620003df82620003b2565b9050919050565b620003f181620003d2565b8114620003fd57600080fd5b50565b6000815190506200041181620003e6565b92915050565b60008060008060008060c0878903121562000437576200043662000372565b5b60006200044789828a016200039b565b96505060206200045a89828a0162000400565b95505060406200046d89828a016200039b565b94505060606200048089828a016200039b565b93505060806200049389828a0162000400565b92505060a0620004a689828a0162000400565b9150509295509295509295565b600082825260208201905092915050565b7f5072696365206d75737420626520686967686572207468616e20302e00000000600082015250565b6000620004fc601c83620004b3565b91506200050982620004c4565b602082019050919050565b600060208201905081810360008301526200052f81620004ed565b9050919050565b620005418162000377565b82525050565b60006020820190506200055e600083018462000536565b92915050565b6000602082840312156200057d576200057c62000372565b5b60006200058d8482850162000400565b91505092915050565b7f53656c6c6572206973206e6f74206f776e65722e000000000000000000000000600082015250565b6000620005ce601483620004b3565b9150620005db8262000596565b602082019050919050565b600060208201905081810360008301526200060181620005bf565b9050919050565b61142880620006186000396000f3fe6080604052600436106100f35760003560e01c8063715018a61161008a578063dbd0e1b611610059578063dbd0e1b6146102eb578063ea8a1af014610316578063efbe1c1c1461032d578063f2fde38b14610344576100f3565b8063715018a614610253578063722713f71461026a5780638da5cb5b1461029557806398d5fdca146102c0576100f3565b80631d8bbc3f116100c65780631d8bbc3f146101b65780632a0e1c4f146101d257806341fc8d75146101fd578063603daf9a14610228576100f3565b8063089de03d146100f85780630a03d71e14610123578063150b7a021461014e5780631906ab9b1461018b575b600080fd5b34801561010457600080fd5b5061010d61036d565b60405161011a9190610c4e565b60405180910390f35b34801561012f57600080fd5b50610138610377565b6040516101459190610c84565b60405180910390f35b34801561015a57600080fd5b5061017560048036038101906101709190610e83565b61038e565b6040516101829190610f41565b60405180910390f35b34801561019757600080fd5b506101a06103a2565b6040516101ad9190610c4e565b60405180910390f35b6101d060048036038101906101cb9190610f5c565b6103fb565b005b3480156101de57600080fd5b506101e7610820565b6040516101f49190610c84565b60405180910390f35b34801561020957600080fd5b50610212610837565b60405161021f9190610c4e565b60405180910390f35b34801561023457600080fd5b5061023d610841565b60405161024a9190610f98565b60405180910390f35b34801561025f57600080fd5b5061026861086b565b005b34801561027657600080fd5b5061027f61087f565b60405161028c9190610c4e565b60405180910390f35b3480156102a157600080fd5b506102aa610922565b6040516102b79190610f98565b60405180910390f35b3480156102cc57600080fd5b506102d561094b565b6040516102e29190610c4e565b60405180910390f35b3480156102f757600080fd5b50610300610955565b60405161030d9190610f98565b60405180910390f35b34801561032257600080fd5b5061032b61097f565b005b34801561033957600080fd5b50610342610a44565b005b34801561035057600080fd5b5061036b60048036038101906103669190610f5c565b610a68565b005b6000600154905090565b6000600760009054906101000a900460ff16905090565b600063150b7a0260e01b9050949350505050565b6000600760009054906101000a900460ff166103f3576040517f08c379a00000000000000000000000000000000000000000000000000000000081526004016103ea90611010565b60405180910390fd5b600654905090565b600760009054906101000a900460ff161561044b576040517f08c379a00000000000000000000000000000000000000000000000000000000081526004016104429061107c565b60405180910390fd5b600260009054906101000a900473ffffffffffffffffffffffffffffffffffffffff1673ffffffffffffffffffffffffffffffffffffffff16600860009054906101000a900473ffffffffffffffffffffffffffffffffffffffff1673ffffffffffffffffffffffffffffffffffffffff16636352211e6001546040518263ffffffff1660e01b81526004016104e19190610c4e565b602060405180830381865afa1580156104fe573d6000803e3d6000fd5b505050506040513d601f19601f8201168201806040525081019061052291906110b1565b73ffffffffffffffffffffffffffffffffffffffff1614610578576040517f08c379a000000000000000000000000000000000000000000000000000000000815260040161056f9061112a565b60405180910390fd5b600454600760029054906101000a900473ffffffffffffffffffffffffffffffffffffffff1673ffffffffffffffffffffffffffffffffffffffff166370a08231836040518263ffffffff1660e01b81526004016105d69190610f98565b602060405180830381865afa1580156105f3573d6000803e3d6000fd5b505050506040513d601f19601f82011682018060405250810190610617919061115f565b1015610658576040517f08c379a000000000000000000000000000000000000000000000000000000000815260040161064f906111d8565b60405180910390fd5b600860009054906101000a900473ffffffffffffffffffffffffffffffffffffffff1673ffffffffffffffffffffffffffffffffffffffff166342842e0e600260009054906101000a900473ffffffffffffffffffffffffffffffffffffffff16836001546040518463ffffffff1660e01b81526004016106db939291906111f8565b600060405180830381600087803b1580156106f557600080fd5b505af1158015610709573d6000803e3d6000fd5b50505050600760029054906101000a900473ffffffffffffffffffffffffffffffffffffffff1673ffffffffffffffffffffffffffffffffffffffff166323b872dd82600260009054906101000a900473ffffffffffffffffffffffffffffffffffffffff166004546040518463ffffffff1660e01b8152600401610790939291906111f8565b6020604051808303816000875af11580156107af573d6000803e3d6000fd5b505050506040513d601f19601f820116820180604052508101906107d3919061125b565b5080600360006101000a81548173ffffffffffffffffffffffffffffffffffffffff021916908373ffffffffffffffffffffffffffffffffffffffff16021790555061081d610a44565b50565b6000600760019054906101000a900460ff16905090565b6000600554905090565b6000600360009054906101000a900473ffffffffffffffffffffffffffffffffffffffff16905090565b610873610aeb565b61087d6000610b69565b565b6000600760029054906101000a900473ffffffffffffffffffffffffffffffffffffffff1673ffffffffffffffffffffffffffffffffffffffff166370a08231306040518263ffffffff1660e01b81526004016108dc9190610f98565b602060405180830381865afa1580156108f9573d6000803e3d6000fd5b505050506040513d601f19601f8201168201806040525081019061091d919061115f565b905090565b60008060009054906101000a900473ffffffffffffffffffffffffffffffffffffffff16905090565b6000600454905090565b6000600260009054906101000a900473ffffffffffffffffffffffffffffffffffffffff16905090565b600760009054906101000a900460ff16156109cf576040517f08c379a00000000000000000000000000000000000000000000000000000000081526004016109c69061107c565b60405180910390fd5b600760019054906101000a900460ff1615610a1f576040517f08c379a0000000000000000000000000000000000000000000000000000000008152600401610a16906112d4565b60405180910390fd5b6001600760016101000a81548160ff021916908315150217905550610a42610a44565b565b426006819055506001600760006101000a81548160ff021916908315150217905550565b610a70610aeb565b600073ffffffffffffffffffffffffffffffffffffffff168173ffffffffffffffffffffffffffffffffffffffff1603610adf576040517f08c379a0000000000000000000000000000000000000000000000000000000008152600401610ad690611366565b60405180910390fd5b610ae881610b69565b50565b610af3610c2d565b73ffffffffffffffffffffffffffffffffffffffff16610b11610922565b73ffffffffffffffffffffffffffffffffffffffff1614610b67576040517f08c379a0000000000000000000000000000000000000000000000000000000008152600401610b5e906113d2565b60405180910390fd5b565b60008060009054906101000a900473ffffffffffffffffffffffffffffffffffffffff169050816000806101000a81548173ffffffffffffffffffffffffffffffffffffffff021916908373ffffffffffffffffffffffffffffffffffffffff1602179055508173ffffffffffffffffffffffffffffffffffffffff168173ffffffffffffffffffffffffffffffffffffffff167f8be0079c531659141344cd1fd0a4f28419497f9722a3daafe3b4186f6b6457e060405160405180910390a35050565b600033905090565b6000819050919050565b610c4881610c35565b82525050565b6000602082019050610c636000830184610c3f565b92915050565b60008115159050919050565b610c7e81610c69565b82525050565b6000602082019050610c996000830184610c75565b92915050565b6000604051905090565b600080fd5b600080fd5b600073ffffffffffffffffffffffffffffffffffffffff82169050919050565b6000610cde82610cb3565b9050919050565b610cee81610cd3565b8114610cf957600080fd5b50565b600081359050610d0b81610ce5565b92915050565b610d1a81610c35565b8114610d2557600080fd5b50565b600081359050610d3781610d11565b92915050565b600080fd5b600080fd5b6000601f19601f8301169050919050565b7f4e487b7100000000000000000000000000000000000000000000000000000000600052604160045260246000fd5b610d9082610d47565b810181811067ffffffffffffffff82111715610daf57610dae610d58565b5b80604052505050565b6000610dc2610c9f565b9050610dce8282610d87565b919050565b600067ffffffffffffffff821115610dee57610ded610d58565b5b610df782610d47565b9050602081019050919050565b82818337600083830152505050565b6000610e26610e2184610dd3565b610db8565b905082815260208101848484011115610e4257610e41610d42565b5b610e4d848285610e04565b509392505050565b600082601f830112610e6a57610e69610d3d565b5b8135610e7a848260208601610e13565b91505092915050565b60008060008060808587031215610e9d57610e9c610ca9565b5b6000610eab87828801610cfc565b9450506020610ebc87828801610cfc565b9350506040610ecd87828801610d28565b925050606085013567ffffffffffffffff811115610eee57610eed610cae565b5b610efa87828801610e55565b91505092959194509250565b60007fffffffff0000000000000000000000000000000000000000000000000000000082169050919050565b610f3b81610f06565b82525050565b6000602082019050610f566000830184610f32565b92915050565b600060208284031215610f7257610f71610ca9565b5b6000610f8084828501610cfc565b91505092915050565b610f9281610cd3565b82525050565b6000602082019050610fad6000830184610f89565b92915050565b600082825260208201905092915050565b7f546869732073616c65206973206e6f7420656e646564207965742e0000000000600082015250565b6000610ffa601b83610fb3565b915061100582610fc4565b602082019050919050565b6000602082019050818103600083015261102981610fed565b9050919050565b7f546869732073616c6520697320616c726561647920656e6465642e0000000000600082015250565b6000611066601b83610fb3565b915061107182611030565b602082019050919050565b6000602082019050818103600083015261109581611059565b9050919050565b6000815190506110ab81610ce5565b92915050565b6000602082840312156110c7576110c6610ca9565b5b60006110d58482850161109c565b91505092915050565b7f73656c6c6572206973206e6f74206f776e657200000000000000000000000000600082015250565b6000611114601383610fb3565b915061111f826110de565b602082019050919050565b6000602082019050818103600083015261114381611107565b9050919050565b60008151905061115981610d11565b92915050565b60006020828403121561117557611174610ca9565b5b60006111838482850161114a565b91505092915050565b7f427579657227732062616c616e6365206973206578686175737465642e000000600082015250565b60006111c2601d83610fb3565b91506111cd8261118c565b602082019050919050565b600060208201905081810360008301526111f1816111b5565b9050919050565b600060608201905061120d6000830186610f89565b61121a6020830185610f89565b6112276040830184610c3f565b949350505050565b61123881610c69565b811461124357600080fd5b50565b6000815190506112558161122f565b92915050565b60006020828403121561127157611270610ca9565b5b600061127f84828501611246565b91505092915050565b7f546869732073616c6520697320616c72656164792063616e63656c65642e0000600082015250565b60006112be601e83610fb3565b91506112c982611288565b602082019050919050565b600060208201905081810360008301526112ed816112b1565b9050919050565b7f4f776e61626c653a206e6577206f776e657220697320746865207a65726f206160008201527f6464726573730000000000000000000000000000000000000000000000000000602082015250565b6000611350602683610fb3565b915061135b826112f4565b604082019050919050565b6000602082019050818103600083015261137f81611343565b9050919050565b7f4f776e61626c653a2063616c6c6572206973206e6f7420746865206f776e6572600082015250565b60006113bc602083610fb3565b91506113c782611386565b602082019050919050565b600060208201905081810360008301526113eb816113af565b905091905056fea26469706673582212206a7fe4c92c0825b40d1578cec1a1b49f3f44a6a18a4b54b5b94a928bbe06b39064736f6c63430008120033",
  "immutableReferences": {},
  "source": "// SPDX-License-Identifier: MIT\r\npragma solidity >=0.7.0 <0.9.0;\r\n\r\nimport \"@openzeppelin/contracts/access/Ownable.sol\";\r\nimport \"@openzeppelin/contracts/token/ERC721/IERC721Receiver.sol\";\r\nimport \"@openzeppelin/contracts/utils/math/SafeMath.sol\";\r\n\r\nimport \"./O2Token.sol\";\r\nimport \"./MARS_NFT.sol\";\r\n\r\ncontract Sale is Ownable, IERC721Receiver {\r\n    using SafeMath for uint256;\r\n\r\n    //  MFT ID\r\n    uint256 private _MARS_NFT_Id;\r\n    //   \r\n    address private _seller;\r\n    //   \r\n    address private _buyer;\r\n    //   \r\n    uint256 private _price;\r\n    //   \r\n    uint256 private _startedAt;\r\n    //   \r\n    uint256 private _endedAt;\r\n    //   \r\n    bool private _isEnded;\r\n    //   \r\n    bool private _isCanceled;\r\n\r\n    // O2    ERC-20  \r\n    O2Token private _O2TokenContract;\r\n    // MFT   ERC-721  \r\n    MARS_NFT private _MARS_NFTContract;\r\n\r\n    /**\r\n    * constructor\r\n    *  Sale  \r\n    * \r\n    * @ param uint256 MFTId MFT ID\r\n    * @ param address seller \r\n    * @ param uint256 price   \r\n    * @ param uint256 startedAt   \r\n    * @ param address O2TokenContractAddress O2 (ERC-20)  \r\n    * @ param address MARS_NFTContractAddress MARS_NFT(ERC-721)  \r\n    * @ return None\r\n    * @ exception    0  \r\n    * @ exception MFT       \r\n    */\r\n    constructor(\r\n        uint256 MARS_NFT_Id, \r\n        address seller, \r\n        uint256 price, \r\n        uint256 startedAt, \r\n        address O2TokenContractAddress,\r\n        address MARS_NFTContractAddress\r\n    ) {\r\n        require(price > 0, \"Price must be higher than 0.\");\r\n        require(MARS_NFT(MARS_NFTContractAddress).ownerOf(MARS_NFT_Id) == seller, \"Seller is not owner.\");\r\n\r\n        _MARS_NFT_Id = MARS_NFT_Id;\r\n        _seller = seller;\r\n        _price = price;\r\n        _startedAt = startedAt;\r\n        _isEnded = false;\r\n        _isCanceled = false;\r\n        _O2TokenContract = O2Token(O2TokenContractAddress);\r\n        _MARS_NFTContract = MARS_NFT(MARS_NFTContractAddress);\r\n    }\r\n\r\n    /**\r\n    * end\r\n    *   .\r\n    *  Sale  .\r\n    * \r\n    * @ param None\r\n    * @ return None\r\n    * @ exception  Sale  \r\n    * @ exception  Sale   \r\n    */\r\n    function end() public {\r\n        _endedAt = block.timestamp;\r\n        _isEnded = true;\r\n    }\r\n\r\n    /**\r\n    * cancel\r\n    *  Sale   ,\r\n    *    .\r\n    *      Sale  .\r\n    * \r\n    * @ param None\r\n    * @ return None\r\n    * @ exception  Sale  \r\n    * @ exception  Sale   \r\n    */\r\n    function cancel() public {\r\n        require(!_isEnded, \"This sale is already ended.\");\r\n        require(!_isCanceled, \"This sale is already canceled.\");\r\n        \r\n        _isCanceled = true;\r\n        end();\r\n    }\r\n\r\n    function balanceOf() public view returns(uint256) {\r\n        return _O2TokenContract.balanceOf(address(this));\r\n    }\r\n\r\n    /**\r\n    * buyNow\r\n    *  MFT  O2Token  Transfer. \r\n    *    .\r\n    *  Sale Nego    .\r\n    *  Sale .\r\n    * \r\n    * @ param address buyer   \r\n    * @ return None\r\n    * @ exception    \r\n    * @ exception  MARS_NFT  \r\n    * @ exception         \r\n    */\r\n    function buyNow(\r\n        address buyer\r\n    ) public payable {\r\n        require(!_isEnded, \"This sale is already ended.\");\r\n        require(_MARS_NFTContract.ownerOf(_MARS_NFT_Id) == _seller, \"seller is not owner\");\r\n        require(_O2TokenContract.balanceOf(buyer) >= _price, \"Buyer's balance is exhausted.\");\r\n\r\n        _MARS_NFTContract.safeTransferFrom(_seller, buyer, _MARS_NFT_Id);\r\n        _O2TokenContract.transferFrom(buyer, _seller, _price);\r\n\r\n        _buyer = buyer;\r\n        end();\r\n    }\r\n\r\n    function getMARS_NFT_Id() public view returns(uint256) {\r\n        return _MARS_NFT_Id;\r\n    }\r\n\r\n    function getSeller() public view returns(address) {\r\n        return _seller;\r\n    }\r\n\r\n    function getBuyer() public view returns(address) {\r\n        return _buyer;\r\n    }\r\n\r\n    function getPrice() public view returns(uint256) {\r\n        return _price;\r\n    }\r\n\r\n    function getStartedAt() public view returns(uint256) {\r\n        return _startedAt;\r\n    }\r\n\r\n    function getEndedAt() public view returns(uint256) {\r\n        require(_isEnded, \"This sale is not ended yet.\");\r\n        return _endedAt;\r\n    }\r\n\r\n    function getIsEnded() public view returns(bool) {\r\n        return _isEnded;\r\n    }\r\n\r\n    function getIsCanceled() public view returns(bool) {\r\n        return _isCanceled;\r\n    }\r\n\r\n    function onERC721Received(address _operator, address _from, uint256 _tokenId, bytes memory _data) override external pure returns(bytes4)\r\n    {\r\n        return this.onERC721Received.selector;\r\n    }\r\n}   ",
  "sourcePath": "C:\\Users\\SSAFY\\Desktop\\gitlab\\S08P22E207\\truffle\\contracts\\Sale.sol",
  "compiler": {
    "name": "solc",
    "version": "0.8.18+commit.87f61d96.Emscripten.clang"
  },
  "schemaVersion": "3.4.12",
  "updatedAt": "2023-03-31T08:20:14.306Z",
  "devdoc": {
    "kind": "dev",
    "methods": {
      "owner()": {
        "details": "Returns the address of the current owner."
      },
      "renounceOwnership()": {
        "details": "Leaves the contract without owner. It will not be possible to call `onlyOwner` functions anymore. Can only be called by the current owner. NOTE: Renouncing ownership will leave the contract without an owner, thereby removing any functionality that is only available to the owner."
      },
      "transferOwnership(address)": {
        "details": "Transfers ownership of the contract to a new account (`newOwner`). Can only be called by the current owner."
      }
    },
    "version": 1
  },
  "userdoc": {
    "kind": "user",
    "methods": {
      "buyNow(address)": {
        "notice": "buyNow  MFT  O2Token  Transfer.     .  Sale Nego    .  Sale .  param address buyer    return None exception     exception  MARS_NFT   exception         "
      },
      "cancel()": {
        "notice": "cancel  Sale   ,    .      Sale  .  param None return None exception  Sale   exception  Sale   "
      },
      "constructor": {
        "notice": "constructor  Sale    param uint256 MFTId MFT ID param address seller  param uint256 price    param uint256 startedAt    param address O2TokenContractAddress O2 (ERC-20)   param address MARS_NFTContractAddress MARS_NFT(ERC-721)   return None exception    0   exception MFT       "
      },
      "end()": {
        "notice": "end   .  Sale  .  param None return None exception  Sale   exception  Sale   "
      }
    },
    "version": 1
  }
}